:080000000C943E000C9400007A
:100008000C9400000C9400000C9400000C94000068
:100018000C9400000C9400000C9400000C94000058
:100028000C9400000C9422010C9400000C94000025
:100038000C9400000C9400000C9400000C94000038
:100048000C9400000C9400000C9400001027E803A6
:1000580064000A0001000010000110000100000007
:100068000000000000000100020066000600040015
:1000780068000000F894EE27ECBBF1E0FBBFEBBF93
:10008800E5BF8DE0A2E0BB27ED938A95E9F780E014
:1000980094E0A0E6ED930197E9F7EEE6F0E08591AC
:1000A8009591009761F0A591B59105901590BF01C4
:1000B800F00105900D920197E1F7FB01F0CFEFE514
:1000C800EDBFE4E0EEBFC0E6D1E00C94C2001A93A5
:1000D8000A9300E010E0F8010430E0E01E07ACF5F8
:1000E800C498EFE0EFB9779BFECFE0E0EFB9779BDC
:1000F800FECFC49AC498ECE0EFB9779BFECFE1E05D
:10010800EFB9779BFECFC49AC498EAE0EFB9779B22
:10011800FECFEFE0EFB9779BFECFC49AC498EBE02F
:10012800EFB9779BFECFE7E0EFB9779BFECFC49A94
:10013800C498E9E0EFB9779BFECFE0E0EFB9779B91
:10014800FECFC49A0F5F1F4FC7CF09911991089529
:10015800BA93AA931A930A93EA81FB810E944F01EA
:100168001E2F0A81C4981FB9779BFECF0FB9779BC2
:10017800FECFC49A19810881249608950E9415011A
:1001880023D07894A4DFA0E0B0E0E2DFA0E0B1E003
:10019800DFDFA0E0B2E0DCDFA0E0B3E0D9DFA0E081
:1001A800B4E0D6DFA0E0B5E0D3DFA0E0B6E0D0DF72
:1001B800A0E0B7E0CDDFA0E0B8E0CADFA8EEB3E08A
:1001C8000E944501E0CFFFCFE0E0E3BFE2BFECBF14
:1001D800EFBDEEBDEDBDECBDE7BDE6BDEBBDEABDD7
:1001E800E9BDE8BDE2BDE5BDE4BDE3BDE9BFEBB7F0
:1001F800EBBFE0E0E5BFE4BFEABFEBB9E0E9EAB98D
:10020800E6E8E0BDE0E0E0BDE3E3E9B9E0E8E8B94D
:10021800E0E0E0BFE6B9E0E5EDB9E0E0EEB9E6BF61
:100228000895E0E0EABBEBBBE1EBE7BBE1E0E8BB4C
:10023800E0E0E4BBE5BBE1BBE2BB0895EA93FA93D7
:10024800EFB7EA931A930A931BB10CB1E12FEC7143
:1002580089F4E52D5394F0E0E05AFE4F0083E0E581
:10026800E51509F455247394E0E5E71519F47724A6
:10027800689420F809911991E991EFBFF991E991F2
:100288001895109639F080ED97E00197F1F7A89549
:100298001197C9F70895EF2FFF27E7FDFFEF08959E
:00000001FF
