:020000000C945E
:100002003C000C9400000C9400000C9400000C9432
:1000120000000C9400000C9400000C9400000C945E
:1000220000000C9400000C9400000C9438010C9415
:1000320000000C9400000C9400000C9400000C943E
:1000420000000C9400000C9400000C9400000C942E
:1000520000001027E80364000A00010000100001FC
:100062001000010000000000010002006600010013
:10007200050068000000F894EE27ECBBF1E0FBBF3E
:10008200EBBFE5BF8DE0A2E0BB27ED938A95E9F7D0
:1000920080E094E0A0E6ED930197E9F7EAE6F0E06C
:1000A20085919591009761F0A591B5910590159074
:1000B200BF01F00105900D920197E1F7FB01F0CF2E
:1000C200EFE5EDBFE4E0EEBFC0E6D1E00C94C9007D
:1000D2001A930A9300E010E00430E0E01E07ACF54A
:1000E200C498EFE0EFB9779BFECFE0E0EFB9779BE2
:1000F200FECFC49AC498ECE0EFB9779BFECFE1E063
:10010200EFB9779BFECFC49AC498EAE0EFB9779B28
:10011200FECFEFE0EFB9779BFECFC49AC498EBE035
:10012200EFB9779BFECFE7E0EFB9779BFECFC49A9A
:10013200C498E9E0EFB9779BFECFE0E0EFB9779B97
:10014200FECFC49A0F5F1F4FC7CF0991199108952F
:10015200AA93C498E881EFB9779BFECF06C0AA9311
:10016200E881EFB9779BFECFC49A21960895AA93AE
:100172001A930A931B810A81AB81EADF0E945D0117
:10018200AA81EDDF0E945D011981088124960895FC
:1001920000E010E00E942B0130D0789499DF053006
:1001A200E0E01E0704F5E0E00E946101E1E00E9448
:1001B2006101E2E00E946101E3E00E946101E4E08A
:1001C2000E946101E5E00E946101E6E00E94610196
:1001D200E7E00E946101E8E00E9461010F5F1F4FAA
:1001E2000E945D01DCCFE1E0EA93A7E0C0DFE2E03C
:1001F200EA93A7E0BCDFFFCFFFCFE0E0E3BFE2BFBF
:10020200ECBFEFBDEEBDEDBDECBDE7BDE6BDEBBDA8
:10021200EABDE9BDE8BDE2BDE5BDE4BDE3BDE9BFC0
:10022200EBB7EBBFE0E0E5BFE4BFEABFEBB9E0E963
:10023200EAB9E6E8E0BDE0E0E0BDE3E3E9B9E0E821
:10024200E8B9E0E0E0BFE6B9E0E5EDB9E0E0EEB93B
:10025200E6BF0895E0E0EABBEBBBE1EBE7BBE1E020
:10026200E8BBE0E0E4BBE5BBE1BBE2BB0895EA9397
:10027200FA93EFB7EA930E946F0110E000E03BB1FE
:100282002CB1E32FEC7181F4E12F1F5FF0E0E05A13
:10029200FE4F2083103509F410E05394E0E5E51594
:1002A20019F45524689420F80E9474012496E99167
:1002B200EFBFF991E9911895AAE0B0E00C946501BD
:1002C200EA93A0E00C94B800109639F080ED97E024
:1002D2000197F1F7A8951197C9F708953A932A93D0
:1002E2001A930A9308953B812A81198108810895FE
:00000001FF
