:0A0000000C943E000C9400000C94D8
:10000A0000000C9400000C9400000C9400000C9466
:10001A0000000C9400000C9400000C9400000C9456
:10002A0000000C94AA000C9400000C9400000C949C
:10003A0000000C9400000C9400000C9400000C9436
:10004A0000000C9400000C9400001027E8036400E0
:10005A000A00010000100001100001000000000069
:10006A0000000000010002006600060004006800AB
:10007A000000F894EE27ECBBF1E0FBBFEBBFE5BF55
:10008A008DE0A2E0BB27ED938A95E9F780E094E042
:10009A00A0E6ED930197E9F7EEE6F0E085919591F8
:1000AA00009761F0A591B59105901590BF01F001F7
:1000BA0005900D920197E1F7FB01F0CFEFE5EDBF57
:1000CA00E4E0EEBFC0E6D1E00C946B000E949E0013
:1000DA0003D07894FFCFFFCFE0E0E3BFE2BFECBFED
:1000EA00EFBDEEBDEDBDECBDE7BDE6BDEBBDEABDC6
:1000FA00E9BDE8BDE2BDE5BDE4BDE3BDE9BFEBB7DF
:10010A00EBBFE0E0E5BFE4BFEABFEBB9E0E9EAB97B
:10011A00E6E8E0BDE0E0E0BDE3E3E9B9E0E8E8B93C
:10012A00E0E0E0BFE6B9E0E5EDB9E0E0EEB9E6BF50
:10013A000895E0E0EABBEBBBE0EBE7BBE0E0E8BB3D
:10014A00E4BBE5BBE1BBE2BB0895EA93FA93EFB7E0
:10015A00EA931A930A931BB10CB1E12FEC7189F45B
:10016A00E52D5394F0E0E05AFE4F0083E0E5E515F3
:10017A0009F455247394E0E5E71519F47724689493
:10018A0020F809911991E991EFBFF991E991189530
:00000001FF
