:100000000C942A020C9447020C9447020C94470269
:100010000C9447020C9447020C9447020C9447023C
:100020000C9447020C9447020C9447020C9447022C
:100030000C9447020C9447020C9447020C9447021C
:100040000C9447020C9447020C9447020C9447020C
:100050000C944702000000C0C0E0E0F0F8FFFFFF92
:10006000FFFFFF0000000000000F0F0F0F0F0FFF3A
:10007000FFFFFFFFFF000000000000000000000085
:1000800000FFFFFFFFFFFF00000000000000000076
:100090000000007F7F7F7F7F7F0000000000000066
:1000A0000000000000000000000000000000000050
:1000B0000000000000000000000000000000000040
:1000C0000000000000000000000000000000000030
:1000D0000000000000000000000000000000000020
:1000E0000000000000000000000000000000000010
:1000F0000000000000000000000000000000000000
:1001000000000000000000000000000000000000EF
:1001100000000000000000000000000000000000DF
:1001200000000000000000000000000000000000CF
:1001300000000000000000000000000000000000BF
:1001400000000000000000000000000000000000AF
:10015000000000000000000000000000000000009F
:10016000000000000000000000000000000000008F
:10017000000000000000000000000000000000007F
:10018000000000000000000000000000000000006F
:10019000000000000000000000000000000000005F
:1001A000000000000000000000000000000000004F
:1001B000000000000000000000000000000000003F
:1001C000000000000000000000000000000000002F
:1001D000000000000000000000000000000000001F
:1001E000000000000000000000000000000000000F
:1001F00000000000000000000000000000000000FF
:1002000000000000000000000000000000000000EE
:1002100000000000000000000000000000000000DE
:1002200000000000000000000000000000000000CE
:1002300000000000000000000000000000000000BE
:1002400000000000000000000000000000000000AE
:1002500000000000F0FCFEFEFFFFFF7F3F3F0000BC
:10026000FFFFFEFEFCF0FFFFFFFFFFFFFF000000AF
:100270000000FFFFFFFFFFFFFFFFFFFFFFFFFF008B
:1002800000000000FFFFFFFFFFFF1F3F7F7F7F7F1A
:100290007F7E7C7C00007F7F7F7F3F1F000000000F
:1002A000000000000000000000000000000000004E
:1002B000000000000000000000000000000000003E
:1002C000000000000000000000000000000000002E
:1002D000000000000000000000000000000000001E
:1002E000000000000000000000000000000000000E
:1002F00000000000000000000000000000000000FE
:1003000000000000000000000000000000000000ED
:1003100000000000000000000000000000000000DD
:1003200000000000000000000000000000000000CD
:1003300000000000000000000000000000000000BD
:1003400000000000000000000000000000000000AD
:10035000000000000000000000000000000000009D
:10036000000000000000000000000000000000008D
:10037000000000000000000000000000000000007D
:10038000000000000000000000000000000000006D
:10039000000000000000000000000000000000005D
:1003A000000000000000000000000000000000004D
:1003B000000000000000000000000000000000003D
:1003C000000000000000000000000000000000002D
:1003D000000000000000000000000000000000001D
:1003E000000000000000000000000000000000000D
:1003F00000000000000000000000000000000000FD
:1004000000000000000000000000000000000000EC
:1004100000000000000000000000000000000000DC
:1004200000000000000000000000000000000000CC
:1004300000000000000000000000000000000000BC
:1004400000000000000000000000000000000000AC
:100450000000000011241FBECFE5D4E0DEBFCDBFF9
:1004600010E0A0E6B0E0E2E7F7E002C005900D92F0
:10047000A436B107D9F720E0A4E6B0E001C01D9290
:10048000A636B207E1F70E94A1030C94B7030C94BF
:10049000000088E480B911B888E70E945F0380E01B
:1004A0000E9481038EEA0E94810385ED0E948103F0
:1004B00080E80E94810388EA0E9481038FE30E9402
:1004C000810383ED0E94810380E00E94810380E428
:1004D0000E9481038DE80E94810384E10E948103D0
:1004E00080E20E94810380E00E94810381EA0E94F1
:1004F000810388EC0E9481038AED0E94810382E0DF
:100500000E94810381E80E9481038FE80E94810399
:1005100089ED0E94810381EF0E9481038BED0E948F
:10052000810380E40E94810384EA0E94810386EAB9
:100530000E9481038EE20E9481038FEA0E94810360
:100540000E9490031092640008950F931F93CF931D
:10055000DF93082F162FD42FC22F88E70E945F0346
:1005600080E00E94810381E20E948103802F0E942B
:100570008103812F0E94810380E00E94810382E237
:100580000E9481038D2F0E9481038C2F0E94810382
:100590000E949003DF91CF911F910F910895EF92E8
:1005A000FF920F931F93CF93DF9327E044E06FE711
:1005B00080E00E94A50288E70E945F0380E40E9419
:1005C000810304E010E06894EE24E7F8F12C0BC0FE
:1005D00080E00E94810321972097D1F701501109F3
:1005E0000115110519F0CE2DDF2DF2CF0E949003D9
:1005F00010926400DF91CF911F910F91FF90EF90C7
:1006000008958130910569F08230910519F0892BA8
:1006100051F404C088B3836088BB0895C09AC19820
:100620000895C19AC0980895EF92FF920F931F9377
:10063000CF93DF93CDB7DEB7C854D1090FB6F89486
:10064000DEBF0FBECDBF27E044E061E180E00E9445
:10065000A50288E70E945F0380E40E948103E0E630
:10066000F0E065917491CE0101960E94B003E2E63C
:10067000F0E065917491CE0101960E94B0038E0165
:100680000F5F1F4F7E0189E4E80EF11CF801849191
:100690000E9481030F5F1F4F0E151F05B9F70E94BF
:1006A0009003C85BDF4F0FB6F894DEBF0FBECDBF1F
:1006B000DF91CF911F910F91FF90EF90089594EAF1
:1006C00096BF06B607FEFDCF91B1987F9093650067
:1006D000983011F0903189F483B984E886BF06B66A
:1006E00007FEFDCF91B1987F90936500983139F066
:1006F00081E0903429F480E0089581E0089580E05D
:10070000089583B984E886BF06B607FEFDCF91B190
:10071000987F9093650081E0983209F480E0089515
:1007200084E986BF06B604FCFDCF08951ABA1BBA49
:100730008FEF87BB88B318BA14BA15BA11BA12BAB8
:1007400008950E94960382E090E00E9401030E94B7
:1007500049020E94CF0280E090E00E941403FFCF84
:10076000FB01DC0105900D920020E1F70895F8945B
:02077000FFCFB9
:0407720054025400D9
:00000001FF
