S00B00004750532E737265632F
S11300000C942A000C9447000C9447000C9447006D
S11300100C9447000C9447000C9447000C94470040
S11300200C9447000C9447000C9447000C94470030
S11300300C9447000C9447000C9447000C94470020
S11300400C9447000C9447000C9447000C94470010
S11300500C94470011241FBECFE5D4E0DEBFCDBF12
S113006010E0A0E6B0E0E4E8F3E002C005900D92F1
S1130070A03EB107D9F720E0A0EEB0E001C01D9288
S1130080A13EB207E1F70E94A1010C94C0010C94B7
S1130090000088E480B911B888E70E946A0180E012
S11300A00E948C018EEA0E948C0185ED0E948C01D5
S11300B080E80E948C0188EA0E948C018FE30E94F0
S11300C08C0183ED0E948C0180E00E948C0180E40D
S11300D00E948C018DE80E948C0184E10E948C01B5
S11300E080E20E948C0180E00E948C0181EA0E94DF
S11300F08C0188EC0E948C018AED0E948C0182E0C4
S11301000E948C0181E80E948C018FE80E948C017E
S113011089ED0E948C0181EF0E948C018BED0E947D
S11301208C0180E40E948C0184EA0E948C0186EA9E
S11301300E948C018EE20E948C018FEA0E948C0145
S11301400E949B0108950F931F93CF93DF93082F71
S1130150162FD42FC22F88E70E946A0180E00E94E4
S11301608C0181E20E948C01802F0E948C01812FDE
S11301700E948C0180E00E948C0182E20E948C012A
S11301808D2F0E948C018C2F0E948C010E949B0158
S1130190DF91CF911F910F910895CF93C82F88E7D6
S11301A00E946A0180E00E948C018C2F0E948C01C5
S11301B00E949B01CF910895EF92FF920F931F939A
S11301C0CF93DF9327E044E06FE780E00E94A30031
S11301D088E70E946A0180E40E948C0104E010E038
S11301E06894EE24E7F8F12C0BC080E00E948C01A7
S11301F021972097D1F7015011090115110519F024
S1130200CE2DDF2DF2CF0E949B01DF91CF911F9164
S11302100F91FF90EF9008950F931F93CF93DF9367
S11302208EEA0E94CD0027E044E06FE180E00E9466
S1130230A30088E70E946A0180E00E948C0181E2A9
S11302400E948C0180E00E948C018FE10E948C014D
S11302500E949B0188E70E946A0180E00E948C0151
S113026082E20E948C0184E00E948C0187E00E945B
S11302708C010E949B0181E20E94CD0080E00E94DB
S1130280CD0086E00E94CD0082E20E94CD0084E091
S11302900E94CD0087E00E94CD0087EA91E6019795
S11302A0F1F700C0000088E70E946A0180E40E9420
S11302B08C01C0E6D0E000EE10E089910E948C0130
S11302C0C017D107D1F70E949B01DF91CF911F91F5
S11302D00F91089594EA96BF06B607FEFDCF91B13B
S11302E0987F9093E000983011F0903189F483B9AD
S11302F084E886BF06B607FEFDCF91B1987F909340
S1130300E000983139F081E0903429F480E00895D8
S113031081E0089580E0089583B984E886BF06B635
S113032007FEFDCF91B1987F9093E00081E0983271
S113033009F480E0089584E986BF06B604FCFDCF85
S1130340089587B3896B87BB88B3896B88BBC49ACC
S1130350C3980E944900C39AC4980E944900C49A51
S1130360C3980E94DC00C39AC4980E94DC00C49A1B
S1130370C3980E940C01C39AC4980E940C01FFCF39
S1070380F894FFCF1B
S1130384010303030706060E1E1C1C3C787870E068
S1130394E0E0C08080800000000000000000000055
S11303A400000000000000808080808080808080C5
S11303B48383878F8FBFFEFCFCF8F0F0C0800000BD
S11303C400000000000E0F0F0F0F0FEFFFFFFFFFE1
S11303D4FFFF3F0F0F0F0FCFFFFFFFFFFFFFFE389D
S11303E400000000000000F8F8F8FFFFFFFFFFFF23
S11303F4FFF8F8F8F8FC7F7F7F7F3F1F1F07010099
S9030000FC
