:100000000C942A000C9447000C9447000C94470071
:100010000C9447000C9447000C9447000C94470044
:100020000C9447000C9447000C9447000C94470034
:100030000C9447000C9447000C9447000C94470024
:100040000C9447000C9447000C9447000C94470014
:100050000C94470011241FBECFE5D4E0DEBFCDBF16
:1000600010E0A0E6B0E0E0E1F3E002C005900D9200
:10007000A03EB107D9F720E0A0EEB0E001C01D928C
:10008000A13EB207E1F70E9467010C9486010C942F
:10009000000088E480B911B888E70E94300180E050
:1000A0000E9452018EEA0E94520185ED0E94520187
:1000B00080E80E94520188EA0E9452018FE30E9468
:1000C000520183ED0E94520180E00E94520180E4BF
:1000D0000E9452018DE80E94520184E10E94520167
:1000E00080E20E94520180E00E94520181EA0E9457
:1000F000520188EC0E9452018AED0E94520182E076
:100100000E94520181E80E9452018FE80E94520130
:1001100089ED0E94520181EF0E9452018BED0E94F5
:10012000520180E40E94520184EA0E94520186EA50
:100130000E9452018EE20E9452018FEA0E945201F7
:100140000E94610108950F931F93CF93DF93082FAF
:10015000162FD42FC22F88E70E94300180E00E9422
:10016000520181E20E945201802F0E945201812F90
:100170000E94520180E00E94520182E20E945201DC
:100180008D2F0E9452018C2F0E9452010E9461010A
:10019000DF91CF911F910F910895CF93C82F88E7DA
:1001A0000E94300180E00E9452018C2F0E94520177
:1001B0000E946101CF910895EF92FF920F931F93D8
:1001C000CF93DF9327E044E06FE780E00E94A30035
:1001D00088E70E94300180E40E94520104E010E0B0
:1001E0006894EE24E7F8F12C0BC080E00E945201E5
:1001F00021972097D1F7015011090115110519F028
:10020000CE2DDF2DF2CF0E946101DF91CF911F91A2
:100210000F91FF90EF9008950F931F93CF93DF936B
:100220008EEA0E94CD0027E044E06FE180E00E946A
:10023000A30088E70E94300180E40E945201C0E6DA
:10024000D0E000EE10E089910E945201C017D10762
:10025000D1F70E946101DF91CF911F910F91089515
:1002600094EA96BF06B607FEFDCF91B1987F9093B2
:10027000E000983011F0903189F483B984E886BFAA
:1002800006B607FEFDCF91B1987F9093E0009831BC
:1002900039F081E0903429F480E0089581E00895F8
:1002A00080E0089583B984E886BF06B607FEFDCFD7
:1002B00091B1987F9093E00081E0983209F480E05A
:1002C000089584E986BF06B604FCFDCF089587B380
:1002D000896B87BB88B3896B88BBC49AC3980E941B
:1002E0004900C39AC4980E944900C49AC3980E94C6
:1002F000DC00C39AC4980E94DC00C49AC3980E9490
:100300000C01C39AC4980E940C01FFCFF894FFCF50
:10031000010303030706060E1E1C1C3C787870E0E0
:10032000E0E0C080808000000000000000000000CD
:10033000000000000000008080808080808080803D
:100340008383878F8FBFFEFCFCF8F0F0C080000035
:1003500000000000000E0F0F0F0F0FEFFFFFFFFF59
:10036000FFFF3F0F0F0F0FCFFFFFFFFFFFFFFE3815
:1003700000000000000000F8F8F8FFFFFFFFFFFF9B
:10038000FFF8F8F8F8FC7F7F7F7F3F1F1F07010011
:00000001FF
