:100000000C9426120C9443120C9443120C94431239
:100010000C9443120C9443120C9443120C9443120C
:100020000C9443120C9443120C9443120C94C81574
:100030000C9443120C9443120C9443120C944312EC
:100040000C9443120C9443120C9443120C944312DC
:100050000C9443121A151D150115041507150A15E0
:100060000D151015131516150000000000000000F6
:100070000000000000000000000000000000000080
:100080000000000000000000000000000000000070
:100090000000000000000000000000000000000060
:1000A0000000000000000000000000000000000050
:1000B0000000000000000000000000000000000040
:1000C0000000000000000000000000000000000030
:1000D0000000000000000000000000000000000020
:1000E0000000000000000000000000000000000010
:1000F0000000000000000000000000000000000000
:1001000000000000000000000000000000000000EF
:1001100000000000000000000000000000000000DF
:1001200000000000000000000000000000000000CF
:1001300000000000000000000000000000000000BF
:1001400000000000000000000000000000000000AF
:10015000000000000000000000000000000000009F
:10016000000000000000000000000000000000008F
:10017000000000000000000000000000000000007F
:10018000000000000000000000000000000000006F
:10019000000000000000000000000000000000005F
:1001A000000000000000000000000000000000004F
:1001B000000000000000000000000000000000003F
:1001C000000000000000000000000000000000002F
:1001D000000000000000000000000000000000001F
:1001E000000000000000000000000000000000000F
:1001F00000000000000000000000000000000000FF
:1002000000000000000000000000000000000000EE
:1002100000000000000000000000000000000000DE
:1002200000000000000000000000000000000000CE
:1002300000000000000000000000000000000000BE
:1002400000000000000000000000000000000000AE
:10025000000000000000000000000000000000009E
:10026000000000000000000080808080800F0F0FE1
:100270000F0F80808080801F1F1F1F1F0000000045
:10028000000000000000000000000000000000006E
:10029000000000000000000000000000000000005E
:1002A000000000000000000000000000000000004E
:1002B000000000000000000000000000000000003E
:1002C000000000000000000000000000000000002E
:1002D000000000000000000000000000000000001E
:1002E000000000000000000000000000000000000E
:1002F00000000000000000000000000000000000FE
:1003000000000000000000000000000000000000ED
:1003100000000000000000000000000000000000DD
:1003200000000000000000000000000000000000CD
:1003300000000000000000000000000000000000BD
:1003400000000000000000000000000000000000AD
:10035000000000000000000000000000000000009D
:10036000000000000000000000000000000000008D
:10037000000000000000000000000000000000007D
:10038000000000000000000000000000000000006D
:10039000000000000000000000000000000000005D
:1003A000000000000000000000000000000000004D
:1003B000000000000000000000000000000000003D
:1003C000000000000000000000000000000000002D
:1003D000000000000000000000000000000000001D
:1003E000000000000000000000000000000000000D
:1003F00000000000000000000000000000000000FD
:1004000000000000000000000000000000000000EC
:1004100000000000000000000000000000000000DC
:1004200000000000000000000000000000000000CC
:1004300000000000000000000000000000000000BC
:1004400000000000000000000000000000000000AC
:10045000000000000000000000000000000000009C
:1004600000000000000000000000FFFFFFFFFFFF92
:10047000FF1F1F1F1F1F1F1F1FFFFFFFFFFFFFFF8C
:1004800000000000FFFFFFFFFFFFFFF0F0F0F0F0C3
:10049000F0F0F0FFFFFFFFFFFFFF00000000818191
:1004A00081818181818181818181818181FFFFFFC2
:1004B000FFFFFFFF000000001F1F1F1F1F1F1F1F48
:1004C0001F1F1F1F1F1F1F1F1F1F1F1F1F1F00007A
:1004D000000000000000000000000000000000001C
:1004E000000000000000000000000000000000000C
:1004F00000000000000000000000000000000000FC
:1005000000000000000000000000000000000000EB
:1005100000000000000000000000000000000000DB
:1005200000000000000000000000000000000000CB
:1005300000000000000000000000000000000000BB
:1005400000000000000000000000000000000000AB
:10055000000000000000000000000000000000009B
:10056000000000000000000000000000000000008B
:10057000000000000000000000000000000000007B
:10058000000000000000000000000000000000006B
:10059000000000000000000000000000000000005B
:1005A000000000000000000000000000000000004B
:1005B000000000000000000000000000000000003B
:1005C000000000000000000000000000000000002B
:1005D000000000000000000000000000000000001B
:1005E000000000000000000000000000000000000B
:1005F00000000000000000000000000000000000FB
:1006000000000000000000000000000000000000EA
:1006100000000000000000000000000000000000DA
:1006200000000000000000000000000000000000CA
:1006300000000000000000000000000000000000BA
:1006400000000000000000000000000000000000AA
:10065000000000000000000000000000000000009A
:1006600000000000000000000000FFFFFFFFFFFF90
:10067000FF1F1F1F1F1F1F1F1FFFFFFFFFFFFFFF8A
:1006800000000000FFFFFFFFFFFFFFF0F0F0F0F0C1
:10069000F0F0F0FFFFFFFFFFFFFF00000000FFFF93
:1006A000FFFFFFFFFF8181818181818181FFFFFF4A
:1006B000FFFFFFFF000000001F1F1F1F1F1F1F1F46
:1006C0001F1F1F1F1F1F1F1F1F1F1F1F1F1F000078
:1006D000000000000000000000000000000000001A
:1006E000000000000000000000000000000000000A
:1006F00000000000000000000000000000000000FA
:1007000000000000000000000000000000000000E9
:1007100000000000000000000000000000000000D9
:1007200000000000000000000000000000000000C9
:1007300000000000000000000000000000000000B9
:1007400000000000000000000000000000000000A9
:100750000000000000000000000000000000000099
:100760000000000000000000000000000000000089
:100770000000000000000000000000000000000079
:100780000000000000000000000000000000000069
:100790000000000000000000000000000000000059
:1007A0000000000000000000000000000000000049
:1007B0000000000000000000000000000000000039
:1007C0000000000000000000000000000000000029
:1007D0000000000000000000000000000000000019
:1007E0000000000000000000000000000000000009
:1007F00000000000000000000000000000000000F9
:1008000000000000000000000000000000000000E8
:1008100000000000000000000000000000000000D8
:1008200000000000000000000000000000000000C8
:1008300000000000000000000000000000000000B8
:1008400000000000000000000000000000000000A8
:100850000000000000000000000000000000000098
:10086000000000000000000000001F1F1F1F1F1FCE
:100870001F1F1F1F1F1F1F1FDFFFFFFFFFFFFF3F68
:100880000000000000000000000000000000C0F0B8
:10089000FCFFFFFFFF7F1F030000000000000000BF
:1008A0000000000000E0F8FEFFFFFFFF3F0F010027
:1008B0000000000000000000000000000000001F19
:1008C0001F1F1F1F1F1F000000000000000000006E
:1008D0000000000000000000000000000000000018
:1008E0000000000000000000000000000000000008
:1008F00000000000000000000000000000000000F8
:1009000000000000000000000000000000000000E7
:1009100000000000000000000000000000000000D7
:1009200000000000000000000000000000000000C7
:1009300000000000000000000000000000000000B7
:1009400000000000000000000000000000000000A7
:100950000000000000000000000000000000000097
:100960000000000000000000000000000000000087
:100970000000000000000000000000000000000077
:100980000000000000000000000000000000000067
:100990000000000000000000000000000000000057
:1009A0000000000000000000000000000000000047
:1009B0000000000000000000000000000000000037
:1009C0000000000000000000000000000000000027
:1009D0000000000000000000000000000000000017
:1009E0000000000000000000000000000000000007
:1009F00000000000000000000000000000000000F7
:100A000000000000000000000000000000000000E6
:100A100000000000000000000000000000000000D6
:100A200000000000000000000000000000000000C6
:100A300000000000000000000000000000000000B6
:100A400000000000000000000000000000000000A6
:100A50000000000000000000000000000000000096
:100A600000000000000000000000FFFFFFFFFFFF8C
:100A7000FF1F1F1F1F1F1F1F1F1F1F1F1F1F1F1FA6
:100A800000000000FFFFFFFFFFFFFFF0F0F0F0F0BD
:100A9000F0F0F0F0F0F0F0F0F0F000000000FFFFF8
:100AA000FFFFFFFFFF8181818181818181FFFFFF46
:100AB000FFFFFFFF000000001F1F1F1F1F1F1F1F42
:100AC0001F1F1F1F1F1F1F1F1F1F1F1F1F1F000074
:100AD0000000000000000000000000000000000016
:100AE0000000000000000000000000000000000006
:100AF00000000000000000000000000000000000F6
:100B000000000000000000000000000000000000E5
:100B100000000000000000000000000000000000D5
:100B200000000000000000000000000000000000C5
:100B300000000000000000000000000000000000B5
:100B400000000000000000000000000000000000A5
:100B50000000000000000000000000000000000095
:100B60000000000000000000000000000000000085
:100B70000000000000000000000000000000000075
:100B80000000000000000000000000000000000065
:100B90000000000000000000000000000000000055
:100BA0000000000000000000000000000000000045
:100BB0000000000000000000000000000000000035
:100BC0000000000000000000000000000000000025
:100BD0000000000000000000000000000000000015
:100BE0000000000000000000000000000000000005
:100BF00000000000000000000000000000000000F5
:100C000000000000000000000000000000000000E4
:100C100000000000000000000000000000000000D4
:100C200000000000000000000000000000000000C4
:100C300000000000000000000000000000000000B4
:100C400000000000000000000000000000000000A4
:100C50000000000000000000000000000000000094
:100C600000000000000000000000FFFFFFFFFFFF8A
:100C7000FF1F1F1F1F1F1F1F1F1F1F1F1F1F1F1FA4
:100C800000000000FFFFFFFFFFFFFFF0F0F0F0F0BB
:100C9000F0F0F0F0F0F0F0F0F0F0000000008181F2
:100CA00081818181818181818181818181FFFFFFBA
:100CB000FFFFFFFF000000001F1F1F1F1F1F1F1F40
:100CC0001F1F1F1F1F1F1F1F1F1F1F1F1F1F000072
:100CD0000000000000000000000000000000000014
:100CE0000000000000000000000000000000000004
:100CF00000000000000000000000000000000000F4
:100D000000000000000000000000000000000000E3
:100D100000000000000000000000000000000000D3
:100D200000000000000000000000000000000000C3
:100D300000000000000000000000000000000000B3
:100D400000000000000000000000000000000000A3
:100D50000000000000000000000000000000000093
:100D60000000000000000000000000000000000083
:100D70000000000000000000000000000000000073
:100D80000000000000000000000000000000000063
:100D90000000000000000000000000000000000053
:100DA0000000000000000000000000000000000043
:100DB0000000000000000000000000000000000033
:100DC0000000000000000000000000000000000023
:100DD0000000000000000000000000000000000013
:100DE0000000000000000000000000000000000003
:100DF00000000000000000000000000000000000F3
:100E000000000000000000000000000000000000E2
:100E100000000000000000000000000000000000D2
:100E200000000000000000000000000000000000C2
:100E300000000000000000000000000000000000B2
:100E400000000000000000000000000000000000A2
:100E50000000000000000000000000000000000092
:100E600000000000000000000000FFFFFFFFFFFF88
:100E7000FF0000000000000000FFFFFFFFFFFFFF7A
:100E800000000000FFFFFFFFFFFFFFC0C0C0C0C0A9
:100E9000C0C0C0FFFFFFFFFFFFFF000000000F0FFB
:100EA0000F0F0F0F0F0F0F0F0F0F0F0F0FFFFFFF82
:100EB000FFFFFFFF00000000000000000000000036
:100EC000000000000000001F1F1F1F1F1F1F000049
:100ED0000000000000000000000000000000000012
:100EE0000000000000000000000000000000000002
:100EF00000000000000000000000000000000000F2
:100F000000000000000000000000000000000000E1
:100F100000000000000000000000000000000000D1
:100F200000000000000000000000000000000000C1
:100F300000000000000000000000000000000000B1
:100F400000000000000000000000000000000000A1
:100F50000000000000000000000000000000000091
:100F60000000000000000000000000000000000081
:100F70000000000000000000000000000000000071
:100F80000000000000000000000000000000000061
:100F90000000000000000000000000000000000051
:100FA0000000000000000000000000000000000041
:100FB0000000000000000000000000000000000031
:100FC0000000000000000000000000000000000021
:100FD0000000000000000000000000000000000011
:100FE0000000000000000000000000000000000001
:100FF00000000000000000000000000000000000F1
:1010000000000000000000000000000000000000E0
:1010100000000000000000000000000000000000D0
:1010200000000000000000000000000000000000C0
:1010300000000000000000000000000000000000B0
:1010400000000000000000000000000000000000A0
:101050000000000000000000000000000000000090
:1010600000000000000000000000001F1F1F1F1FE5
:101070001F1F1F1F1F9FDFFFFFFFFFFFFFFF7F3FA0
:10108000000000000000000000E0F0F8FCFEFFFFA0
:10109000FFFFFFFFF7F3F1F0F0F000000000008029
:1010A00080808081818181818181818181FFFFFFB9
:1010B000FFFFFFFF00000000001F1F1F1F1F1F1F5B
:1010C0001F1F1F1F1F1F1F1F1F1F1F1F1F1F00006E
:1010D0000000000000000000000000000000000010
:1010E0000000000000000000000000000000000000
:1010F00000000000000000000000000000000000F0
:1011000000000000000000000000000000000000DF
:1011100000000000000000000000000000000000CF
:1011200000000000000000000000000000000000BF
:1011300000000000000000000000000000000000AF
:10114000000000000000000000000000000000009F
:10115000000000000000000000000000000000008F
:10116000000000000000000000000000000000007F
:10117000000000000000000000000000000000006F
:10118000000000000000000000000000000000005F
:10119000000000000000000000000000000000004F
:1011A000000000000000000000000000000000003F
:1011B000000000000000000000000000000000002F
:1011C000000000000000000000000000000000001F
:1011D000000000000000000000000000000000000F
:1011E00000000000000000000000000000000000FF
:1011F00000000000000000000000000000000000EF
:1012000000000000000000000000000000000000DE
:1012100000000000000000000000000000000000CE
:1012200000000000000000000000000000000000BE
:1012300000000000000000000000000000000000AE
:10124000000000000000000000000000000000009E
:10125000000000000000000000000000000000008E
:101260000000000000000000000000FFFFFFFFFF83
:10127000FFFF1F1F1F1F1F1F1FFFFFFFFFFFFFFF9E
:101280000000000000000000000000000080C0C05E
:10129000E0F0F0FFFFFFFFFF7F3F0000000000E0F5
:1012A000F0F0F8FCFEFEFFFFBF9F9F8F87838381D6
:1012B0008080808000000000001F1F1F1F1F1F1F55
:1012C0001F1F1F1F1F1F1F1F1F1F1F1F1F1F00006C
:1012D000000000000000000000000000000000000E
:1012E00000000000000000000000000000000000FE
:1012F00000000000000000000000000000000000EE
:1013000000000000000000000000000000000000DD
:1013100000000000000000000000000000000000CD
:1013200000000000000000000000000000000000BD
:1013300000000000000000000000000000000000AD
:10134000000000000000000000000000000000009D
:10135000000000000000000000000000000000008D
:10136000000000000000000000000000000000007D
:10137000000000000000000000000000000000006D
:10138000000000000000000000000000000000005D
:10139000000000000000000000000000000000004D
:1013A000000000000000000000000000000000003D
:1013B000000000000000000000000000000000002D
:1013C000000000000000000000000000000000001D
:1013D000000000000000000000000000000000000D
:1013E00000000000000000000000000000000000FD
:1013F00000000000000000000000000000000000ED
:1014000000000000000000000000000000000000DC
:1014100000000000000000000000000000000000CC
:1014200000000000000000000000000000000000BC
:1014300000000000000000000000000000000000AC
:10144000000000000000000000000000000000009C
:10145000000000000000000000000000000000008C
:101460000000000000000000000000000000001F5D
:101470001F1FFFFFFFFFFFFF000000000000000034
:10148000000000000000000000000000FFFFFFFF60
:10149000FFFF00000000000000000000000000004E
:1014A000000000808080FFFFFFFFFFFF8080800042
:1014B000000000000000000000000000001F1F1FCF
:1014C0001F1F1F1F1F1F1F1F1F0000000000000005
:1014D000000000000000000000000000000000000C
:1014E00000000000000000000000000000000000FC
:1014F00000000000000000000000000000000000EC
:1015000000000000000000000000000000000000DB
:1015100000000000000000000000000000000000CB
:1015200000000000000000000000000000000000BB
:1015300000000000000000000000000000000000AB
:10154000000000000000000000000000000000009B
:10155000000000000000000000000000000000008B
:10156000000000000000000000000000000000007B
:10157000000000000000000000000000000000006B
:10158000000000000000000000000000000000005B
:10159000000000000000000000000000000000004B
:1015A000000000000000000000000000000000003B
:1015B000000000000000000000000000000000002B
:1015C000000000000000000000000000000000001B
:1015D000000000000000000000000000000000000B
:1015E00000000000000000000000000000000000FB
:1015F00000000000000000000000000000000000EB
:1016000000000000000000000000000000000000DA
:1016100000000000000000000000000000000000CA
:1016200000000000000000000000000000000000BA
:1016300000000000000000000000000000000000AA
:10164000000000000000000000000000000000009A
:10165000000000000000000000000000000000008A
:1016600000000000000000000000FFFFFFFFFFFF80
:10167000FFFF1F1F1F1F1F1F1FFFFFFFFFFFFFFF9A
:1016800000000000FFFFFFFFFFFFFFFF0000000062
:10169000000000FFFFFFFFFFFFFF00000000FFFF53
:1016A000FFFFFFFFFFFF80808080808080FFFFFFC3
:1016B000FFFFFFFF000000001F1F1F1F1F1F1F1F36
:1016C0001F1F1F1F1F1F1F1F1F1F1F1F1F1F000068
:1016D000000000000000000000000000000000000A
:1016E00000000000000000000000000000000000FA
:1016F00000000000000000000000000000000000EA
:1017000000000000000000000000000000000000D9
:1017100000000000000000000000000000000000C9
:1017200000000000000000000000000000000000B9
:1017300000000000000000000000000000000000A9
:101740000000000000000000000000000000000099
:101750000000000000000000000000000000000089
:101760000000000000000000000000000000000079
:101770000000000000000000000000000000000069
:101780000000000000000000000000000000000059
:101790000000000000000000000000000000000049
:1017A0000000000000000000000000000000000039
:1017B0000000000000000000000000000000000029
:1017C0000000000000000000000000000000000019
:1017D0000000000000000000000000000000000009
:1017E00000000000000000000000000000000000F9
:1017F00000000000000000000000000000000000E9
:1018000000000000000000000000000000000000D8
:1018100000000000000000000000000000000000C8
:1018200000000000000000000000000000000000B8
:1018300000000000000000000000000000000000A8
:101840000000000000000000000000000000000098
:101850000000000000000000000000000000000088
:101860000000000000000000000000000000000078
:101870003C6670380E663C007C66667C606060008A
:101880003C66C0C0CE663C003C6666666666663CEA
:101890003C6666663E060C383C66663C6666663CA0
:1018A0007E06060C181818181C30607C6666663CAC
:1018B0007E60607C0606663C0E1E36667F06060667
:1018C0007E660C1C0606663C3C66060C1830607E84
:1018D000183818181818183C000000000000000004
:1018E000000000000000000F0F0F0F0F00000000AD
:1018F00000000000000000000000000000000000E8
:1019000000000000000000000000000000000000D7
:1019100000000000000000000000000000000000C7
:1019200000000000000000000000000000000000B7
:1019300000000000000000000000000000000000A7
:101940000000000000000000000000000000000097
:101950000000000000000000000000000000000087
:101960000000000000000000000000000000000077
:101970000000000000000000000000000000000067
:101980000000000000000000000000000000000057
:101990000000000000000000000000000000000047
:1019A0000000000000000000000000000000000037
:1019B0000000000000000000000000000000000027
:1019C0000000000000000000000000000000000017
:1019D0000000000000000000000000000000000007
:1019E00000000000000000000000000000000000F7
:1019F00000000000000000000000000000000000E7
:101A000000000000000000000000000000000000D6
:101A100000000000000000000000000000000000C6
:101A200000000000000000000000000000000000B6
:101A300000000000000000000000000000000000A6
:101A40000000000000000000000000000000000096
:101A50000000000000000000000000000000000086
:101A60000000000000000000000000000000000076
:101A70000000000000000000000000000000000066
:101A80000000000000000000000000000000000056
:101A90000000000000000000000000000000000046
:101AA0000000000000000000000000000000000036
:101AB0000000000000000000000000000000000026
:101AC0000000000000000000000000000000000016
:101AD0000000000000000000000000F0FCFFFF7F9D
:101AE0001F07030000E0FCFF7F6F233030F8F8FC95
:101AF0007C0E000000808080F0FFFF8F81000000DE
:101B000000000001030707030100000000000000BF
:101B100000000000000000000000000000000000C5
:101B200000000000000000000000000000000000B5
:101B300000000000000000000000000000000000A5
:101B40000000000000000000000000000000000095
:101B50000000000000000000000000000000000085
:101B60000000000000000000000000000000000075
:101B70000000000000000000000000000000000065
:101B80000000000000000000000000000000000055
:101B90000000000000000000000000000000000045
:101BA0000000000000000000000000000000000035
:101BB0000000000000000000000000000000000025
:101BC0000000000000000000000000000000000015
:101BD0000000000000000000000000000000000005
:101BE00000000000000000000000000000000000F5
:101BF00000000000000000000000000000000000E5
:101C000000000000000000000000000000000000D4
:101C100000000000000000000000000000000000C4
:101C200000000000000000000000000000000000B4
:101C300000000000000000000000000000000000A4
:101C40000000000000000000000000000000000094
:101C50000000000000000000000000000000000084
:101C60000000000000000000000000000000000074
:101C70000000000000000000000000000000000064
:101C80000000000000000000000000000000000054
:101C90000000000000000000000000000000000044
:101CA0000000000000000000000000000000000034
:101CB0000000000000000000000000000000000024
:101CC0000000000000000000000000000000000014
:101CD000000000000000000080808080800F0F0F57
:101CE0000F0F80808080801F1F1F1F1F00000000BB
:101CF00000000000000000000000000000000000E4
:101D000000000000000000000000000000000000D3
:101D100000000000000000000000000000000000C3
:101D200000000000000000000000000000000000B3
:101D300000000000000000000000000000000000A3
:101D40000000000000000000000000000000000093
:101D50000000000000000000000000000000000083
:101D60000000000000000000000000000000000073
:101D70000000000000000000000000000000000063
:101D80000000000000000000000000000000000053
:101D90000000000000000000000000000000000043
:101DA0000000000000000000000000000000000033
:101DB0000000000000000000000000000000000023
:101DC0000000000000000000000000000000000013
:101DD0000000000000000000000000000000000003
:101DE00000000000000000000000000000000000F3
:101DF00000000000000000000000000000000000E3
:101E000000000000000000000000000000000000D2
:101E100000000000000000000000000000000000C2
:101E200000000000000000000000000000000000B2
:101E300000000000000000000000000000000000A2
:101E40000000000000000000000000000000000092
:101E50000000000000000000000000000000000082
:101E60000000000000000000000000000000000072
:101E70000000000000000000000000000000000062
:101E80000000000000000000000000000000000052
:101E90000000000000000000000000000000000042
:101EA0000000000000000000000000000000000032
:101EB0000000000000000000000000000000000022
:101EC0000000000000000000000000000000000012
:101ED0000000000000000000000000000000000002
:101EE000000000800000000000000000C0E07078EA
:101EF0009C0E1723468CD8702000000000000000C4
:101F00000004FFDBCD2713090503060C183FFEDC98
:101F10009810190E060301000000000080C0E03098
:101F2000383C4C8C1C3FFF7E0C1830382C363BFD67
:101F30003E1F0888C848381800000002070D1831F5
:101F400063663C180C07030100000000000000005D
:101F50000F0C06020155564B2C27100F00000000F5
:101F60000000000000000000000000000000000071
:101F70000000000000000000000000000000000061
:101F80000000000000000000000000000000000051
:101F90000000000000000000000000000000000041
:101FA0000000000000000000000000000000000031
:101FB0000000000000000000000000000000000021
:101FC0000000000000000000000000000000000011
:101FD0000000000000000000000000000000000001
:101FE00000000000000000000000000000000000F1
:101FF00000000000000000000000000000000000E1
:1020000000000000000000000000000000000000D0
:1020100000000000000000000000000000000000C0
:1020200000000000000000000000000000000000B0
:1020300000000000000000000000000000000000A0
:102040000000000000000000000000000000000090
:102050000000000000000000000000000000000080
:102060000000000000000000000000000000000070
:102070000000000000000000000000000000000060
:102080000000000000000000000000000000000050
:102090000000000000000000000000000000000040
:1020A0000000000000000000000000000000000030
:1020B0000000000000000000000000000000000020
:1020C0000000000000000000000000000000000010
:1020D0000000000000000000000000000000000000
:1020E0000000000080C0F0F8FCFEFFFFFFFFFFFFD4
:1020F000FFFFFFFFFFFCF8F0E0C080000003070FC8
:102100001F3F7FFFFFFFFFFFFFFFFFFEF8E0C080E4
:102110000000000000000000000000000080C0E09F
:10212000F0F8FCFEFFFFFFFFFFFF7F3F1F0F0301E3
:10213000000080C0E0F8FCFEFEFFFFFFFFFF1F1F56
:102140001F1F1F1F1F1F1F1FFFFFFFFFFFFEFEFCA4
:10215000FCFCF8F0E000000000000080E0F0F8FC7B
:10216000FEFFFFFFFFFFFFFFFF9F878181808187C9
:10217000BFFFFFFFFFFFFFFFFFFCF8F0C080000084
:102180000003071F3F7FFFFFFFFFFFFFFFFFFEFC76
:10219000F0E0E08080C0F0F8FCFEFFFFFFFFFFFFF3
:1021A000FF7F3F0F070100000080C0E0F8FCFEFF4A
:1021B000FFFFFFFFFF7F7FFFFBF9F8F8F8F8F8F863
:1021C000F8F8F8FE7E7F7F7F7F7F7F7F3F1F1F1F96
:1021D000070300C0E0F8FCFEFFFFFFFFFFFFFFFF6B
:1021E0003F1F1F1F1F1F1F1F1F1F1F1F1F1F1F1FDF
:1021F0001F1F1F1F3F7FFFFFFFFFFFFFFEFCF8E0D9
:10220000C080000001030F1F3FFFFFFFFFFFFFFF24
:10221000FFFFFFFFFFFFFF7F7F1F0703010000009D
:102220000080E0F8FCFEFFFFFFFFFFFF7F1F0F07AE
:102230000301000001071F7FFFFFFFFFFFFFFFFFFC
:10224000FFFEF8E0C0800000000000000000000376
:10225000030303030303030303030303000000005A
:10226000000000000000000000000000000000006E
:10227000000000000103030303030303030303033C
:102280000000000000000001030F1F1F3F7F7F3F81
:102290001F07030100000000000000000203030309
:1022A0000303030303030303010000000000000015
:1022B0000000000000000303030303030303030300
:1022C0000303030300000000000000000000000002
:1022D00000000000000000000000000000000000FE
:1022E000000000000000000000000000000000806E
:1022F000C0E0F07838FCFEFFFFFFFC000183C7FE62
:10230000780383FEFE790383FEFC000000000000DA
:1023100000000000000000000000000000000000BD
:10232000008080C0E0E070783C9ECFCFC301010008
:102330000000FFFFFFFFFFFF0002038381C0C2C355
:10234000C1C18003030180C0C0C0C0C080000000C4
:1023500000000000000080C0E0F0783C1E0F07077E
:1023600003091C0EFFFFFFFFFFFF00000000007FBE
:102370003F1F0F87C31C0E07037F3F3F1F8FC7E31D
:102380000E0E0703FFFFFFFFFFFFFF000000003CF2
:102390001E0F070301010000000000000000000004
:1023A00000FFFFFFFFFF7F38381C0E07FCFEFFFF1A
:1023B000FF7F381C0E0F78FEFEFFFFFF7F3C1C08DE
:1023C000007FFFFFFFFFFF7F381C080001030303AE
:1023D0000706060E1E1C1C3C787870E0E0E0C0800A
:1023E00080800000000000000000000000000000ED
:1023F0000000008080808080808080808383878F41
:102400008FBFFEFCFCF8F0F0C08000000000000070
:10241000000E0F0F0F0F0FEFFFFFFFFFFFFF3F0F2C
:102420000F0F0FCFFFFFFFFFFFFFFE380000000080
:10243000000000F8F8F8FFFFFFFFFFFFFFF8F8F8D3
:10244000F8FC7F7F7F7F3F1F1F07010011241FBE05
:10245000CFE5D4E0DEBFCDBF10E0A0E6B0E0ECEE0B
:10246000F3E302C005900D92A438B107D9F720E03C
:10247000A4E8B0E001C01D92A739B207E1F70E94BD
:10248000A2160C94F4190C94000086B1876886B9E2
:1024900017B80895369A3699FECF84B195B108954C
:1024A000BC0180E090E00E94B11820E030E048ECF0
:1024B00052E40E94631920E030EC4FE754E40E949C
:1024C00018182DEC3CEC40E851E40E94631920E020
:1024D00030E048EC52E40E94181808958FEF809382
:1024E0008600809388008093870080ED0E945D15B0
:1024F00087E00E949A1583E10E949A150E94AF1509
:102500000E94AF150895CF93C82F80ED0E945D15EE
:102510008C2F0E949A150E94AF1581ED0E945D15C7
:1025200080E00E942615C82F0E94AF158C2FCF91F6
:102530000895CF93DF9380E00E948312D82FC82F95
:10254000CF7080918600C81709F46DC080E090E0DC
:102550000E946D14DD7021F0D43011F0C83091F478
:102560008CE30E94A1138091600090916100A09182
:102570006200B091630048E650E0BC01CD010E94CA
:102580008C1411C08CE30E94A1138091640090917F
:102590006500A0916600B091670048E652E0BC017A
:1025A000CD010E948C14C093860081E00E948312AA
:1025B000D82FD295DF70C82FCF7080E090E00E94B6
:1025C0006D148BE50E94A1138C2F90E00E94F914EA
:1025D0000E94D31481E40E94A1138D2F877090E094
:1025E0000E94F9140E94D314C093880082E00E94D4
:1025F0008312D82FD295DF70C82FCF7082E20E944D
:10260000A1138C2F90E00E94F9140E94D31488E04B
:102610000E94A1138D2F837090E00E94F9140E94F4
:10262000D314C0938700DF91CF910895C4988FB9D8
:10263000779BFECF08958FB9779BFECFC49A0895FC
:102640008FB9779BFECF08950F931F93CF93DF939E
:10265000082F162FC3E0D0E0802F0E941613812F81
:102660000E941B1321972097B9F7DF91CF911F91FB
:102670000F91089580E58DB91EB860E08FE00E944B
:1026800024136FE08AE00E94241367E08BE00E942D
:10269000241360E089E00E94241360E08CE00E9433
:1026A00024130895CF93C1E060E08C2F0E9424137F
:1026B000CF5FC930C9F761E08CE00E942413CF914D
:1026C0000895BF92CF92DF92EF92FF920F931F93E4
:1026D000CF93DF936C017B018A01C0E0D0E0C49806
:1026E000BC2EB3948B2D0E942013F601EC0FFD1F1E
:1026F00084910E9420138B2D0E942013F701EC0F70
:10270000FD1F84910E9420138B2D0E942013F8013D
:10271000EC0FFD1F84910E942013C49A2196C830AB
:10272000D105E9F6DF91CF911F910F91FF90EF90C6
:10273000DF90CF90BF900895682F8AE00E94241305
:10274000089580938900089588E70E945D1580E0D0
:102750000E949A158EEA0E949A1585ED0E949A159C
:1027600080E80E949A1588EA0E949A158FE30E94D9
:102770009A1583ED0E949A1580E00E949A1580E4D4
:102780000E949A158DE80E949A1584E10E949A157C
:1027900080E20E949A1580E00E949A1581EA0E94C8
:1027A0009A1588EC0E949A158AED0E949A1582E08B
:1027B0000E949A1581E80E949A158FEF0E949A153F
:1027C00089ED0E949A1581EF0E949A158BED0E9467
:1027D0009A1580E40E949A1584EA0E949A1586EA66
:1027E0000E949A158EE20E949A158FEA0E949A150D
:1027F0000E94AF151092890008950F931F93CF93F5
:10280000DF93082F162FD42FC22F88E70E945D1563
:1028100080E00E949A1581E20E949A15802F0E9402
:102820009A15812F0E949A150E94AF1588E70E9481
:102830005D1580E00E949A1582E20E949A158D2F04
:102840000E949A158C2F0E949A150E94AF15DF9155
:10285000CF911F910F910895CF93C82F88E70E94C1
:102860005D1580E00E949A158C2F0E949A150E9497
:10287000AF15CF910895EF92FF920F931F93CF93CF
:10288000DF9327E044E06FE780E00E94FD1388E7D4
:102890000E945D1580E40E949A1504E010E068949F
:1028A000EE24E7F8F12C0BC080E00E949A152197E6
:1028B0002097D1F7015011090115110519F0CE2DFE
:1028C000DF2DF2CF0E94AF1510928900DF91CF91DA
:1028D0001F910F91FF90EF9008958130910591F035
:1028E0001CF4892B51F008958230910581F00397F3
:1028F00091F488B3876088BB0895C09A88B3897FB4
:1029000088BB0895C19A88B38A7F88BB0895C29A0C
:1029100088B38C7F88BB08958F929F92AF92BF92AD
:10292000CF92DF92EF92FF92CF93DF93EA01862E50
:10293000972E3091890024E0290F830F6FEF680FE5
:1029400044E0832F0E94FD1388E70E945D1580E418
:102950000E949A15AA2497FCA094BA2C1814190462
:102960001A041B049CF4C12CD12C7601FE01EC0D41
:10297000FD1D84910E949A158FEFC81AD80AE80AA3
:10298000F80AC814D904EA04FB0484F30E94AF15C2
:10299000DF91CF91FF90EF90DF90CF90BF90AF90FD
:1029A0009F908F9008950F931F93CF93DF938C0187
:1029B0008091890069E1680F27E044E00E94FD13DF
:1029C00088E70E945D1580E40E949A15C0E0D0E07F
:1029D000F801EC0FFD1F84910E949A152196C836CC
:1029E000D105B1F70E94AF15DF91CF911F910F91E3
:1029F00008958A309105E8F4FC01E65DFF4F0C94E0
:102A0000DA1928E632E11BC028E630E118C028E6D2
:102A10003EE015C028E63CE012C028E63AE00FC0D0
:102A200028E638E00CC028E636E009C028E634E0A5
:102A300006C0089528E636E102C028E634E1822F78
:102A4000932F089581E080B911B8089520E030E017
:102A500006C02F5F3F4F2C3291E0390719F006B6C0
:102A600007FEF7CF482F417050E000245695479558
:102A70000794569547950794542F402D446846BFB8
:102A800006C02F5F3F4F2C3291E0390719F006B690
:102A900007FEF7CF23B191B19C7F90938A008823E2
:102AA00021F0903531F4822F0895983521F4822F4A
:102AB0000895892F0895892F089594EA96BF20E0FC
:102AC00030E006C02F5F3F4F2C3291E0390719F0FC
:102AD00006B607FEF7CF91B19C7F90938A0098309D
:102AE00049F0903109F506C02F5F3F4F2C3291E03D
:102AF000390719F006B607FEF7CF83B984E886BF19
:102B000006C02F5F3F4F2C3281E0380719F006B620
:102B100007FEF7CF91B19C7F90938A00983131F0F6
:102B2000903431F48FEF0895892F08958FEF089531
:102B3000892F089583B984E886BF8CE291E003C0B1
:102B40000197009719F006B607FEFACF91B19C7F66
:102B500090938A0081E0983209F480E0089584E936
:102B600086BF8CE291E003C00197009719F006B68A
:102B700004FCFACF089584E38ABB85E08BBB8FEB1E
:102B800087BB88B318BA14BA15BA11BA12BA089525
:102B90001F920F920FB60F9211248F938091850090
:102BA000811104C081E08093840057988F910F9029
:102BB0000FBE0F901F901895CF92DF92EF92FF9269
:102BC00020E030E44CE156E460918B0070918C0081
:102BD00080918D0090918E000E941418811189C0FF
:102BE00010928B0010928C0010928D0010928E002B
:102BF00082E090E00E946D1488E00E94A113809111
:102C00006C0090916D00A0916E00B0916F0048ED46
:102C10005AE1BC01CD010E948C140E944A120E940C
:102C200050126B017C016093930070939400809329
:102C30009500909396000E94801870939200609384
:102C40009100882777FD8095982F0E94B3189B01EB
:102C5000AC01C701B6010E94AF1720E030E040E2AE
:102C600051E40E9463190E94801870939000609351
:102C70008F008BE50E94A11380918F0090919000AE
:102C80000E94F9140E94D31486E50E94A11380913A
:102C9000680090916900A0916A00B0916B0048EDC6
:102CA00058E1BC01CD010E948C148CE30E94A11359
:102CB00080919100909192008A30910534F00A97AA
:102CC0000E94F9140E94D31404C00E94F9140E94B7
:102CD000D31482E20E94A1138091910090919200FE
:102CE0006AE070E00E94C619CB010E94F9140E94AC
:102CF000D31420E030E040E85FE360918B007091F6
:102D00008C0080918D0090918E000E94B01760938E
:102D10008B0070938C0080938D0090938E00FF90B9
:102D2000EF90DF90CF900895C99906C080E00E948F
:102D30009C13DC9ADD9808958FE00E949C13DD9A25
:102D4000DC9808950E94BB150E942215DA9A2FEF95
:102D500080E792E0215080409040E1F700C0000001
:102D6000DA980E943A130E9452138FE00E949C133B
:102D700040EC58E168EC78E180ED98E10E94611345
:102D80002FEF80E792E0215080409040E1F700C0B3
:102D9000000048EB58E160EB78E188EA98E10E9496
:102DA00061132FEF80E792E0215080409040E1F7DF
:102DB00000C0000040EA58E168E978E180E998E164
:102DC0000E9461132FEF80E792E0215080409040F5
:102DD000E1F700C0000048E858E1BA0188E698E150
:102DE0000E9461132FEF80E792E0215080409040D5
:102DF000E1F700C0000040E758E168E778E180E8CB
:102E000098E10E9461132FEF80E792E0215080400B
:102E10009040E1F700C0000083E090E00E946D1454
:102E20000E94A4138FEA0E942C140E943B1480E09D
:102E30000E94A11380E090E00E946D1480918000B8
:102E400090918100A0918200B09183004CEC53E2FC
:102E5000BC01CD010E948C142FEF80E792E021503D
:102E600080409040E1F700C0000081E090E00E94C7
:102E70006D1480917C0090917D00A0917E00B091B6
:102E80007F0048ED52E2BC01CD010E948C142FEF6F
:102E900080E792E0215080409040E1F700C00000C0
:102EA00083E090E00E946D14809178009091790009
:102EB000A0917A00B0917B0048ED50E2BC01CD01B9
:102EC0000E948C142FEF84E39CE0215080409040BE
:102ED000E1F700C000000E943B1480E00E946E12E7
:102EE00081E090E00E946D1480E00E94A113809127
:102EF000740090917500A0917600B091770048ED34
:102F00005EE1BC01CD010E948C142FEF89E698E1AF
:102F1000215080409040E1F700C0000080E090E048
:102F20000E946D148CE30E94A11380917000909117
:102F30007100A0917200B091730048ED5CE1BC019A
:102F4000CD010E948C1480E00E949C130E944512C7
:102F50000E94DC150E9499120E949416F9CF5058D5
:102F6000BB27AA270ED075C166D130F06BD120F0F7
:102F700031F49F3F11F41EF45BC10EF4E095E7FBC2
:102F800051C1E92F77D180F3BA176207730784071D
:102F9000950718F071F49EF58FC10EF4E0950B2E95
:102FA000BA2FA02D0B01B90190010C01CA01A0019B
:102FB0001124FF27591B99F0593F50F4503E68F1F6
:102FC0001A16F040A22F232F342F4427585FF3CF37
:102FD000469537952795A795F0405395C9F77EF408
:102FE0001F16BA0B620B730B840BBAF09150A1F051
:102FF000FF0FBB1F661F771F881FC2F70EC0BA0FD7
:10300000621F731F841F48F4879577956795B7955E
:10301000F7959E3F08F0B3CF9395880F08F0992756
:10302000EE0F979587950895D9D008F481E008951B
:103030000CD00FC107D140F0FED030F021F45F3F3B
:1030400019F0F0C0511139C1F3C014D198F399238C
:10305000C9F35523B1F3951B550BBB27AA2762175C
:103060007307840738F09F5F5F4F220F331F441FA1
:10307000AA1FA9F333D00E2E3AF0E0E830D09150D9
:103080005040E695001CCAF729D0FE2F27D0660FC6
:10309000771F881FBB1F261737074807AB07B0E805
:1030A00009F0BB0B802DBF01FF2793585F4F2AF01B
:1030B0009E3F510568F0B6C000C15F3FECF3983EFB
:1030C000DCF3869577956795B795F7959F5FC9F778
:1030D000880F911D9695879597F90895E1E0660F01
:1030E000771F881FBB1F621773078407BA0720F07A
:1030F000621B730B840BBA0BEE1F88F7E0950895E3
:1031000004D06894B111D9C00895BCD088F09F57FD
:1031100090F0B92F9927B751A0F0D1F0660F771F23
:10312000881F991F1AF0BA95C9F712C0B13081F003
:10313000C3D0B1E00895C0C0672F782F8827B85F4B
:1031400039F0B93FCCF3869577956795B395D9F764
:103150003EF490958095709561957F4F8F4F9F4F6E
:103160000895E89409C097FB3EF49095809570957A
:1031700061957F4F8F4F9F4F9923A9F0F92F96E9C3
:10318000BB279395F695879577956795B795F11138
:10319000F8CFFAF4BB0F11F460FF1BC06F5F7F4FD5
:1031A0008F4F9F4F16C0882311F096E911C07723E7
:1031B00021F09EE8872F762F05C0662371F096E8F0
:1031C000862F70E060E02AF09A95660F771F881FBF
:1031D000DAF7880F9695879597F90895990F000863
:1031E000550FAA0BE0E8FEEF16161706E807F907D9
:1031F000C0F012161306E407F50798F0621B730B74
:10320000840B950B39F40A2661F0232B242B252BF4
:1032100021F408950A2609F4A140A6958FEF811D97
:10322000811D089597F99F6780E870E060E0089538
:103230009FEF80EC089500240A94161617061806CE
:103240000906089500240A941216130614060506AA
:103250000895092E0394000C11F4882352F0BB0F3B
:1032600040F4BF2B11F460FF04C06F5F7F4F8F4F9E
:103270009F4F089557FD9058440F551F59F05F3FD9
:1032800071F04795880F97FB991F61F09F3F79F088
:1032900087950895121613061406551FF2CF46950A
:1032A000F1DF08C0161617061806991FF1CF86958C
:1032B0007105610508940895E894BB276627772770
:1032C000CB0197F908950BD0C4CFB5DF28F0BADF52
:1032D00018F0952309F0A6CFABCF1124EECFCADFAB
:1032E000A0F3959FD1F3950F50E0551F629FF00119
:1032F000729FBB27F00DB11D639FAA27F00DB11D72
:10330000AA1F649F6627B00DA11D661F829F2227FA
:10331000B00DA11D621F739FB00DA11D621F839F81
:10332000A00D611D221F749F3327A00D611D231F57
:10333000849F600D211D822F762F6A2F11249F57A5
:1033400050408AF0E1F088234AF0EE0FFF1FBB1FC8
:10335000661F771F881F91505040A9F79E3F510567
:1033600070F060CFAACF5F3FECF3983EDCF3869518
:1033700077956795B795F795E7959F5FC1F7FE2B12
:10338000880F911D9695879597F9089597FB072EBD
:1033900016F4009407D077FD09D00E94E01907FCCD
:1033A00005D03EF4909581959F4F08957095619555
:1033B0007F4F0895EE0FFF1F0590F491E02D0994C3
:1033C000AA1BBB1B51E107C0AA1FBB1FA617B7074B
:1033D00010F0A61BB70B881F991F5A95A9F7809567
:0C33E0009095BC01CD010895F894FFCF3A
:1033EC0014000503140005031400050334000D0339
:1033FC001400050384002103F4017D03F4003D0354
:04340C008000200319
:00000001FF
