:100000000C942A000C943C000C943C000C943C0092
:100010000C943C000C943C000C943C000C943C0070
:100020000C943C000C943C000C943C000C943C0060
:100030000C943C000C943C000C943C000C943C0050
:100040000C943C000C943C000C943C000C943C0040
:100050000C943C0011241FBECFE5D4E0DEBFCDBF21
:1000600020E0A0E6B0E001C01D92A036B207E1F7A3
:100070000E943E000C9458000C94000087B3806BE3
:1000800087BB88B38F7488BB80E58DB91EB8C498D0
:100090001FB8779BFECFC49A2FEF89E698E12150D5
:1000A00080409040E1F700C0000080E090E00895BB
:0400B000F894FFCFF2
:00000001FF
