:100000000C942A000C9447000C9447000C94470071
:100010000C9447000C9447000C9447000C94470044
:100020000C9447000C9447000C9447000C94470034
:100030000C9447000C9447000C9447000C94470024
:100040000C9447000C9447000C9447000C94470014
:100050000C94470011241FBECFE5D4E0DEBFCDBF16
:1000600011E0A0E6B0E0EAEAF3E002C005900D92EC
:10007000A63EB107D9F721E0A6EEB1E001C01D927E
:10008000A83EB207E1F70E94B4010C94D3010C948E
:10009000000088E480B911B888E70E947D0180E003
:1000A0000E949F018EEA0E949F0185ED0E949F01A0
:1000B00080E80E949F0188EA0E949F018FE30E94CE
:1000C0009F0183ED0E949F0180E00E949F0180E4D8
:1000D0000E949F018DE80E949F0184E10E949F0180
:1000E00080E20E949F0180E00E949F0181EA0E94BD
:1000F0009F0188EC0E949F018AED0E949F0182E08F
:100100000E949F0181E80E949F018FE80E949F0149
:1001100089ED0E949F0181EF0E949F018BED0E945B
:100120009F0180E40E949F0184EA0E949F0186EA69
:100130000E949F018EE20E949F018FEA0E949F0110
:100140000E94AE0108950F931F93CF93DF93082F62
:10015000162FD42FC22F88E70E947D0180E00E94D5
:100160009F0181E20E949F01802F0E949F01812FA9
:100170000E949F0180E00E949F0182E20E949F01F5
:100180008D2F0E949F018C2F0E949F010E94AE0123
:10019000DF91CF911F910F910895CF93C82F88E7DA
:1001A0000E947D0180E00E949F018C2F0E949F0190
:1001B0000E94AE01CF910895EF92FF920F931F938B
:1001C000CF93DF9327E044E06FE780E00E94A30035
:1001D00088E70E947D0180E40E949F0104E010E016
:1001E0006894EE24E7F8F12C0BC080E00E949F0198
:1001F00021972097D1F7015011090115110519F028
:10020000CE2DDF2DF2CF0E94AE01DF91CF911F9155
:100210000F91FF90EF900895EF92FF920F931F932D
:10022000CF93DF931092E6018EEA0E94CD002091D9
:10023000E5012C5F6091E3018091E601680F609316
:10024000E60144E080E00E94A30088E70E947D016F
:1002500080E40E949F018091E2018823B1F002E6D0
:1002600011E0C0E0D0E00F2EF2EEEF2EF1E0FF2E15
:10027000F02DF80181918F010E949F012196F701D5
:10028000808190E0C817D907A4F30E94AE018FEADD
:100290000E94CD00209161012C5F60916001665D3C
:1002A00044E08AE20E94A30088E70E947D0180E486
:1002B0000E949F0180915F018823B1F000E610E069
:1002C000C0E0D0E00F2EFFE5EF2EF1E0FF2EF02D85
:1002D000F80181918F010E949F012196F701808191
:1002E00090E0C817D907A4F30E94AE01DF91CF9127
:1002F0001F910F91FF90EF90089594EA96BF06B674
:1003000007FEFDCF91B1987F9093E701983011F0EF
:10031000903189F483B984E886BF06B607FEFDCF25
:1003200091B1987F9093E701983139F081E0903452
:1003300029F480E0089581E0089580E0089583B96C
:1003400084E886BF06B607FEFDCF91B1987F9093F3
:10035000E70181E0983209F480E0089584E986BFDE
:1003600006B604FCFDCF089587B3896B87BB88B3BD
:10037000896B88BBC49AC3980E944900C39AC498E9
:100380000E944900C49AC3980E94DC00C39AC49892
:100390000E94DC00C49AC3980E940C01C39AC498BE
:0A03A0000E940C01FFCFF894FFCF7C
:1003AA000000000000000000000000000000000043
:1003BA000000000000000080C0E0F07838FCFEFF7A
:1003CA00FFFFFC000183C7FE780383FEFE790383E7
:1003DA00FEFC000000000000000000000000000019
:1003EA0000000000000000008080C0E0E070783C5F
:1003FA009ECFCFC30101000000FFFFFFFFFFFF00F8
:10040A0002038381C0C2C3C1C18003030180C0C08B
:10041A00C0C0C080000000000000000080C0E0F002
:10042A00783C1E0F070703091C0EFFFFFFFFFFFFA3
:10043A0000000000007F3F1F0F87C31C0E07037FC9
:10044A003F3F1F8FC7E30E0E0703FFFFFFFFFFFFAC
:10045A00FF0000003C1E0F0703010100000000001E
:10046A00000000000000FFFFFFFFFF7F38381C0E6E
:10047A0007FCFEFFFFFF7F381C0E0F78FEFEFFFF12
:10048A00FF7F3C1C08007FFFFFFFFFFF7F381C082F
:10049A00000000000000000000000000000000F062
:1004AA003C03010303030706060E1E1C1C3C787856
:1004BA0070E0E0E0C08080800000000000000000E2
:1004CA0000000000000000000080808080808080A2
:1004DA0080808383878F8FBFFEFCFCF8F0F0C0809A
:1004EA00000000000000000E0F0F0F0F0FEFFFFFBC
:1004FA00FFFFFFFF3F0F0F0F0FCFFFFFFFFFFFFFB2
:10050A00FE3800000000000000F8F8F8FFFFFFFFC7
:10051A00FFFFFFF8F8F8F8FC7F7F7F7F3F1F1F0778
:06052A000100801F000328
:00000001FF
