:100000000C94EE0D0C940B0E0C940B0E0C940B0E2A
:100010000C940B0E0C940B0E0C940B0E0C940B0EFC
:100020000C940B0E0C940B0E0C940B0E0C940B0EEC
:100030000C940B0E0C940B0E0C940B0E0C940B0EDC
:100040000C940B0E0C940B0E0C940B0E0C940B0ECC
:100050000C940B0EF90FFC0FE00FE30FE60FE90F06
:10006000EC0FEF0FF20FF50F010101F8FCFEFEFFA0
:10007000FFFF7F3F3F0000FFFFFFFEFEFCF8010196
:1000800001FF0101017FFFFFFFFFFFFFF0E0E00044
:1000900000FFFFFFFFFFFFFF010101FF01010180E2
:1000A0008183838787870707070000FFFFFFFFFF24
:1000B000FFFF010101FF010101031F3F3F7F7F7F20
:1000C0007E7E7C00007F7F7F3F3F1F0F010101FF8D
:1000D0000000000000000000000000000000000020
:1000E0000000000000000000000000000000000010
:1000F0000000000000000000000000000000000000
:1001000000000000000000000000000000000000EF
:1001100000000000000000000000000000000000DF
:1001200000000000000000000000000000000000CF
:1001300000000000000000000000000000000000BF
:1001400000000000000000000000000000000000AF
:10015000000000000000000000000000000000009F
:10016000000000000000000000000000000000008F
:10017000000000000000000000000000000000007F
:10018000000000000000000000000000000000006F
:10019000000000000000000000000000000000005F
:1001A000000000000000000000000000000000004F
:1001B000000000000000000000000000000000003F
:1001C000000000000000000000000000000000002F
:1001D000000000000000000000000000000000001F
:1001E000000000000000000000000000000000000F
:1001F00000000000000000000000000000000000FF
:1002000000000000000000000000000000000000EE
:1002100000000000000000000000000000000000DE
:1002200000000000000000000000000000000000CE
:1002300000000000000000000000000000000000BE
:1002400000000000000000000000000000000000AE
:10025000000000000000000000000000000000009E
:100260000000000000000000010101F8FCFEFEFF9C
:10027000FFFFFF7F3F000000FFFFFEFEFEFCE001EE
:1002800001FF0101011F3F7FFFFFFFFFF8F0E000CA
:100290000000FFFFFFFF7F3F070101FF010101FC9D
:1002A000FEFFFFFFFFFF0F0707000000FFFFFFFF3C
:1002B000FEFCF00101FF0101010F3F3F7F7F7F7FC7
:1002C0007F7E7E0000007F7F7F7F3F1F070101FF51
:1002D000000000000000000000000000000000001E
:1002E000000000000000000000000000000000000E
:1002F00000000000000000000000000000000000FE
:1003000000000000000000000000000000000000ED
:1003100000000000000000000000000000000000DD
:1003200000000000000000000000000000000000CD
:1003300000000000000000000000000000000000BD
:1003400000000000000000000000000000000000AD
:10035000000000000000000000000000000000009D
:10036000000000000000000000000000000000008D
:10037000000000000000000000000000000000007D
:10038000000000000000000000000000000000006D
:10039000000000000000000000000000000000005D
:1003A000000000000000000000000000000000004D
:1003B000000000000000000000000000000000003D
:1003C000000000000000000000000000000000002D
:1003D000000000000000000000000000000000001D
:1003E000000000000000000000000000000000000D
:1003F00000000000000000000000000000000000FD
:1004000000000000000000000000000000000000EC
:1004100000000000000000000000000000000000DC
:1004200000000000000000000000000000000000CC
:1004300000000000000000000000000000000000BC
:1004400000000000000000000000000000000000AC
:10045000000000000000000000000000000000009C
:1004600000000000000000000101013F3F3F3F3F4E
:100470003F3F3F3F3F3F3FFFFFFFFFFFFFFF7F014A
:1004800001FF01010100000000000000000000C0A9
:10049000FCFFFFFFFFFF7F07000101FF01010100DB
:1004A00000000000000000C0FCFFFFFFFFFFFF078F
:1004B0000000000101FF0101010000000000000038
:1004C0007C7F7F7F7F7F7F0F00000000000101FFA6
:1004D000000000000000000000000000000000001C
:1004E000000000000000000000000000000000000C
:1004F00000000000000000000000000000000000FC
:1005000000000000000000000000000000000000EB
:1005100000000000000000000000000000000000DB
:1005200000000000000000000000000000000000CB
:1005300000000000000000000000000000000000BB
:1005400000000000000000000000000000000000AB
:10055000000000000000000000000000000000009B
:10056000000000000000000000000000000000008B
:10057000000000000000000000000000000000007B
:10058000000000000000000000000000000000006B
:10059000000000000000000000000000000000005B
:1005A000000000000000000000000000000000004B
:1005B000000000000000000000000000000000003B
:1005C000000000000000000000000000000000002B
:1005D000000000000000000000000000000000001B
:1005E000000000000000000000000000000000000B
:1005F00000000000000000000000000000000000FB
:1006000000000000000000000000000000000000EA
:1006100000000000000000000000000000000000DA
:1006200000000000000000000000000000000000CA
:1006300000000000000000000000000000000000BA
:1006400000000000000000000000000000000000AA
:10065000000000000000000000000000000000009A
:100660000000000000000000010101F0F8FCFEFEA7
:10067000FFFF00003F3F3FFFFFFFFEFEFCF00101D8
:1006800001FF010101FFFFFFFFFFFFFF0000E0E0AE
:10069000E0E0E1E1E1E1C181010101FF010101FFD0
:1006A000FFFFFFFFFFFF0000030307FFFFFFFFFF48
:1006B000FFFF010101FF010101071F3F7F7F7F7FD6
:1006C00000007C7E7F7F7F7F7F3F3F1F010101FF16
:1006D000000000000000000000000000000000001A
:1006E000000000000000000000000000000000000A
:1006F00000000000000000000000000000000000FA
:1007000000000000000000000000000000000000E9
:1007100000000000000000000000000000000000D9
:1007200000000000000000000000000000000000C9
:1007300000000000000000000000000000000000B9
:1007400000000000000000000000000000000000A9
:100750000000000000000000000000000000000099
:100760000000000000000000000000000000000089
:100770000000000000000000000000000000000079
:100780000000000000000000000000000000000069
:100790000000000000000000000000000000000059
:1007A0000000000000000000000000000000000049
:1007B0000000000000000000000000000000000039
:1007C0000000000000000000000000000000000029
:1007D0000000000000000000000000000000000019
:1007E0000000000000000000000000000000000009
:1007F00000000000000000000000000000000000F9
:1008000000000000000000000000000000000000E8
:1008100000000000000000000000000000000000D8
:1008200000000000000000000000000000000000C8
:1008300000000000000000000000000000000000B8
:1008400000000000000000000000000000000000A8
:100850000000000000000000000000000000000098
:10086000000000000000000001010101FFFFFFFF88
:10087000FFFFFF1F1F1F1F1F1F1F1F1F1F1F010124
:1008800001FF01010101FFFFFFFFFFFFFF00E0E0AB
:10089000E0E0E0E0E0C0C000010101FF0101010172
:1008A000C3C3C3C3C3C303000307079FFFFFFFFF07
:1008B000FFFF010101FF010101010F1F3F7F7F7F4A
:1008C00000007C7E7E7F7F7F7F3F3F1F010101FF15
:1008D0000000000000000000000000000000000018
:1008E0000000000000000000000000000000000008
:1008F00000000000000000000000000000000000F8
:1009000000000000000000000000000000000000E7
:1009100000000000000000000000000000000000D7
:1009200000000000000000000000000000000000C7
:1009300000000000000000000000000000000000B7
:1009400000000000000000000000000000000000A7
:100950000000000000000000000000000000000097
:100960000000000000000000000000000000000087
:100970000000000000000000000000000000000077
:100980000000000000000000000000000000000067
:100990000000000000000000000000000000000057
:1009A0000000000000000000000000000000000047
:1009B0000000000000000000000000000000000037
:1009C0000000000000000000000000000000000027
:1009D0000000000000000000000000000000000017
:1009E0000000000000000000000000000000000007
:1009F00000000000000000000000000000000000F7
:100A000000000000000000000000000000000000E6
:100A100000000000000000000000000000000000D6
:100A200000000000000000000000000000000000C6
:100A300000000000000000000000000000000000B6
:100A400000000000000000000000000000000000A6
:100A50000000000000000000000000000000000096
:100A6000000000000000000001010000000000C0C4
:100A7000F0FCFC000000FFFFFFFFFFFFFF00000095
:100A800001FF010100C0F0FCFFFFFFFF7F0000003D
:100A9000FFFFFFFFFFFFFF00000001FF0101FFFF5D
:100AA000FFFFFFFFFFFBF8000000FFFFFFFFFFFF5E
:100AB000FFF8F8F801FF0101010101010101010145
:100AC000010000007F7F7F7F7F7F7F01010101FFA9
:100AD0000000000000000000000000000000000016
:100AE0000000000000000000000000000000000006
:100AF00000000000000000000000000000000000F6
:100B000000000000000000000000000000000000E5
:100B100000000000000000000000000000000000D5
:100B200000000000000000000000000000000000C5
:100B300000000000000000000000000000000000B5
:100B400000000000000000000000000000000000A5
:100B50000000000000000000000000000000000095
:100B60000000000000000000000000000000000085
:100B70000000000000000000000000000000000075
:100B80000000000000000000000000000000000065
:100B90000000000000000000000000000000000055
:100BA0000000000000000000000000000000000045
:100BB0000000000000000000000000000000000035
:100BC0000000000000000000000000000000000025
:100BD0000000000000000000000000000000000015
:100BE0000000000000000000000000000000000005
:100BF00000000000000000000000000000000000F5
:100C000000000000000000000000000000000000E4
:100C100000000000000000000000000000000000D4
:100C200000000000000000000000000000000000C4
:100C300000000000000000000000000000000000B4
:100C400000000000000000000000000000000000A4
:100C50000000000000000000000000000000000094
:100C60000000000000000000010101013F3F3F3F84
:100C70003F3F3F3F3F3F0080FFFFFFFFFFFF01017E
:100C800001FF01010101000000000000F0F8FCFE7E
:100C9000FFFFFFFFFFC7C381010101FF0101010148
:100CA00000808080808083030303070FFFFFFFFF26
:100CB000FFFF010101FF01010101000F3F3F7F7FA5
:100CC0007F7E7E7C00007F7F7F3F3F1F010101FF11
:100CD0000000000000000000000000000000000014
:100CE0000000000000000000000000000000000004
:100CF00000000000000000000000000000000000F4
:100D000000000000000000000000000000000000E3
:100D100000000000000000000000000000000000D3
:100D200000000000000000000000000000000000C3
:100D300000000000000000000000000000000000B3
:100D400000000000000000000000000000000000A3
:100D50000000000000000000000000000000000093
:100D60000000000000000000000000000000000083
:100D70000000000000000000000000000000000073
:100D80000000000000000000000000000000000063
:100D90000000000000000000000000000000000053
:100DA0000000000000000000000000000000000043
:100DB0000000000000000000000000000000000033
:100DC0000000000000000000000000000000000023
:100DD0000000000000000000000000000000000013
:100DE0000000000000000000000000000000000003
:100DF00000000000000000000000000000000000F3
:100E000000000000000000000000000000000000E2
:100E100000000000000000000000000000000000D2
:100E200000000000000000000000000000000000C2
:100E300000000000000000000000000000000000B2
:100E400000000000000000000000000000000000A2
:100E50000000000000000000000000000000000092
:100E60000000000000000000010101F8FCFEFEFF90
:100E7000FFFF7F3F1F1F3F3FFFFFFFFFFEFC000103
:100E800001FF01010101010100000000000000005C
:100E90000000FFFFFFFF7F3F000101FF0101010094
:100EA0000080C0E0F0F8FCFEFFFF00000707030130
:100EB0000000000101FF010101007F7F7F7F7F7F34
:100EC0007F7F7F7F7E7E7E7E7E7E7E7E7E0101FFB7
:100ED0000000000000000000000000000000000012
:100EE0000000000000000000000000000000000002
:100EF00000000000000000000000000000000000F2
:100F000000000000000000000000000000000000E1
:100F100000000000000000000000000000000000D1
:100F200000000000000000000000000000000000C1
:100F300000000000000000000000000000000000B1
:100F400000000000000000000000000000000000A1
:100F50000000000000000000000000000000000091
:100F60000000000000000000000000000000000081
:100F70000000000000000000000000000000000071
:100F80000000000000000000000000000000000061
:100F90000000000000000000000000000000000051
:100FA0000000000000000000000000000000000041
:100FB0000000000000000000000000000000000031
:100FC0000000000000000000000000000000000021
:100FD0000000000000000000000000000000000011
:100FE0000000000000000000000000000000000001
:100FF00000000000000000000000000000000000F1
:1010000000000000000000000000000000000000E0
:1010100000000000000000000000000000000000D0
:1010200000000000000000000000000000000000C0
:1010300000000000000000000000000000000000B0
:1010400000000000000000000000000000000000A0
:101050000000000000000000000000000000000090
:10106000000000000000000001010101010101C0B9
:10107000C0E0E0F0F8FFFFFFFFFFFF010101010109
:1010800001FF010101010101010F0F0F0F0F0FFF00
:10109000FFFFFFFFFF010101010101FF010101014C
:1010A000010101000000000000FFFFFFFFFFFF0142
:1010B0000101010101FF0101010101010100000025
:1010C0000000007F7F7F7F7F7F010101010101FF21
:1010D0000000000000000000000000000000000010
:1010E0000000000000000000000000000000000000
:1010F00000000000000000000000000000000000F0
:1011000000000000000000000000000000000000DF
:1011100000000000000000000000000000000000CF
:1011200000000000000000000000000000000000BF
:1011300000000000000000000000000000000000AF
:10114000000000000000000000000000000000009F
:10115000000000000000000000000000000000008F
:10116000000000000000000000000000000000007F
:10117000000000000000000000000000000000006F
:10118000000000000000000000000000000000005F
:10119000000000000000000000000000000000004F
:1011A000000000000000000000000000000000003F
:1011B000000000000000000000000000000000002F
:1011C000000000000000000000000000000000001F
:1011D000000000000000000000000000000000000F
:1011E00000000000000000000000000000000000FF
:1011F00000000000000000000000000000000000EF
:1012000000000000000000000000000000000000DE
:1012100000000000000000000000000000000000CE
:1012200000000000000000000000000000000000BE
:1012300000000000000000000000000000000000AE
:10124000000000000000000000000000000000009E
:10125000000000000000000000000000000000008E
:10126000000000000000000001010101F0FCFEFE92
:10127000FFFFFF7F3F3F0000FFFFFEFEFCF001018C
:1012800001FF01010101FFFFFFFFFFFFFF00000061
:101290000000FFFFFFFFFFFF010101FF010101014E
:1012A000FFFFFFFFFFFFFF0000000000FFFFFFFF49
:1012B000FFFF010101FF010101011F3F7F7F7F7FD0
:1012C0007F7E7C7C00007F7F7F7F3F1F010101FFCD
:1012D000000000000000000000000000000000000E
:1012E00000000000000000000000000000000000FE
:1012F00000000000000000000000000000000000EE
:1013000000000000000000000000000000000000DD
:1013100000000000000000000000000000000000CD
:1013200000000000000000000000000000000000BD
:1013300000000000000000000000000000000000AD
:10134000000000000000000000000000000000009D
:10135000000000000000000000000000000000008D
:10136000000000000000000000000000000000007D
:10137000000000000000000000000000000000006D
:10138000000000000000000000000000000000005D
:10139000000000000000000000000000000000004D
:1013A000000000000000000000000000000000003D
:1013B000000000000000000000000000000000002D
:1013C000000000000000000000000000000000001D
:1013D000000000000000000000000000000000000D
:1013E00000000000000000000000000000000000FD
:1013F00000000000000000000000000000000000ED
:1014000000000000000000000000000000000000DC
:1014100000000000000000000000000000000000CC
:1014200000000000000000000000000000000000BC
:1014300000000000000000000000000000000000AC
:10144000000000000000000000000000000000009C
:10145000000000000000000000000000000000008C
:10146000000000000000000000000000001E1E1E22
:101470001E1E000000000038787878780000000018
:10148000000000000000000000000000000000005C
:10149000000000000000000000000000000000004C
:1014A000000000000000000000000000000000003C
:1014B000000000000000000000000000000000002C
:1014C000000000000000000000000000000000001C
:1014D000000000000000000000000000000000000C
:1014E00000000000000000000000000000000000FC
:1014F00000000000000000000000000000000000EC
:1015000000000000000000000000000000000000DB
:1015100000000000000000000000000000000000CB
:1015200000000000000000000000000000000000BB
:1015300000000000000000000000000000000000AB
:10154000000000000000000000000000000000009B
:10155000000000000000000000000000000000008B
:10156000000000000000000000000000000000007B
:10157000000000000000000000000000000000006B
:10158000000000000000000000000000000000005B
:10159000000000000000000000000000000000004B
:1015A000000000000000000000000000000000003B
:1015B000000000000000000000000000000000002B
:1015C000000000000000000000000000000000001B
:1015D000000000000000000000000000000000000B
:1015E00000000000000000000000000000000000FB
:1015F00000000000000000000000000000000000EB
:1016000000000000000000000000000000000000DA
:1016100000000000000000000000000000000000CA
:1016200000000000000000000000000000000000BA
:1016300000000000000000000000000000000000AA
:10164000000000000000000000000000000000009A
:10165000000000000000000000000000000000008A
:10166000000000000000000000000000000000007A
:10167000000000800000000000000000C0E0707862
:101680009C0E1723468CD87020000000000000003C
:101690000004FFDBCD2713090503060C183FFEDC11
:1016A0009810190E060301000000000080C0E03011
:1016B000383C4C8C1C3FFF7E0C1830382C363BFDE0
:1016C0003E1F0888C848381800000002070D18316E
:1016D00063663C180C0703010000000000000000D6
:1016E0000F0C06020155564B2C27100F000000006E
:1016F00000000000000000000000000000000000EA
:1017000000000000000000000000000000000000D9
:1017100000000000000000000000000000000000C9
:1017200000000000000000000000000000000000B9
:1017300000000000000000000000000000000000A9
:101740000000000000000000000000000000000099
:101750000000000000000000000000000000000089
:101760000000000000000000000000000000000079
:101770000000000000000000000000000000000069
:101780000000000000000000000000000000000059
:101790000000000000000000000000000000000049
:1017A0000000000000000000000000000000000039
:1017B0000000000000000000000000000000000029
:1017C0000000000000000000000000000000000019
:1017D0000000000000000000000000000000000009
:1017E00000000000000000000000000000000000F9
:1017F00000000000000000000000000000000000E9
:1018000000000000000000000000000000000000D8
:1018100000000000000000000000000000000000C8
:1018200000000000000000000000000000000000B8
:1018300000000000000000000000000000000000A8
:101840000000000000000000000000000000000098
:101850000000000000000000000000000000000088
:101860000000000000000000000000000000000078
:101870000000000080C0F0F8FCFEFFFFFFFFFFFF4C
:10188000FFFFFFFFFFFCF8F0E0C080000003070F40
:101890001F3F7FFFFFFFFFFFFFFFFFFEF8E0C0805D
:1018A0000000000000000000000000000080C0E018
:1018B000F0F8FCFEFFFFFFFFFFFF7F3F1F0F03015C
:1018C000000080C0E0F8FCFEFEFFFFFFFFFF1F1FCF
:1018D0001F1F1F1F1F1F1F1FFFFFFFFFFFFEFEFC1D
:1018E000FCFCF8F0E000000000000080E0F0F8FCF4
:1018F000FEFFFFFFFFFFFFFFFF9F87818180818742
:10190000BFFFFFFFFFFFFFFFFFFCF8F0C0800000FC
:101910000003071F3F7FFFFFFFFFFFFFFFFFFEFCEE
:10192000F0E0E08080C0F0F8FCFEFFFFFFFFFFFF6B
:10193000FF7F3F0F070100000080C0E0F8FCFEFFC2
:10194000FFFFFFFFFF7F7FFFFBF9F8F8F8F8F8F8DB
:10195000F8F8F8FE7E7F7F7F7F7F7F7F3F1F1F1F0E
:10196000070300C0E0F8FCFEFFFFFFFFFFFFFFFFE3
:101970003F1F1F1F1F1F1F1F1F1F1F1F1F1F1F1F57
:101980001F1F1F1F3F7FFFFFFFFFFFFFFEFCF8E051
:10199000C080000001030F1F3FFFFFFFFFFFFFFF9D
:1019A000FFFFFFFFFFFFFF7F7F1F07030100000016
:1019B0000080E0F8FCFEFFFFFFFFFFFF7F1F0F0727
:1019C0000301000001071F7FFFFFFFFFFFFFFFFF75
:1019D000FFFEF8E0C08000000000000000000003EF
:1019E00003030303030303030303030300000000D3
:1019F00000000000000000000000000000000000E7
:101A000000000000010303030303030303030303B4
:101A10000000000000000001030F1F1F3F7F7F3FF9
:101A20001F07030100000000000000000203030381
:101A3000030303030303030301000000000000008D
:101A40000000000000000303030303030303030378
:101A5000030303030000000000000000000000007A
:101A60000000000000000000000000000000000076
:101A700000000000000000000000000000000080E6
:101A8000C0E0F07838FCFEFFFFFFFC000183C7FEDA
:101A9000780383FEFE790383FEFC00000000000053
:101AA0000000000000000000000000000000000036
:101AB000008080C0E0E070783C9ECFCFC301010081
:101AC0000000FFFFFFFFFFFF0002038381C0C2C3CE
:101AD000C1C18003030180C0C0C0C0C0800000003D
:101AE00000000000000080C0E0F0783C1E0F0707F7
:101AF00003091C0EFFFFFFFFFFFF00000000007F37
:101B00003F1F0F87C31C0E07037F3F3F1F8FC7E395
:101B10000E0E0703FFFFFFFFFFFFFF000000003C6A
:101B20001E0F07030101000000000000000000007C
:101B300000FFFFFFFFFF7F38381C0E07FCFEFFFF92
:101B4000FF7F381C0E0F78FEFEFFFFFF7F3C1C0856
:101B5000007FFFFFFFFFFF7F381C08000103030326
:101B60000706060E1E1C1C3C787870E0E0E0C08082
:101B70008080000000000000000000000000000065
:101B80000000008080808080808080808383878FB9
:101B90008FBFFEFCFCF8F0F0C080000000000000E9
:101BA000000E0F0F0F0F0FEFFFFFFFFFFFFF3F0FA5
:101BB0000F0F0FCFFFFFFFFFFFFFFE3800000000F9
:101BC000000000F8F8F8FFFFFFFFFFFFFFF8F8F84C
:101BD000F8FC7F7F7F7F3F1F1F07010011241FBE7E
:101BE000CFE5D4E0DEBFCDBF10E0A0E6B0E0ECE092
:101BF000F3E202C005900D92A437B107D9F720E0B7
:101C0000A4E7B0E001C01D92A637B207E1F70E9439
:101C1000DE100C9484110C94000080ED0E942C10B6
:101C200087E00E94521083E10E9452100E946110CE
:101C300080ED0E942C1080E00E94521080E00E94F3
:101C400052100E9461100895CF93C82F80ED0E941A
:101C50002C108C2F0E9452100E94611081ED0E9466
:101C60002C1080E00E940510C82F0E9461108C2F5C
:101C7000CF910895E881E295EF70AE2FAA0FAA0FD9
:101C8000EA0FEE0FA991AF70EA0F08950895CF9370
:101C9000DF9381E00E94240E0E943A0ED82FC82FB5
:101CA000C295CF70C770A9F180E090E00E94580FF4
:101CB0008BE50E948C0E8D2F8F7090E00E94D80FC4
:101CC0000E94B20F81E40E948C0E8C2F90E00E9443
:101CD000D80F0E94B20F82E00E94240E0E943A0E9A
:101CE000D82FC82FC295CF70C77099F082E20E949A
:101CF0008C0E8D2F8F7090E00E94D80F0E94B20F33
:101D000088E00E948C0E8C2F90E00E94D80F0E94D9
:101D1000B20FDF91CF91089580937400089588E702
:101D20000E942C1080E00E9452108EEA0E945210F5
:101D300085ED0E94521080E80E94521088EA0E94AD
:101D400052108FE30E94521083ED0E94521080E0E7
:101D50000E94521080E40E9452108DE80E9452109E
:101D600084E10E94521080E20E94521080E00E94A2
:101D7000521081EA0E94521088EC0E9452108AEDA3
:101D80000E94521082E00E94521081E80E9452107C
:101D90008FE80E94521089ED0E94521081EF0E943C
:101DA00052108BED0E94521080E40E94521084EA7F
:101DB0000E94521086EA0E9452108EE20E94521037
:101DC0008FEA0E9452100E946110109274000895D0
:101DD0000F931F93CF93DF93082F162FD42FC22F6B
:101DE00088E70E942C1080E00E94521081E20E943D
:101DF0005210802F0E945210812F0E9452100E9478
:101E0000611088E70E942C1080E00E94521082E24C
:101E10000E9452108D2F0E9452108C2F0E9452103F
:101E20000E946110DF91CF911F910F910895CF9380
:101E3000C82F88E70E942C1080E00E9452108C2F3F
:101E40000E9452100E946110CF910895EF92FF926C
:101E50000F931F93CF93DF9327E044E06FE780E079
:101E60000E94E80E88E70E942C1080E40E94521025
:101E700004E010E06894EE24E7F8F12C0BC080E059
:101E80000E94521021972097D1F701501109011596
:101E9000110519F0CE2DDF2DF2CF0E9461101092A6
:101EA0007400DF91CF911F910F91FF90EF900895F3
:101EB0008130910569F08230910519F0892B51F438
:101EC00004C088B3836088BB0895C09AC198089500
:101ED000C19AC09808958F929F92AF92BF92CF926D
:101EE000DF92EF92FF92CF93DF93EA01862E972E37
:101EF0003091740024E0290F830F6FEF680F44E0E6
:101F0000832F0E94E80E88E70E942C1080E40E9434
:101F10005210AA2497FCA094BA2C181419041A047D
:101F20001B049CF4C12CD12C7601FE01EC0DFD1D8F
:101F300084910E9452108FEFC81AD80AE80AF80A52
:101F4000C814D904EA04FB0484F30E946110DF91F1
:101F5000CF91FF90EF90DF90CF90BF90AF909F9088
:101F60008F9008950F931F93CF93DF938C018091EF
:101F7000740069E1680F27E044E00E94E80E88E7FA
:101F80000E942C1080E40E945210C0E0D0E0F801C2
:101F9000EC0FFD1F84910E9452102196C836D10586
:101FA000B1F70E946110DF91CF911F910F910895B9
:101FB0008A309105E8F4FC01E65DFF4F0C947E1138
:101FC00028E63EE01BC028E63CE018C028E63AE0E0
:101FD00015C028E638E012C028E636E00FC028E633
:101FE00034E00CC028E632E009C028E630E006C044
:101FF000089528E632E102C028E630E1822F932FCF
:10200000089581E080B911B8089506B607FEFDCFA6
:10201000282F217030E000243695279507943695B7
:1020200027950794322F202D246826BF06B607FE79
:10203000FDCF23B191B19C7F90937500882321F04F
:10204000903531F4822F0895983521F4822F089528
:10205000892F0895892F089594EA96BF06B607FE42
:10206000FDCF91B19C7F90937500983011F0903125
:1020700099F406B607FEFDCF83B984E886BF06B69D
:1020800007FEFDCF91B19C7F90937500983131F0A0
:10209000903431F48FEF0895892F08958FEF0895CC
:1020A000892F089583B984E886BF06B607FEFDCF61
:1020B00091B19C7F9093750081E0983209F480E0A3
:1020C000089584E986BF08951ABA1BBA8FEF87BBBB
:1020D00088B318BA14BA15BA11BA12BA08958EEAAA
:1020E0000E94170F82E090E00E94580F88E00E9443
:1020F0008C0E80E090E00E94D80F0E94B20F82E226
:102100000E948C0E81E090E00E94D80F0E94B20FD6
:1021100081E40E948C0E82E090E00E94D80F0E9421
:10212000B20F8BE50E948C0E83E090E00E94D80FE6
:102130000E94B20F82E090E00E94580F88E00E9457
:102140008C0E84E090E00E94D80F0E94B20F82E2D1
:102150000E948C0E85E090E00E94D80F0E94B20F82
:1021600081E40E948C0E86E090E00E94D80F0E94CD
:10217000B20F8BE50E948C0E87E090E00E94D80F92
:102180000E94B20F82E090E00E94580F88E00E9407
:102190008C0E88E090E00E94D80F0E94B20F82E27D
:1021A0000E948C0E89E090E00E94D80F0E94B20F2E
:1021B0008FEA0E94170F0E94260F08950E94641054
:1021C0000E94011080E00E940D0E82E090E00E94CB
:1021D000580F0E948F0E8FEA0E94170F0E94260F41
:1021E00080E00E948C0E80E090E00E94580F809169
:1021F000700090917100A0917200B09173004CE555
:102200005BE1BC01CD010E946B0F2FE38DE093E0F9
:10221000215080409040E1F700C0000081E090E054
:102220000E94580F80916C0090916D00A0916E00FB
:10223000B0916F0048E65AE1BC01CD010E946B0FDE
:102240002FE38DE093E0215080409040E1F700C003
:10225000000082E090E00E94580F80916800909109
:102260006900A0916A00B0916B0048E658E1BC019A
:10227000CD010E946B0F2FE38DE093E02150804051
:102280009040E1F700C000000E94260F0E946F10EE
:1022900081E090E00E94580F80E00E948C0E8091B7
:1022A000640090916500A0916600B091670048E6D7
:1022B00056E1BC01CD010E946B0F2FE38DE093E04E
:1022C000215080409040E1F700C0000080E090E0A5
:1022D0000E94580F8CE30E948C0E809160009091B8
:1022E0006100A0916200B091630048E654E1BC0136
:1022F000CD010E946B0F0E94470EFDCFEE0FFF1F16
:0C2300000590F491E02D0994F894FFCFB3
:10230C001400050384002103F4017D03F4003D0354
:04231C00800020031A
:00000001FF
