:100000000C942A000C9447000C9447000C94470071
:100010000C9447000C9447000C9447000C94470044
:100020000C9447000C9447000C9447000C94470034
:100030000C9447000C9447000C9447000C94470024
:100040000C9447000C9447000C9447000C94470014
:100050000C94470011241FBECFE5D4E0DEBFCDBF16
:1000600010E0A0E6B0E0EAEFF0E002C005900D92EB
:10007000A236B107D9F720E0A2E6B0E001C01D9298
:10008000A436B207E1F70E9449000C947B000C945F
:10009000000087B3806B87BB88B38F7488BB80E513
:1000A0008DB91EB8909160008091610080936300CB
:1000B000909362008FB9779BFECFC49AC4982FE7C4
:1000C00088E391E0215080409040E1F700C00000BB
:1000D000809162008FB9779BFECFC49AC4982FE7B6
:1000E00088E391E0215080409040E1F700C000009B
:0A00F00080E090E00895F894FFCF3F
:0200FA00FF08FD
:00000001FF
