:100000000C942A000C9447000C9447000C94470071
:100010000C9447000C9447000C9447000C94470044
:100020000C9447000C9447000C9447000C94470034
:100030000C9447000C9447000C9447000C94470024
:100040000C9447000C9447000C9447000C94470014
:100050000C94470011241FBECFE5D4E0DEBFCDBF16
:1000600010E0A0E6B0E0E4E9F2E002C005900D92F5
:10007000A836B107D9F720E0A8E6B0E001C01D928C
:10008000AD36B207E1F70E9436010C9448010C949A
:10009000000084EA86BF06B607FEFDCF81B1887FE7
:1000A00080936C00883011F0803191F488E783B937
:1000B00084E886BF06B607FEFDCF91B1987F909386
:1000C0006C00983139F081E0903429F480E0089593
:1000D00081E0089580E0089583B984E886BF06B67C
:1000E00007FEFDCF91B1987F90936C0081E098322C
:1000F00009F480E0089584E986BF06B604FCFDCFCC
:100100000895CF93C82F0E94490080E00E946C00A0
:100110008C2F0E946C000E947B00CF91089588E490
:1001200080B911B88EEA0E94810085ED0E9481009D
:1001300080E80E94810088EA0E9481008FE30E948B
:10014000810080EC0E94810080E00E94810080E4B8
:100150000E9481008DE80E94810084E10E9481005C
:1001600080E20E94810080E00E94810081EA0E947A
:10017000810088EC0E9481008AED0E94810082E06B
:100180000E94810081E80E9481008FE80E94810026
:1001900089ED0E94810081EF0E9481008BED0E9419
:1001A000810080E40E94810084EA0E94810086EA46
:1001B0000E9481008EE20E9481008FEA0E948100ED
:1001C0000895EF92FF920F931F93CF93DF930E94B6
:1001D000490080E80E946C0080E20E946C0080E888
:1001E0000E946C0080E00E946C0080E40E946C0021
:1001F00008E010E06894EE24E7F8F12C0BC080E0F2
:100200000E946C0021972097D1F701501109011528
:10021000110519F0CE2DDF2DF2CF0E947B00DF916A
:10022000CF911F910F91FF90EF9008950F931F931F
:10023000CF93DF930E94490080E40E946C008FEF0F
:100240000E946C0080E40E946C00C0E6D0E008E6EA
:1002500010E089910E946C00C017D107D1F70E946D
:100260007B00DF91CF911F910F91089587B3896B28
:1002700087BB88B3867488BB80E58DB91EB80E94A1
:100280008F00C39AC3980E94E1000E941601FFCF1D
:04029000F894FFCF10
:0802940060E060606060600042
:00000001FF
