S00B00004750532E737265632F
S11300000C94300F0C944D0F0C944D0F0C944D0F19
S11300100C944D0F0C944D0F0C944D0F0C944D0FEC
S11300200C944D0F0C944D0F0C944D0F0C943B13EA
S11300300C944D0F0C944D0F0C944D0F0C944D0FCC
S11300400C944D0F0C944D0F0C944D0F0C944D0FBC
S11300500C944D0F11112F11141117111A111D1198
S11300602011231126112911B012B31297129A12DA
S11300709D12A012A312A612A912AC120000000035
S113008000000000000000000000000F0F0F0F0F21
S1130090000000000000000000000000000000005C
S11300A0000000000000000000000000000000004C
S11300B0000000000000000000000000000000003C
S11300C0000000000000000000000000000000002C
S11300D0000000000000000000000000000000001C
S11300E0000000000000000000000000000000000C
S11300F000000000000000000000000000000000FC
S113010000000000000000000000000000000000EB
S113011000000000000000000000000000000000DB
S113012000000000000000000000000000000000CB
S113013000000000000000000000000000000000BB
S113014000000000000000000000000000000000AB
S1130150000000000000000000000000000000009B
S1130160000000000000000000000000000000008B
S1130170000000000000000000000000000000007B
S1130180000000000000000000000000000000006B
S1130190000000000000000000000000000000005B
S11301A0000000000000000000000000000000004B
S11301B0000000000000000000000000000000003B
S11301C0000000000000000000000000000000002B
S11301D0000000000000000000000000000000001B
S11301E0000000000000000000000000000000000B
S11301F000000000000000000000000000000000FB
S113020000000000000000000000000000000000EA
S113021000000000000000000000000000000000DA
S113022000000000000000000000000000000000CA
S113023000000000000000000000000000000000BA
S113024000000000000000000000000000000000AA
S1130250000000000000000000000000000000009A
S1130260000000000000000000000000000000008A
S1130270000000000000000000000000000000F08A
S1130280FCFFFF7F1F07030000E0FCFF7F6F2330AC
S113029030F8F8FC7C0E000000808080F0FFFF8FB7
S11302A081000000000000010307070301000000B3
S11302B0000000000000000000000000000000003A
S11302C0000000000000000000000000000000002A
S11302D0000000000000000000000000000000001A
S11302E0000000000000000000000000000000000A
S11302F000000000000000000000000000000000FA
S113030000000000000000000000000000000000E9
S113031000000000000000000000000000000000D9
S113032000000000000000000000000000000000C9
S113033000000000000000000000000000000000B9
S113034000000000000000000000000000000000A9
S11303500000000000000000000000000000000099
S11303600000000000000000000000000000000089
S11303700000000000000000000000000000000079
S11303800000000000000000000000000000000069
S11303900000000000000000000000000000000059
S11303A00000000000000000000000000000000049
S11303B00000000000000000000000000000000039
S11303C00000000000000000000000000000000029
S11303D00000000000000000000000000000000019
S11303E00000000000000000000000000000000009
S11303F000000000000000000000000000000000F9
S113040000000000000000000000000000000000E8
S113041000000000000000000000000000000000D8
S113042000000000000000000000000000000000C8
S113043000000000000000000000000000000000B8
S113044000000000000000000000000000000000A8
S11304500000000000000000000000000000000098
S11304600000000000000000000000000000000088
S11304700000000000000000000000000000000078
S1130480000000003C6666666666663C3C6666661E
S11304903E060C383C66663C6666663C7E06060C88
S11304A0181818181C30607C6666663C7E60607C98
S11304B00606663C0E1E36667F0606067E660C1C25
S11304C00606663C3C66060C1830607E1838181820
S11304D01818183C0000FFFFFFFFFFFFFF1F1F1F3E
S11304E01F1F1F1F1FFFFFFFFFFFFFFF0000000074
S11304F0FFFFFFFFFFFFFFF0F0F0F0F0F0F0F0FF80
S1130500FFFFFFFFFFFF00000000818181818181E7
S1130510818181818181818181FFFFFFFFFFFFFF55
S1130520000000001F1F1F1F1F1F1F1F1F1F1F1F53
S11305301F1F1F1F1F1F1F1F1F1F00000000000081
S113054000000000000000000000000000000000A7
S11305500000000000000000000000000000000097
S11305600000000000000000000000000000000087
S11305700000000000000000000000000000000077
S11305800000000000000000000000000000000067
S11305900000000000000000000000000000000057
S11305A00000000000000000000000000000000047
S11305B00000000000000000000000000000000037
S11305C00000000000000000000000000000000027
S11305D00000000000000000000000000000000017
S11305E00000000000000000000000000000000007
S11305F000000000000000000000000000000000F7
S113060000000000000000000000000000000000E6
S113061000000000000000000000000000000000D6
S113062000000000000000000000000000000000C6
S113063000000000000000000000000000000000B6
S113064000000000000000000000000000000000A6
S11306500000000000000000000000000000000096
S11306600000000000000000000000000000000086
S11306700000000000000000000000000000000076
S11306800000000000000000000000000000000066
S11306900000000000000000000000000000000056
S11306A00000000000000000000000000000000046
S11306B00000000000000000000000000000000036
S11306C00000000000000000000000000000000026
S11306D0000000000000FFFFFFFFFFFFFF1F1F1FC0
S11306E01F1F1F1F1FFFFFFFFFFFFFFF0000000072
S11306F0FFFFFFFFFFFFFFF0F0F0F0F0F0F0F0FF7E
S1130700FFFFFFFFFFFF00000000FFFFFFFFFFFFF1
S1130710FF8181818181818181FFFFFFFFFFFFFFD5
S1130720000000001F1F1F1F1F1F1F1F1F1F1F1F51
S11307301F1F1F1F1F1F1F1F1F1F0000000000007F
S113074000000000000000000000000000000000A5
S11307500000000000000000000000000000000095
S11307600000000000000000000000000000000085
S11307700000000000000000000000000000000075
S11307800000000000000000000000000000000065
S11307900000000000000000000000000000000055
S11307A00000000000000000000000000000000045
S11307B00000000000000000000000000000000035
S11307C00000000000000000000000000000000025
S11307D00000000000000000000000000000000015
S11307E00000000000000000000000000000000005
S11307F000000000000000000000000000000000F5
S113080000000000000000000000000000000000E4
S113081000000000000000000000000000000000D4
S113082000000000000000000000000000000000C4
S113083000000000000000000000000000000000B4
S113084000000000000000000000000000000000A4
S11308500000000000000000000000000000000094
S11308600000000000000000000000000000000084
S11308700000000000000000000000000000000074
S11308800000000000000000000000000000000064
S11308900000000000000000000000000000000054
S11308A00000000000000000000000000000000044
S11308B00000000000000000000000000000000034
S11308C00000000000000000000000000000000024
S11308D00000000000001F1F1F1F1F1F1F1F1F1FDE
S11308E01F1F1F1FDFFFFFFFFFFFFF3F0000000070
S11308F000000000000000000000C0F0FCFFFFFF4B
S1130900FF7F1F0300000000000000000000000043
S113091000E0F8FEFFFFFFFF3F0F010000000000B2
S113092000000000000000000000001F1F1F1F1F28
S11309301F1F000000000000000000000000000075
S113094000000000000000000000000000000000A3
S11309500000000000000000000000000000000093
S11309600000000000000000000000000000000083
S11309700000000000000000000000000000000073
S11309800000000000000000000000000000000063
S11309900000000000000000000000000000000053
S11309A00000000000000000000000000000000043
S11309B00000000000000000000000000000000033
S11309C00000000000000000000000000000000023
S11309D00000000000000000000000000000000013
S11309E00000000000000000000000000000000003
S11309F000000000000000000000000000000000F3
S1130A0000000000000000000000000000000000E2
S1130A1000000000000000000000000000000000D2
S1130A2000000000000000000000000000000000C2
S1130A3000000000000000000000000000000000B2
S1130A4000000000000000000000000000000000A2
S1130A500000000000000000000000000000000092
S1130A600000000000000000000000000000000082
S1130A700000000000000000000000000000000072
S1130A800000000000000000000000000000000062
S1130A900000000000000000000000000000000052
S1130AA00000000000000000000000000000000042
S1130AB00000000000000000000000000000000032
S1130AC00000000000000000000000000000000022
S1130AD0000000000000FFFFFFFFFFFFFF1F1F1FBC
S1130AE01F1F1F1F1F1F1F1F1F1F1F1F000000008E
S1130AF0FFFFFFFFFFFFFFF0F0F0F0F0F0F0F0F089
S1130B00F0F0F0F0F0F000000000FFFFFFFFFFFF47
S1130B10FF8181818181818181FFFFFFFFFFFFFFD1
S1130B20000000001F1F1F1F1F1F1F1F1F1F1F1F4D
S1130B301F1F1F1F1F1F1F1F1F1F0000000000007B
S1130B4000000000000000000000000000000000A1
S1130B500000000000000000000000000000000091
S1130B600000000000000000000000000000000081
S1130B700000000000000000000000000000000071
S1130B800000000000000000000000000000000061
S1130B900000000000000000000000000000000051
S1130BA00000000000000000000000000000000041
S1130BB00000000000000000000000000000000031
S1130BC00000000000000000000000000000000021
S1130BD00000000000000000000000000000000011
S1130BE00000000000000000000000000000000001
S1130BF000000000000000000000000000000000F1
S1130C0000000000000000000000000000000000E0
S1130C1000000000000000000000000000000000D0
S1130C2000000000000000000000000000000000C0
S1130C3000000000000000000000000000000000B0
S1130C4000000000000000000000000000000000A0
S1130C500000000000000000000000000000000090
S1130C600000000000000000000000000000000080
S1130C700000000000000000000000000000000070
S1130C800000000000000000000000000000000060
S1130C900000000000000000000000000000000050
S1130CA00000000000000000000000000000000040
S1130CB00000000000000000000000000000000030
S1130CC00000000000000000000000000000000020
S1130CD0000000000000FFFFFFFFFFFFFF1F1F1FBA
S1130CE01F1F1F1F1F1F1F1F1F1F1F1F000000008C
S1130CF0FFFFFFFFFFFFFFF0F0F0F0F0F0F0F0F087
S1130D00F0F0F0F0F0F00000000081818181818139
S1130D10818181818181818181FFFFFFFFFFFFFF4D
S1130D20000000001F1F1F1F1F1F1F1F1F1F1F1F4B
S1130D301F1F1F1F1F1F1F1F1F1F00000000000079
S1130D40000000000000000000000000000000009F
S1130D50000000000000000000000000000000008F
S1130D60000000000000000000000000000000007F
S1130D70000000000000000000000000000000006F
S1130D80000000000000000000000000000000005F
S1130D90000000000000000000000000000000004F
S1130DA0000000000000000000000000000000003F
S1130DB0000000000000000000000000000000002F
S1130DC0000000000000000000000000000000001F
S1130DD0000000000000000000000000000000000F
S1130DE000000000000000000000000000000000FF
S1130DF000000000000000000000000000000000EF
S1130E0000000000000000000000000000000000DE
S1130E1000000000000000000000000000000000CE
S1130E2000000000000000000000000000000000BE
S1130E3000000000000000000000000000000000AE
S1130E40000000000000000000000000000000009E
S1130E50000000000000000000000000000000008E
S1130E60000000000000000000000000000000007E
S1130E70000000000000000000000000000000006E
S1130E80000000000000000000000000000000005E
S1130E90000000000000000000000000000000004E
S1130EA0000000000000000000000000000000003E
S1130EB0000000000000000000000000000000002E
S1130EC0000000000000000000000000000000001E
S1130ED0000000000000FFFFFFFFFFFFFF00000015
S1130EE00000000000FFFFFFFFFFFFFF0000000005
S1130EF0FFFFFFFFFFFFFFC0C0C0C0C0C0C0C0FFF6
S1130F00FFFFFFFFFFFF000000000F0F0F0F0F0F89
S1130F100F0F0F0F0F0F0F0F0FFFFFFFFFFFFFFF4D
S1130F2000000000000000000000000000000000BD
S1130F300000001F1F1F1F1F1F1F000000000000D4
S1130F40000000000000000000000000000000009D
S1130F50000000000000000000000000000000008D
S1130F60000000000000000000000000000000007D
S1130F70000000000000000000000000000000006D
S1130F80000000000000000000000000000000005D
S1130F90000000000000000000000000000000004D
S1130FA0000000000000000000000000000000003D
S1130FB0000000000000000000000000000000002D
S1130FC0000000000000000000000000000000001D
S1130FD0000000000000000000000000000000000D
S1130FE000000000000000000000000000000000FD
S1130FF000000000000000000000000000000000ED
S113100000000000000000000000000000000000DC
S113101000000000000000000000000000000000CC
S113102000000000000000000000000000000000BC
S113103000000000000000000000000000000000AC
S1131040000000000000000000000000000000009C
S1131050000000000000000000000000000000008C
S1131060000000000000000000000000000000007C
S1131070000000000000000000000000000000006C
S1131080000000000000000000000000000000005C
S1131090000000000000000000000000000000004C
S11310A0000000000000000000000000000000003C
S11310B0000000000000000000000000000000002C
S11310C0000000000000000000000000000000001C
S11310D0000000000000001F1F1F1F1F1F1F1F1FF5
S11310E01F9FDFFFFFFFFFFFFFFF7F3F00000000A8
S11310F00000000000E0F0F8FCFEFFFFFFFFFFFF30
S1131100F7F3F1F0F0F000000000008080808081AF
S1131110818181818181818181FFFFFFFFFFFFFF49
S113112000000000001F1F1F1F1F1F1F1F1F1F1F66
S11311301F1F1F1F1F1F1F1F1F1F00000000000075
S1131140000000000000000000000000000000009B
S1131150000000000000000000000000000000008B
S1131160000000000000000000000000000000007B
S1131170000000000000000000000000000000006B
S1131180000000000000000000000000000000005B
S1131190000000000000000000000000000000004B
S11311A0000000000000000000000000000000003B
S11311B0000000000000000000000000000000002B
S11311C0000000000000000000000000000000001B
S11311D0000000000000000000000000000000000B
S11311E000000000000000000000000000000000FB
S11311F000000000000000000000000000000000EB
S113120000000000000000000000000000000000DA
S113121000000000000000000000000000000000CA
S113122000000000000000000000000000000000BA
S113123000000000000000000000000000000000AA
S1131240000000000000000000000000000000009A
S1131250000000000000000000000000000000008A
S1131260000000000000000000000000000000007A
S1131270000000000000000000000000000000006A
S1131280000000000000000000000000000000005A
S1131290000000000000000000000000000000004A
S11312A0000000000000000000000000000000003A
S11312B0000000000000000000000000000000002A
S11312C0000000000000000000000000000000001A
S11312D000000000000000FFFFFFFFFFFFFF1F1FD3
S11312E01F1F1F1F1FFFFFFFFFFFFFFF0000000066
S11312F000000000000000000080C0C0E0F0F0FF2B
S1131300FFFFFFFF7F3F0000000000E0F0F0F8FC6B
S1131310FEFEFFFFBF9F9F8F878383818080808035
S113132000000000001F1F1F1F1F1F1F1F1F1F1F64
S11313301F1F1F1F1F1F1F1F1F1F00000000000073
S11313400000000000000000000000000000000099
S11313500000000000000000000000000000000089
S11313600000000000000000000000000000000079
S11313700000000000000000000000000000000069
S11313800000000000000000000000000000000059
S11313900000000000000000000000000000000049
S11313A00000000000000000000000000000000039
S11313B00000000000000000000000000000000029
S11313C00000000000000000000000000000000019
S11313D00000000000000000000000000000000009
S11313E000000000000000000000000000000000F9
S11313F000000000000000000000000000000000E9
S113140000000000000000000000000000000000D8
S113141000000000000000000000000000000000C8
S113142000000000000000000000000000000000B8
S113143000000000000000000000000000000000A8
S11314400000000000000000000000000000000098
S11314500000000000000000000000000000000088
S11314600000000000000000000000000000000078
S11314700000000000000000000000000000000068
S11314800000000000000000000000000000000058
S11314900000000000000000000000000000000048
S11314A00000000000000000000000000000000038
S11314B00000000000000000000000000000000028
S11314C00000000000000000000000000000000018
S11314D000000000000000000000001F1F1FFFFFAD
S11314E0FFFFFFFF000000000000000000000000FC
S11314F00000000000000000FFFFFFFFFFFF0000EE
S11315000000000000000000000000000000008057
S11315108080FFFFFFFFFFFF80808000000000004D
S11315200000000000000000001F1F1F1F1F1F1FDE
S11315301F1F1F1F1F00000000000000000000000C
S11315400000000000000000000000000000000097
S11315500000000000000000000000000000000087
S11315600000000000000000000000000000000077
S11315700000000000000000000000000000000067
S11315800000000000000000000000000000000057
S11315900000000000000000000000000000000047
S11315A00000000000000000000000000000000037
S11315B00000000000000000000000000000000027
S11315C00000000000000000000000000000000017
S11315D00000000000000000000000000000000007
S11315E000000000000000000000000000000000F7
S11315F000000000000000000000000000000000E7
S113160000000000000000000000000000000000D6
S113161000000000000000000000000000000000C6
S113162000000000000000000000000000000000B6
S113163000000000000000000000000000000000A6
S11316400000000000000000000000000000000096
S11316500000000000000000000000000000000086
S11316600000000000000000000000000000000076
S11316700000000000000000000000000000000066
S11316800000000000000000000000000000000056
S11316900000000000000000000000000000000046
S11316A00000000000000000000000000000000036
S11316B00000000000000000000000000000000026
S11316C00000000000000000000000000000000016
S11316D0000000000000FFFFFFFFFFFFFFFF1F1FD0
S11316E01F1F1F1F1FFFFFFFFFFFFFFF0000000062
S11316F0FFFFFFFFFFFFFFFF00000000000000FFEF
S1131700FFFFFFFFFFFF00000000FFFFFFFFFFFFE1
S1131710FFFF80808080808080FFFFFFFFFFFFFF4E
S1131720000000001F1F1F1F1F1F1F1F1F1F1F1F41
S11317301F1F1F1F1F1F1F1F1F1F0000000000006F
S11317400000000000000000000000000000000095
S11317500000000000000000000000000000000085
S11317600000000000000000000000000000000075
S11317700000000000000000000000000000000065
S11317800000000000000000000000000000000055
S11317900000000000000000000000000000000045
S11317A00000000000000000000000000000000035
S11317B00000000000000000000000000000000025
S11317C00000000000000000000000000000000015
S11317D00000000000000000000000000000000005
S11317E000000000000000000000000000000000F5
S11317F000000000000000000000000000000000E5
S113180000000000000000000000000000000000D4
S113181000000000000000000000000000000000C4
S113182000000000000000000000000000000000B4
S113183000000000000000000000000000000000A4
S11318400000000000000000000000000000000094
S11318500000000000000000000000000000000084
S11318600000000000000000000000000000000074
S11318700000000000000000000000000000000064
S11318800000000000000000000000000000000054
S11318900000000000000000000000000000000044
S11318A00000000000000000000000000000000034
S11318B00000000000000000000000000000000024
S11318C00000000000000000000000000000000014
S11318D0000000003C6670380E663C007C66667C46
S11318E0606060003C66C0C0CE663C000000000042
S11318F00000000000000080000000000000000064
S1131900C0E070789C0E1723468CD870200000002D
S1131910000000000004FFDBCD2713090503060CBB
S1131920183FFEDC9810190E0603010000000000A9
S113193080C0E030383C4C8C1C3FFF7E0C183038A3
S11319402C363BFD3E1F0888C848381800000002AA
S1131950070D183163663C180C07030100000000F2
S1131960000000000F0C06020155564B2C27100FE7
S11319700000000000000000000000000000000063
S11319800000000000000000000000000000000053
S11319900000000000000000000000000000000043
S11319A00000000000000000000000000000000033
S11319B00000000000000000000000000000000023
S11319C00000000000000000000000000000000013
S11319D00000000000000000000000000000000003
S11319E000000000000000000000000000000000F3
S11319F000000000000000000000000000000000E3
S1131A0000000000000000000000000000000000D2
S1131A1000000000000000000000000000000000C2
S1131A2000000000000000000000000000000000B2
S1131A3000000000000000000000000000000000A2
S1131A400000000000000000000000000000000092
S1131A500000000000000000000000000000000082
S1131A600000000000000000000000000000000072
S1131A700000000000000000000000000000000062
S1131A800000000000000000000000000000000052
S1131A900000000000000000000000000000000042
S1131AA00000000000000000000000000000000032
S1131AB00000000000000000000000000000000022
S1131AC00000000000000000000000000000000012
S1131AD00000000000000000000000000000000002
S1131AE000000000000000000000000000000000F2
S1131AF0000000000000000080C0F0F8FCFEFFFFC2
S1131B00FFFFFFFFFFFFFFFFFFFCF8F0E0C08000D6
S1131B100003070F1F3F7FFFFFFFFFFFFFFFFFFED5
S1131B20F8E0C08000000000000000000000000099
S1131B300080C0E0F0F8FCFEFFFFFFFFFFFF7F3FE7
S1131B401F0F0301000080C0E0F8FCFEFEFFFFFF52
S1131B50FFFF1F1F1F1F1F1F1F1F1F1FFFFFFFFF51
S1131B60FFFEFEFCFCFCF8F0E0000000000000803A
S1131B70E0F0F8FCFEFFFFFFFFFFFFFFFF9F878100
S1131B8081808187BFFFFFFFFFFFFFFFFFFCF8F0AD
S1131B90C08000000003071F3F7FFFFFFFFFFFFF20
S1131BA0FFFFFEFCF0E0E08080C0F0F8FCFEFFFFE9
S1131BB0FFFFFFFFFF7F3F0F070100000080C0E031
S1131BC0F8FCFEFFFFFFFFFFFF7F7FFFFBF9F8F844
S1131BD0F8F8F8F8F8F8F8FE7E7F7F7F7F7F7F7F44
S1131BE03F1F1F1F070300C0E0F8FCFEFFFFFFFFBD
S1131BF0FFFFFFFF3F1F1F1F1F1F1F1F1F1F1F1F51
S1131C001F1F1F1F1F1F1F1F3F7FFFFFFFFFFFFF20
S1131C10FEFCF8E0C080000001030F1F3FFFFFFF40
S1131C20FFFFFFFFFFFFFFFFFFFFFF7F7F1F070394
S1131C30010000000080E0F8FCFEFFFFFFFFFFFF53
S1131C407F1F0F070301000001071F7FFFFFFFFF36
S1131C50FFFFFFFFFFFEF8E0C0800000000000006F
S1131C600000000303030303030303030303030349
S1131C700000000000000000000000000000000060
S1131C80000000000000000001030303030303033A
S1131C90030303030000000000000001030F1F1FE3
S1131CA03F7F7F3F1F07030100000000000000008A
S1131CB002030303030303030303030301000000FC
S1131CC000000000000000000000030303030303FE
S1131CD003030303030303030000000000000000E8
S1131CE000000000000000000000000000000000F0
S1131CF000000000000000000000000000000000E0
S1131D0000000080C0E0F07838FCFEFFFFFFFC001C
S1131D100183C7FE780383FEFE790383FEFC000083
S1131D2000000000000000000000000000000000AF
S1131D3000000000008080C0E0E070783C9ECFCFBF
S1131D40C30101000000FFFFFFFFFFFF0002038348
S1131D5081C0C2C3C1C18003030180C0C0C0C0C070
S1131D608000000000000000000080C0E0F0783C2B
S1131D701E0F070703091C0EFFFFFFFFFFFF0000F4
S1131D800000007F3F1F0F87C31C0E07037F3F3FE8
S1131D901F8FC7E30E0E0703FFFFFFFFFFFFFF00C8
S1131DA00000003C1E0F07030101000000000000BA
S1131DB00000000000FFFFFFFFFF7F38381C0E0704
S1131DC0FCFEFFFFFF7F381C0E0F78FEFEFFFFFFB7
S1131DD07F3C1C08007FFFFFFFFFFF7F381C0800CB
S1131DE0010303030706060E1E1C1C3C787870E0F2
S1131DF0E0E0C080808000000000000000000000DF
S1131E00000000000000008080808080808080804E
S1131E108383878F8FBFFEFCFCF8F0F0C080000046
S1131E2000000000000E0F0F0F0F0FEFFFFFFFFF6A
S1131E30FFFF3F0F0F0F0FCFFFFFFFFFFFFFFE3826
S1131E4000000000000000F8F8F8FFFFFFFFFFFFAC
S1131E50FFF8F8F8F8FC7F7F7F7F3F1F1F07010022
S1131E6011241FBECFE5D4E0DEBFCDBF10E0A0E655
S1131E70B0E0EAE3FFE202C005900D92AA37B10791
S1131E80D9F722E0AAE7B0E001C01D92AD31B20754
S1131E90E1F70E94AF140C949B170C94000086B1D8
S1131EA0876886B917B80895369A3699FECF84B1F3
S1131EB095B10895BC0180E090E00E947C162AE967
S1131EC039E941E551E40E940A1720E030EC4FE77C
S1131ED054E40E94E31520E030E040EC5FE30E940C
S1131EE07F1508958F929F92AF92BF92CF92DF9207
S1131EF0EF92FF92CF93DF9380917A0090917B00D1
S1131F0080329E4409F072C017B810927B00109280
S1131F107A0082E090E00E94031288E00E94371168
S1131F208091650090916600A0916700B09168006F
S1131F304CE752E0BC01CD010E9422120E94540FD2
S1131F400E945A0F4B015C010E944B166B017C01ED
S1131F50EB018BE50E943711B601882777FD809548
S1131F60982F0E947E169B01AC01C501B4010E940A
S1131F707E1520E030E040E251E40E940A170E94FE
S1131F804B16CB010E948F120E94691286E50E94B3
S1131F9037118091610090916200A0916300B0912B
S1131FA064004CE750E0BC01CD010E9422128CE396
S1131FB00E943711CA30D1053CF0C6010A970E942D
S1131FC08F120E94691205C0C6010E948F120E94DE
S1131FD0691282E20E943711CE016AE070E00E9429
S1131FE06D17CB010E948F120E94691280917A00B2
S1131FF090917B00019690937B0080937A00DF910F
S1132000CF91FF90EF90DF90CF90BF90AF909F90D3
S11320108F900895C99907C080E090E00E94321122
S1132020DC9ADD9808958FE090E00E943211DD9AE9
S1132030DC9808958FEF80938200809384008093CE
S1132040830080ED0E94BC1287E00E94F91283E1B4
S11320500E94F9120E940E130E940E130895CF934A
S1132060DF93C82FD62F80ED0E94BC1281E00E941E
S1132070F9128D2F0E94F9128C2F0E94F9120E94DE
S11320800E13DF91CF9108954836D1F58053282F50
S113209030E06053462F50E0B901660F771FC90145
S11320A0880F991F880F991F880F991F860F971FF4
S11320B0840F951FBC016D5F7F4F6831710514F06B
S11320C045970895BA016D5F7F4F6A30710574F0CA
S11320D02F5F3F4FC90182959295907F9827807F0B
S11320E0982747505109842B952B0895C90182954F
S11320F09295907F9827807F9827862B972B089519
S1132100805320E1829FC00111246053862B0895DF
S1132110805308958FB9779BFECF08950F931F9333
S1132120CF93DF93082F162FC498C3E0D0E0802FFD
S11321300E948A10812F0E948A1021972097B9F754
S1132140C49ADF91CF911F910F91089580E58DB9C5
S113215081E08EB960E08FE00E948E106FE08AE02B
S11321600E948E1067E08BE00E948E1060E089E090
S11321700E948E1060E08CE00E948E100895CF9330
S1132180C1E060E08C2F0E948E10CF5FC930C9F788
S113219061E08CE00E948E10CF910895BF92CF929F
S11321A0DF92EF92FF920F931F93CF93DF936C0113
S11321B07B018A01C0E0D0E0C498BC2EB3948B2D7F
S11321C00E948A10F601EC0FFD1F84910E948A1070
S11321D08B2D0E948A10F701EC0FFD1F84910E9441
S11321E08A108B2D0E948A10F801EC0FFD1F849138
S11321F00E948A10C49A2196C830D105E9F6DF916D
S1132200CF911F910F91FF90EF90DF90CF90BF90EF
S113221008958A30910500F5FC01E65DFF4F0C94AA
S1132220811784E894E0089584EC94E008958CEB9D
S113223094E0089584EB94E008958CEA94E0089582
S113224084EA94E008958CE994E0089584E994E0A4
S113225008958CE894E008958CE794E008958CEC5C
S113226094E00895682F8AE00E948E100895809368
S11322708500089588E70E94BC1280E00E94F9124C
S11322808EEA0E94F91285ED0E94F91280E80E94FC
S1132290F91288EA0E94F9128FE30E94F91283ED81
S11322A00E94F91280E00E94F91280E40E94F9125F
S11322B08DE80E94F91284E10E94F91280E20E94E2
S11322C0F91280E00E94F91281EA0E94F91288EC66
S11322D00E94F9128AED0E94F91282E00E94F9121A
S11322E081E80E94F9128FE10E94F91289ED0E949F
S11322F0F91281EF0E94F9128BED0E94F91280E429
S11323000E94F91284EA0E94F91286EA0E94F912E4
S11323108EE20E94F9128FEA0E94F9120E940E13B3
S11323201092850008950F931F93CF93DF93082F86
S1132330162FD42FC22F88E70E94BC1280E00E947F
S1132340F91281E20E94F912802F0E94F912812F62
S11323500E94F9120E940E1388E70E94BC1280E0CA
S11323600E94F91282E20E94F9128D2F0E94F91242
S11323708C2F0E94F9120E940E13DF91CF911F91AE
S11323800F910895CF93C82F88E70E94BC1280E074
S11323900E94F9128C2F0E94F9120E940E13CF9101
S11323A00895EF92FF920F931F93CF93DF9327E04B
S11323B044E06FE780E00E94931188E70E94BC121A
S11323C080E40E94F91204E010E06894EE24E7F837
S11323D0F12C0BC080E00E94F91221972097D1F7CD
S11323E0015011090115110519F0CE2DDF2DF2CF81
S11323F00E940E1310928500DF91CF911F910F91CF
S1132400FF90EF9008958130910591F01CF4892B91
S113241051F008958230910581F0039791F488B3C7
S1132420876088BB0895C09A88B3897F88BB089564
S1132430C19A88B38A7F88BB0895C29A88B38C7F77
S113244088BB08958F929F92AF92BF92CF92DF92F2
S1132450EF92FF92CF93DF93EA01862E972E30916D
S1132460850024E0290F830F6FEF680F44E0832F6A
S11324700E94931188E70E94BC1280E40E94F91222
S1132480AA2497FCA094BA2C181419041A041B0447
S11324909CF4C12CD12C7601FE01EC0DFD1D849120
S11324A00E94F9128FEFC81AD80AE80AF80AC81469
S11324B0D904EA04FB0484F30E940E13DF91CF9144
S11324C0FF90EF90DF90CF90BF90AF909F908F9050
S11324D008950F931F93CF93DF938C018091850010
S11324E069E1680F27E044E00E94931188E70E94A5
S11324F0BC1280E40E94F912C0E0D0E0F801EC0FB5
S1132500FD1F84910E94F9122196C836D105B1F7B6
S11325100E940E13DF91CF911F910F9108958A307D
S11325209105E8F4FC01EC5CFF4F0C94811724ED59
S113253032E11BC024ED30E118C024ED3EE015C0AB
S113254024ED3CE012C024ED3AE00FC024ED38E065
S11325500CC024ED36E009C024ED34E006C0089533
S113256024ED36E102C024ED34E1822F932F089547
S113257081E080B911B8089594EA96BF20E030E074
S113258006C02F5F3F4F2C3291E0390719F006B691
S113259007FEF7CF91B19C7F90938600983049F065
S11325A0903109F506C02F5F3F4F2C3291E0390777
S11325B019F006B607FEF7CF83B984E886BF06C0D4
S11325C02F5F3F4F2C3281E0380719F006B607FE23
S11325D0F7CF91B19C7F90938600983131F090347D
S11325E031F48FEF0895892F08958FEF0895892F7F
S11325F0089583B984E886BF8CE291E003C0019713
S1132600009719F006B607FEFACF91B19C7F90931C
S1132610860081E0983209F480E0089584E986BF59
S11326208CE291E003C00197009719F006B604FC10
S1132630FACF089584E38ABB81E08BBB8FEB87BB21
S113264088B318BA14BA15BA11BA12BA0895009711
S113265049F0EFECF7E03197F1F700C00000019783
S11326600097B9F70895DA9A0E942713DA98089523
S113267080917D0008951F920F920FB60F9211243E
S11326808F9380917E00811104C081E080937D004E
S113269057988F910F900FBE0F901F901895CF935E
S11326A080919B008134E1F44DE660919400809127
S11326B093000E944410C82F48E6609192008091D4
S11326C091000E9444106C2F0E942F1081E080938F
S11326D07C008093600084E690E00E94331302C083
S11326E010926000CF9108950F931F93CF93DF93BF
S11326F0809191008C3299F480E090E00E9409115D
S11327008C018CE090E00E940911EC018CE090E0D7
S11327100E940911A801BE010E94CE1077C0EAE808
S1132720F0E080E090E09C012F5F3F4F41914E34F8
S113273011F0C901F8CF0296FC01E657FF4F408122
S11327404E3229F463C02130310531F50FC0E7E87A
S1132750F0E020E030E02F5F3F4F01964193DC0131
S1132760A657BF4F4C914E32B1F7EDCF8091870001
S11327700E94881090E00E9409118C018CE090E086
S11327800E940911EC018CE090E00E940911A8015B
S1132790BE010E94CE103AC022303105C9F48091A6
S11327A088000E94881090E00E9409118C01809199
S11327B087000E94881090E00E940911EC018CE0CF
S11327C090E00E940911A801BE010E94CE101EC013
S11327D023303105D9F4809189000E94881090E05B
S11327E00E9409118C01809188000E94881090E059
S11327F00E940911EC01809187000E94881090E0EA
S11328000E940911A801BE010E94CE10DF91CF9150
S11328101F910F910895CF93DF9380919B008C3289
S113282071F481E090E00E9403128BE50E9437115D
S113283080E090E00E948F120E94691233C0EAE89F
S1132840F0E0C0E0D0E0CE0101962191253411F0F2
S1132850EC01F9CFFE01E657FF4F8281803319F472
S1132860109260001FC081E08093600081E090E0DE
S11328700E9403128BE50E943711C657DF4F8D81EA
S11328800E94881090E00E948F120E94691281E4D5
S11328900E9437118C810E94881090E00E948F1250
S11328A00E946912DF91CF910895109280001092D6
S11328B07F005F9BFECF81E090E090938000809347
S11328C07F008CB180938A00843231F010927E00B4
S11328D010927D00579A08955F9BFECF8BB14CB147
S11328E08C7179F480917F00909180009C012F5F1E
S11328F03F4F3093800020937F00FC01E657FF4F49
S113290040834A3249F780918E008D3431F48091AE
S11329107C00811112C00E944F1380918E00843577
S113292031F480916000813041F40E9474138091ED
S11329308E00873411F40E940B1410927E001092C2
S11329407D0085EA80938A00579A089590BD89B9DD
S113295080E98AB91BB886E880BD789408950E94FE
S11329601A130E94B81284E690E00E9433130E9466
S1132970A6100E94BF108AE00E943211C0E0D0E08D
S1132980CE010E9409117C01CE0101970E94091118
S11329908C01CE0102970E940911A701B8010E947F
S11329A0CE102FEF84E39CE0215080409040E1F76B
S11329B000C000002196CA30D10511F744ED58E15A
S11329C06CED78E184EE98E10E94CE1083E090E013
S11329D00E9403120E943A118FEA0E94C2110E94BF
S11329E0D11180E00E94371180E090E00E94031230
S11329F08091750090917600A0917700B091780055
S1132A0040EE5DE1BC01CD010E9422122FEF84E370
S1132A109CE0215080409040E1F700C0000082E03B
S1132A2090E00E9403128091710090917200A09135
S1132A307300B09174004CEE5CE1BC01CD010E94C6
S1132A4022122FEF84E39CE0215080409040E1F774
S1132A5000C0000081E090E00E94031280916D00AC
S1132A6090916E00A0916F00B09170004CEE5AE10D
S1132A70BC01CD010E9422122FEF83ED90E321507F
S1132A8080409040E1F700C0000083E090E00E94A5
S1132A9003120E94D11180E00E941A1081E090E09C
S1132AA00E94031280E00E94371180916900909186
S1132AB06A00A0916B00B0916C004CEE58E1BC012F
S1132AC0CD010E9422122FEF89E698E12150804027
S1132AD09040E1F700C000000E944F0F83E390E0B4
S1132AE00E94A61478940E94720F0E940A100E94F9
S1132AF038138130C1F70E945514F5CF5058BB27C5
S1132B00AA270ED04DC13ED130F043D120F031F48C
S1132B109F3F11F41EF433C10EF4E095E7FB29C185
S1132B20E92F4FD180F3BA1762077307840795071B
S1132B3018F071F49EF567C10EF4E0950B2EBA2FD0
S1132B40A02D0B01B90190010C01CA01A0011124AF
S1132B50FF27591B99F0593F50F4503E68F11A165B
S1132B60F040A22F232F342F4427585FF3CF4695EC
S1132B7037952795A795F0405395C9F77EF41F160E
S1132B80BA0B620B730B840BBAF09150A1F0FF0FD8
S1132B90BB1F661F771F881FC2F70EC0BA0F621FC4
S1132BA0731F841F48F4879577956795B795F795B4
S1132BB09E3F08F0B3CF9395880F08F09927EE0F46
S1132BC09795879508950CD0EBC0E3D040F0DAD008
S1132BD030F021F45F3F19F0CCC0511115C1CFC0C2
S1132BE0F0D098F39923C9F35523B1F3951B550BF2
S1132BF0BB27AA2762177307840738F09F5F5F4FCC
S1132C00220F331F441FAA1FA9F333D00E2E3AF00C
S1132C10E0E830D091505040E695001CCAF729D026
S1132C20FE2F27D0660F771F881FBB1F2617370775
S1132C304807AB07B0E809F0BB0B802DBF01FF27A5
S1132C4093585F4F2AF09E3F510568F092C0DCC054
S1132C505F3FECF3983EDCF3869577956795B795DF
S1132C60F7959F5FC9F7880F911D9695879597F9FA
S1132C700895E1E0660F771F881FBB1F6217730773
S1132C808407BA0720F0621B730B840BBA0BEE1F88
S1132C9088F7E095089504D06894B111B5C00895FB
S1132CA098D088F09F5790F0B92F9927B751A0F08A
S1132CB0D1F0660F771F881F991F1AF0BA95C9F7CC
S1132CC012C0B13081F09FD0B1E008959CC0672F4D
S1132CD0782F8827B85F39F0B93FCCF3869577957C
S1132CE06795B395D9F73EF4909580957095619565
S1132CF07F4F8F4F9F4F0895E89409C097FB3EF490
S1132D0090958095709561957F4F8F4F9F4F992334
S1132D10A9F0F92F96E9BB279395F69587957795B2
S1132D206795B795F111F8CFFAF4BB0F11F460FF72
S1132D301BC06F5F7F4F8F4F9F4F16C0882311F0CA
S1132D4096E911C0772321F09EE8872F762F05C0DE
S1132D50662371F096E8862F70E060E02AF09A9579
S1132D60660F771F881FDAF7880F9695879597F96E
S1132D70089597F99F6780E870E060E008959FEFF9
S1132D8080EC089500240A941616170618060906FE
S1132D90089500240A9412161306140605060895CD
S1132DA0092E0394000C11F4882352F0BB0F40F455
S1132DB0BF2B11F460FF04C06F5F7F4F8F4F9F4F95
S1132DC0089557FD9058440F551F59F05F3F71F017
S1132DD04795880F97FB991F61F09F3F79F087957E
S1132DE00895121613061406551FF2CF4695F1DF07
S1132DF008C0161617061806991FF1CF8695710597
S1132E00610508940895E894BB2766277727CB01CA
S1132E1097F908950BD0C4CFB5DF28F0BADF18F0C6
S1132E20952309F0A6CFABCF1124EECFCADFA0F3D0
S1132E30959FD1F3950F50E0551F629FF001729F4B
S1132E40BB27F00DB11D639FAA27F00DB11DAA1F6A
S1132E50649F6627B00DA11D661F829F2227B00DB7
S1132E60A11D621F739FB00DA11D621F839FA00D42
S1132E70611D221F749F3327A00D611D231F849F92
S1132E80600D211D822F762F6A2F11249F575040E9
S1132E908AF0E1F088234AF0EE0FFF1FBB1F661F84
S1132EA0771F881F91505040A9F79E3F510570F03D
S1132EB060CFAACF5F3FECF3983EDCF3869577951D
S1132EC06795B795F795E7959F5FC1F7FE2B880F38
S1132ED0911D9695879597F9089597FB072E16F4FB
S1132EE0009407D077FD09D00E94871707FC05D00E
S1132EF03EF4909581959F4F0895709561957F4F0D
S1132F000895EE0FFF1F0590F491E02D0994AA1B7C
S1132F10BB1B51E107C0AA1FBB1FA617B70710F0C0
S1132F20A61BB70B881F991F5A95A9F780959095F2
S10D2F30BC01CD010895F894FFCF11
S1132F3A011400050334000D0384002103F4017D08
S10D2F4A03F4003D0380002003009F
S9030000FC
