:100000000C9430120C944D120C944D120C944D1211
:100010000C944D120C944D120C944D120C944D12E4
:100020000C944D120C944D120C944D120C94051717
:100030000C944D120C944D120C944D120C944D12C4
:100040000C944D120C944D120C944D120C944D12B4
:100050000C944D12A414C214A714AA14AD14B01415
:10006000B314B614B914BC14431646162A162D162A
:1000700030163316361639163C163F1600000000AF
:1000800000000000000000000000000F0F0F0F0F25
:100090000000000000000000000000000000000060
:1000A0000000000000000000000000000000000050
:1000B0000000000000000000000000000000000040
:1000C0000000000000000000000000000000000030
:1000D0000000000000000000000000000000000020
:1000E0000000000000000000000000000000000010
:1000F0000000000000000000000000000000000000
:1001000000000000000000000000000000000000EF
:1001100000000000000000000000000000000000DF
:1001200000000000000000000000000000000000CF
:1001300000000000000000000000000000000000BF
:1001400000000000000000000000000000000000AF
:10015000000000000000000000000000000000009F
:10016000000000000000000000000000000000008F
:10017000000000000000000000000000000000007F
:10018000000000000000000000000000000000006F
:10019000000000000000000000000000000000005F
:1001A000000000000000000000000000000000004F
:1001B000000000000000000000000000000000003F
:1001C000000000000000000000000000000000002F
:1001D000000000000000000000000000000000001F
:1001E000000000000000000000000000000000000F
:1001F00000000000000000000000000000000000FF
:1002000000000000000000000000000000000000EE
:1002100000000000000000000000000000000000DE
:1002200000000000000000000000000000000000CE
:1002300000000000000000000000000000000000BE
:1002400000000000000000000000000000000000AE
:10025000000000000000000000000000000000009E
:10026000000000000000000000000000000000008E
:10027000000000000000000000000000000000F08E
:10028000FCFFFF7F1F07030000E0FCFF7F6F2330B0
:1002900030F8F8FC7C0E000000808080F0FFFF8FBB
:1002A00081000000000000010307070301000000B7
:1002B000000000000000000000000000000000003E
:1002C000000000000000000000000000000000002E
:1002D000000000000000000000000000000000001E
:1002E000000000000000000000000000000000000E
:10067000000000000000000000000000808080807A
:10068000800F0F0F0F0F80808080801F1F1F1F1F84
:10069000000000000000000000000000000000005A
:1006A000000000000000000000000000000000004A
:1006B000000000000000000000000000000000003A
:1006C000000000000000000000000000000000002A
:1006D000000000000000000000000000000000001A
:1006E000000000000000000000000000000000000A
:1006F00000000000000000000000000000000000FA
:1007000000000000000000000000000000000000E9
:1007100000000000000000000000000000000000D9
:1007200000000000000000000000000000000000C9
:1007300000000000000000000000000000000000B9
:1007400000000000000000000000000000000000A9
:100750000000000000000000000000000000000099
:100760000000000000000000000000000000000089
:100770000000000000000000000000000000000079
:100780000000000000000000000000000000000069
:100790000000000000000000000000000000000059
:1007A0000000000000000000000000000000000049
:1007B0000000000000000000000000000000000039
:1007C0000000000000000000000000000000000029
:1007D0000000000000000000000000000000000019
:1007E0000000000000000000000000000000000009
:1007F00000000000000000000000000000000000F9
:1008000000000000000000000000000000000000E8
:1008100000000000000000000000000000000000D8
:1008200000000000000000000000000000000000C8
:1008300000000000000000000000000000000000B8
:1008400000000000000000000000000000000000A8
:100850000000000000000000000000000000000098
:100860000000000000000000000000000000000088
:100870000000000000000000000000000000000078
:10088000000000003C6666666666663C3C6666661E
:100890003E060C383C66663C6666663C7E06060C88
:1008A000181818181C30607C6666663C7E60607C98
:1008B0000606663C0E1E36667F0606067E660C1C25
:1008C0000606663C3C66060C1830607E1838181820
:1008D0001818183C0000FFFFFFFFFFFFFF1F1F1F3E
:1008E0001F1F1F1F1FFFFFFFFFFFFFFF0000000074
:1008F000FFFFFFFFFFFFFFF0F0F0F0F0F0F0F0FF80
:10090000FFFFFFFFFFFF00000000818181818181E7
:10091000818181818181818181FFFFFFFFFFFFFF55
:10092000000000001F1F1F1F1F1F1F1F1F1F1F1F53
:100930001F1F1F1F1F1F1F1F1F1F00000000000081
:1009400000000000000000000000000000000000A7
:100950000000000000000000000000000000000097
:100960000000000000000000000000000000000087
:100970000000000000000000000000000000000077
:100980000000000000000000000000000000000067
:100990000000000000000000000000000000000057
:1009A0000000000000000000000000000000000047
:1009B0000000000000000000000000000000000037
:1009C0000000000000000000000000000000000027
:1009D0000000000000000000000000000000000017
:1009E0000000000000000000000000000000000007
:1009F00000000000000000000000000000000000F7
:100A000000000000000000000000000000000000E6
:100A100000000000000000000000000000000000D6
:100A200000000000000000000000000000000000C6
:100A300000000000000000000000000000000000B6
:100A400000000000000000000000000000000000A6
:100A50000000000000000000000000000000000096
:100A60000000000000000000000000000000000086
:100A70000000000000000000000000000000000076
:100A80000000000000000000000000000000000066
:100A90000000000000000000000000000000000056
:100AA0000000000000000000000000000000000046
:100AB0000000000000000000000000000000000036
:100AC0000000000000000000000000000000000026
:100AD000000000000000FFFFFFFFFFFFFF1F1F1FC0
:100AE0001F1F1F1F1FFFFFFFFFFFFFFF0000000072
:100AF000FFFFFFFFFFFFFFF0F0F0F0F0F0F0F0FF7E
:100B0000FFFFFFFFFFFF00000000FFFFFFFFFFFFF1
:100B1000FF8181818181818181FFFFFFFFFFFFFFD5
:100B2000000000001F1F1F1F1F1F1F1F1F1F1F1F51
:100B30001F1F1F1F1F1F1F1F1F1F0000000000007F
:100B400000000000000000000000000000000000A5
:100B50000000000000000000000000000000000095
:100B60000000000000000000000000000000000085
:100B70000000000000000000000000000000000075
:100B80000000000000000000000000000000000065
:100B90000000000000000000000000000000000055
:100BA0000000000000000000000000000000000045
:100BB0000000000000000000000000000000000035
:100BC0000000000000000000000000000000000025
:100BD0000000000000000000000000000000000015
:100BE0000000000000000000000000000000000005
:100BF00000000000000000000000000000000000F5
:100C000000000000000000000000000000000000E4
:100C100000000000000000000000000000000000D4
:100C200000000000000000000000000000000000C4
:100C300000000000000000000000000000000000B4
:100C400000000000000000000000000000000000A4
:100C50000000000000000000000000000000000094
:100C60000000000000000000000000000000000084
:100C70000000000000000000000000000000000074
:100C80000000000000000000000000000000000064
:100C90000000000000000000000000000000000054
:100CA0000000000000000000000000000000000044
:100CB0000000000000000000000000000000000034
:100CC0000000000000000000000000000000000024
:100CD0000000000000001F1F1F1F1F1F1F1F1F1FDE
:100CE0001F1F1F1FDFFFFFFFFFFFFF3F0000000070
:100CF00000000000000000000000C0F0FCFFFFFF4B
:100D0000FF7F1F0300000000000000000000000043
:100D100000E0F8FEFFFFFFFF3F0F010000000000B2
:100D200000000000000000000000001F1F1F1F1F28
:100D30001F1F000000000000000000000000000075
:100D400000000000000000000000000000000000A3
:100D50000000000000000000000000000000000093
:100D60000000000000000000000000000000000083
:100D70000000000000000000000000000000000073
:100D80000000000000000000000000000000000063
:100D90000000000000000000000000000000000053
:100DA0000000000000000000000000000000000043
:100DB0000000000000000000000000000000000033
:100DC0000000000000000000000000000000000023
:100DD0000000000000000000000000000000000013
:100DE0000000000000000000000000000000000003
:100DF00000000000000000000000000000000000F3
:100E000000000000000000000000000000000000E2
:100E100000000000000000000000000000000000D2
:100E200000000000000000000000000000000000C2
:100E300000000000000000000000000000000000B2
:100E400000000000000000000000000000000000A2
:100E50000000000000000000000000000000000092
:100E60000000000000000000000000000000000082
:100E70000000000000000000000000000000000072
:100E80000000000000000000000000000000000062
:100E90000000000000000000000000000000000052
:100EA0000000000000000000000000000000000042
:100EB0000000000000000000000000000000000032
:100EC0000000000000000000000000000000000022
:100ED000000000000000FFFFFFFFFFFFFF1F1F1FBC
:100EE0001F1F1F1F1F1F1F1F1F1F1F1F000000008E
:100EF000FFFFFFFFFFFFFFF0F0F0F0F0F0F0F0F089
:100F0000F0F0F0F0F0F000000000FFFFFFFFFFFF47
:100F1000FF8181818181818181FFFFFFFFFFFFFFD1
:100F2000000000001F1F1F1F1F1F1F1F1F1F1F1F4D
:100F30001F1F1F1F1F1F1F1F1F1F0000000000007B
:100F400000000000000000000000000000000000A1
:100F50000000000000000000000000000000000091
:100F60000000000000000000000000000000000081
:100F70000000000000000000000000000000000071
:100F80000000000000000000000000000000000061
:100F90000000000000000000000000000000000051
:100FA0000000000000000000000000000000000041
:100FB0000000000000000000000000000000000031
:100FC0000000000000000000000000000000000021
:100FD0000000000000000000000000000000000011
:100FE0000000000000000000000000000000000001
:100FF00000000000000000000000000000000000F1
:1010000000000000000000000000000000000000E0
:1010100000000000000000000000000000000000D0
:1010200000000000000000000000000000000000C0
:1010300000000000000000000000000000000000B0
:1010400000000000000000000000000000000000A0
:101050000000000000000000000000000000000090
:101060000000000000000000000000000000000080
:101070000000000000000000000000000000000070
:101080000000000000000000000000000000000060
:101090000000000000000000000000000000000050
:1010A0000000000000000000000000000000000040
:1010B0000000000000000000000000000000000030
:1010C0000000000000000000000000000000000020
:1010D000000000000000FFFFFFFFFFFFFF1F1F1FBA
:1010E0001F1F1F1F1F1F1F1F1F1F1F1F000000008C
:1010F000FFFFFFFFFFFFFFF0F0F0F0F0F0F0F0F087
:10110000F0F0F0F0F0F00000000081818181818139
:10111000818181818181818181FFFFFFFFFFFFFF4D
:10112000000000001F1F1F1F1F1F1F1F1F1F1F1F4B
:101130001F1F1F1F1F1F1F1F1F1F00000000000079
:10114000000000000000000000000000000000009F
:10115000000000000000000000000000000000008F
:10116000000000000000000000000000000000007F
:10117000000000000000000000000000000000006F
:10118000000000000000000000000000000000005F
:10119000000000000000000000000000000000004F
:1011A000000000000000000000000000000000003F
:1011B000000000000000000000000000000000002F
:1011C000000000000000000000000000000000001F
:1011D000000000000000000000000000000000000F
:1011E00000000000000000000000000000000000FF
:1011F00000000000000000000000000000000000EF
:1012000000000000000000000000000000000000DE
:1012100000000000000000000000000000000000CE
:1012200000000000000000000000000000000000BE
:1012300000000000000000000000000000000000AE
:10124000000000000000000000000000000000009E
:10125000000000000000000000000000000000008E
:10126000000000000000000000000000000000007E
:10127000000000000000000000000000000000006E
:10128000000000000000000000000000000000005E
:10129000000000000000000000000000000000004E
:1012A000000000000000000000000000000000003E
:1012B000000000000000000000000000000000002E
:1012C000000000000000000000000000000000001E
:1012D000000000000000FFFFFFFFFFFFFF00000015
:1012E0000000000000FFFFFFFFFFFFFF0000000005
:1012F000FFFFFFFFFFFFFFC0C0C0C0C0C0C0C0FFF6
:10130000FFFFFFFFFFFF000000000F0F0F0F0F0F89
:101310000F0F0F0F0F0F0F0F0FFFFFFFFFFFFFFF4D
:1013200000000000000000000000000000000000BD
:101330000000001F1F1F1F1F1F1F000000000000D4
:10134000000000000000000000000000000000009D
:10135000000000000000000000000000000000008D
:10136000000000000000000000000000000000007D
:10137000000000000000000000000000000000006D
:10138000000000000000000000000000000000005D
:10139000000000000000000000000000000000004D
:1013A000000000000000000000000000000000003D
:1013B000000000000000000000000000000000002D
:1013C000000000000000000000000000000000001D
:1013D000000000000000000000000000000000000D
:1013E00000000000000000000000000000000000FD
:1013F00000000000000000000000000000000000ED
:1014000000000000000000000000000000000000DC
:1014100000000000000000000000000000000000CC
:1014200000000000000000000000000000000000BC
:1014300000000000000000000000000000000000AC
:10144000000000000000000000000000000000009C
:10145000000000000000000000000000000000008C
:10146000000000000000000000000000000000007C
:10147000000000000000000000000000000000006C
:10148000000000000000000000000000000000005C
:10149000000000000000000000000000000000004C
:1014A000000000000000000000000000000000003C
:1014B000000000000000000000000000000000002C
:1014C000000000000000000000000000000000001C
:1014D000000000000000001F1F1F1F1F1F1F1F1FF5
:1014E0001F9FDFFFFFFFFFFFFFFF7F3F00000000A8
:1014F0000000000000E0F0F8FCFEFFFFFFFFFFFF30
:10150000F7F3F1F0F0F000000000008080808081AF
:10151000818181818181818181FFFFFFFFFFFFFF49
:1015200000000000001F1F1F1F1F1F1F1F1F1F1F66
:101530001F1F1F1F1F1F1F1F1F1F00000000000075
:10154000000000000000000000000000000000009B
:10155000000000000000000000000000000000008B
:10156000000000000000000000000000000000007B
:10157000000000000000000000000000000000006B
:10158000000000000000000000000000000000005B
:10159000000000000000000000000000000000004B
:1015A000000000000000000000000000000000003B
:1015B000000000000000000000000000000000002B
:1015C000000000000000000000000000000000001B
:1015D000000000000000000000000000000000000B
:1015E00000000000000000000000000000000000FB
:1015F00000000000000000000000000000000000EB
:1016000000000000000000000000000000000000DA
:1016100000000000000000000000000000000000CA
:1016200000000000000000000000000000000000BA
:1016300000000000000000000000000000000000AA
:10164000000000000000000000000000000000009A
:10165000000000000000000000000000000000008A
:10166000000000000000000000000000000000007A
:10167000000000000000000000000000000000006A
:10168000000000000000000000000000000000005A
:10169000000000000000000000000000000000004A
:1016A000000000000000000000000000000000003A
:1016B000000000000000000000000000000000002A
:1016C000000000000000000000000000000000001A
:1016D00000000000000000FFFFFFFFFFFFFF1F1FD3
:1016E0001F1F1F1F1FFFFFFFFFFFFFFF0000000066
:1016F00000000000000000000080C0C0E0F0F0FF2B
:10170000FFFFFFFF7F3F0000000000E0F0F0F8FC6B
:10171000FEFEFFFFBF9F9F8F878383818080808035
:1017200000000000001F1F1F1F1F1F1F1F1F1F1F64
:101730001F1F1F1F1F1F1F1F1F1F00000000000073
:101740000000000000000000000000000000000099
:101750000000000000000000000000000000000089
:101760000000000000000000000000000000000079
:101770000000000000000000000000000000000069
:101780000000000000000000000000000000000059
:101790000000000000000000000000000000000049
:1017A0000000000000000000000000000000000039
:1017B0000000000000000000000000000000000029
:1017C0000000000000000000000000000000000019
:1017D0000000000000000000000000000000000009
:1017E00000000000000000000000000000000000F9
:1017F00000000000000000000000000000000000E9
:1018000000000000000000000000000000000000D8
:1018100000000000000000000000000000000000C8
:1018200000000000000000000000000000000000B8
:1018300000000000000000000000000000000000A8
:101840000000000000000000000000000000000098
:101850000000000000000000000000000000000088
:101860000000000000000000000000000000000078
:101870000000000000000000000000000000000068
:101880000000000000000000000000000000000058
:101890000000000000000000000000000000000048
:1018A0000000000000000000000000000000000038
:1018B0000000000000000000000000000000000028
:1018C0000000000000000000000000000000000018
:1018D00000000000000000000000001F1F1FFFFFAD
:1018E000FFFFFFFF000000000000000000000000FC
:1018F0000000000000000000FFFFFFFFFFFF0000EE
:101900000000000000000000000000000000008057
:101910008080FFFFFFFFFFFF80808000000000004D
:101920000000000000000000001F1F1F1F1F1F1FDE
:101930001F1F1F1F1F00000000000000000000000C
:101940000000000000000000000000000000000097
:101950000000000000000000000000000000000087
:101960000000000000000000000000000000000077
:101970000000000000000000000000000000000067
:101980000000000000000000000000000000000057
:101990000000000000000000000000000000000047
:1019A0000000000000000000000000000000000037
:1019B0000000000000000000000000000000000027
:1019C0000000000000000000000000000000000017
:1019D0000000000000000000000000000000000007
:1019E00000000000000000000000000000000000F7
:1019F00000000000000000000000000000000000E7
:101A000000000000000000000000000000000000D6
:101A100000000000000000000000000000000000C6
:101A200000000000000000000000000000000000B6
:101A300000000000000000000000000000000000A6
:101A40000000000000000000000000000000000096
:101A50000000000000000000000000000000000086
:101A60000000000000000000000000000000000076
:101A70000000000000000000000000000000000066
:101A80000000000000000000000000000000000056
:101A90000000000000000000000000000000000046
:101AA0000000000000000000000000000000000036
:101AB0000000000000000000000000000000000026
:101AC0000000000000000000000000000000000016
:101AD000000000000000FFFFFFFFFFFFFFFF1F1FD0
:101AE0001F1F1F1F1FFFFFFFFFFFFFFF0000000062
:101AF000FFFFFFFFFFFFFFFF00000000000000FFEF
:101B0000FFFFFFFFFFFF00000000FFFFFFFFFFFFE1
:101B1000FFFF80808080808080FFFFFFFFFFFFFF4E
:101B2000000000001F1F1F1F1F1F1F1F1F1F1F1F41
:101B30001F1F1F1F1F1F1F1F1F1F0000000000006F
:101B40000000000000000000000000000000000095
:101B50000000000000000000000000000000000085
:101B60000000000000000000000000000000000075
:101B70000000000000000000000000000000000065
:101B80000000000000000000000000000000000055
:101B90000000000000000000000000000000000045
:101BA0000000000000000000000000000000000035
:101BB0000000000000000000000000000000000025
:101BC0000000000000000000000000000000000015
:101BD0000000000000000000000000000000000005
:101BE00000000000000000000000000000000000F5
:101BF00000000000000000000000000000000000E5
:101C000000000000000000000000000000000000D4
:101C100000000000000000000000000000000000C4
:101C200000000000000000000000000000000000B4
:101C300000000000000000000000000000000000A4
:101C40000000000000000000000000000000000094
:101C50000000000000000000000000000000000084
:101C60000000000000000000000000000000000074
:101C70000000000000000000000000000000000064
:101C80000000000000000000000000000000000054
:101C90000000000000000000000000000000000044
:101CA0000000000000000000000000000000000034
:101CB0000000000000000000000000000000000024
:101CC0000000000000000000000000000000000014
:101CD000000000003C6670380E663C007C66667C46
:101CE000606060003C66C0C0CE663C008080808042
:101CF000800F0F0F0F0F80808080801F1F1F1F1FFE
:101D000000000000000000000000000000000000D3
:101D100000000000000000000000000000000000C3
:101D200000000000000000000000000000000000B3
:101D300000000000000000000000000000000000A3
:101D40000000000000000000000000000000000093
:101D50000000000000000000000000000000000083
:101D60000000000000000000000000000000000073
:101D70000000000000000000000000000000000063
:101D80000000000000000000000000000000000053
:101D90000000000000000000000000000000000043
:101DA0000000000000000000000000000000000033
:101DB0000000000000000000000000000000000023
:101DC0000000000000000000000000000000000013
:101DD0000000000000000000000000000000000003
:101DE00000000000000000000000000000000000F3
:101DF00000000000000000000000000000000000E3
:101E000000000000000000000000000000000000D2
:101E100000000000000000000000000000000000C2
:101E200000000000000000000000000000000000B2
:101E300000000000000000000000000000000000A2
:101E40000000000000000000000000000000000092
:101E50000000000000000000000000000000000082
:101E60000000000000000000000000000000000072
:101E70000000000000000000000000000000000062
:101E80000000000000000000000000000000000052
:101E90000000000000000000000000000000000042
:101EA0000000000000000000000000000000000032
:101EB0000000000000000000000000000000000022
:101EC0000000000000000000000000000000000012
:101ED0000000000000000000000000000000000002
:101EE00000000000000000000000000000000000F2
:101EF0000000000000000080000000000000000062
:101F0000C0E070789C0E1723468CD870200000002B
:101F1000000000000004FFDBCD2713090503060CB9
:101F2000183FFEDC9810190E0603010000000000A7
:101F300080C0E030383C4C8C1C3FFF7E0C183038A1
:101F40002C363BFD3E1F0888C848381800000002A8
:101F5000070D183163663C180C07030100000000F0
:101F6000000000000F0C06020155564B2C27100FE5
:101F70000000000000000000000000000000000061
:101F80000000000000000000000000000000000051
:101F90000000000000000000000000000000000041
:101FA0000000000000000000000000000000000031
:101FB0000000000000000000000000000000000021
:101FC0000000000000000000000000000000000011
:101FD0000000000000000000000000000000000001
:101FE00000000000000000000000000000000000F1
:101FF00000000000000000000000000000000000E1
:1020000000000000000000000000000000000000D0
:1020100000000000000000000000000000000000C0
:1020200000000000000000000000000000000000B0
:1020300000000000000000000000000000000000A0
:102040000000000000000000000000000000000090
:102050000000000000000000000000000000000080
:102060000000000000000000000000000000000070
:102070000000000000000000000000000000000060
:102080000000000000000000000000000000000050
:102090000000000000000000000000000000000040
:1020A0000000000000000000000000000000000030
:1020B0000000000000000000000000000000000020
:1020C0000000000000000000000000000000000010
:1020D0000000000000000000000000000000000000
:1020E00000000000000000000000000000000000F0
:1020F000000000000000000080C0F0F8FCFEFFFFC0
:10210000FFFFFFFFFFFFFFFFFFFCF8F0E0C08000D4
:102110000003070F1F3F7FFFFFFFFFFFFFFFFFFED3
:10212000F8E0C08000000000000000000000000097
:102130000080C0E0F0F8FCFEFFFFFFFFFFFF7F3FE5
:102140001F0F0301000080C0E0F8FCFEFEFFFFFF50
:10215000FFFF1F1F1F1F1F1F1F1F1F1FFFFFFFFF4F
:10216000FFFEFEFCFCFCF8F0E00000000000008038
:10217000E0F0F8FCFEFFFFFFFFFFFFFFFF9F8781FE
:1021800081808187BFFFFFFFFFFFFFFFFFFCF8F0AB
:10219000C08000000003071F3F7FFFFFFFFFFFFF1E
:1021A000FFFFFEFCF0E0E08080C0F0F8FCFEFFFFE7
:1021B000FFFFFFFFFF7F3F0F070100000080C0E02F
:1021C000F8FCFEFFFFFFFFFFFF7F7FFFFBF9F8F842
:1021D000F8F8F8F8F8F8F8FE7E7F7F7F7F7F7F7F42
:1021E0003F1F1F1F070300C0E0F8FCFEFFFFFFFFBB
:1021F000FFFFFFFF3F1F1F1F1F1F1F1F1F1F1F1F4F
:102200001F1F1F1F1F1F1F1F3F7FFFFFFFFFFFFF1E
:10221000FEFCF8E0C080000001030F1F3FFFFFFF3E
:10222000FFFFFFFFFFFFFFFFFFFFFF7F7F1F070392
:10223000010000000080E0F8FCFEFFFFFFFFFFFF51
:102240007F1F0F070301000001071F7FFFFFFFFF34
:10225000FFFFFFFFFFFEF8E0C0800000000000006D
:102260000000000303030303030303030303030347
:10227000000000000000000000000000000000005E
:102280000000000000000000010303030303030338
:10229000030303030000000000000001030F1F1FE1
:1022A0003F7F7F3F1F070301000000000000000088
:1022B00002030303030303030303030301000000FA
:1022C00000000000000000000000030303030303FC
:1022D00003030303030303030000000000000000E6
:1022E00000000000000000000000000000000000EE
:1022F00000000000000000000000000000000000DE
:1023000000000080C0E0F07838FCFEFFFFFFFC001A
:102310000183C7FE780383FEFE790383FEFC000081
:1023200000000000000000000000000000000000AD
:1023300000000000008080C0E0E070783C9ECFCFBD
:10234000C30101000000FFFFFFFFFFFF0002038346
:1023500081C0C2C3C1C18003030180C0C0C0C0C06E
:102360008000000000000000000080C0E0F0783C29
:102370001E0F070703091C0EFFFFFFFFFFFF0000F2
:102380000000007F3F1F0F87C31C0E07037F3F3FE6
:102390001F8FC7E30E0E0703FFFFFFFFFFFFFF00C6
:1023A0000000003C1E0F07030101000000000000B8
:1023B0000000000000FFFFFFFFFF7F38381C0E0702
:1023C000FCFEFFFFFF7F381C0E0F78FEFEFFFFFFB5
:1023D0007F3C1C08007FFFFFFFFFFF7F381C0800C9
:1023E000010303030706060E1E1C1C3C787870E0F0
:1023F000E0E0C080808000000000000000000000DD
:10240000000000000000008080808080808080804C
:102410008383878F8FBFFEFCFCF8F0F0C080000044
:1024200000000000000E0F0F0F0F0FEFFFFFFFFF68
:10243000FFFF3F0F0F0F0FCFFFFFFFFFFFFFFE3824
:1024400000000000000000F8F8F8FFFFFFFFFFFFAA
:10245000FFF8F8F8F8FC7F7F7F7F3F1F1F07010020
:1024600011241FBECFE5D4E0DEBFCDBF10E0A0E653
:10247000B0E0ECEFF6E302C005900D92A638B1078C
:10248000D9F722E0A6E8B0E001C01D92A932B20758
:10249000E1F70E9479180C947C1B0C94000086B123
:1024A000876886B917B80895369A3699FECF84B1F1
:1024B00095B10895BC0180E090E00E945D1A2AE980
:1024C00039E941E551E40E94EB1A20E030EC4FE796
:1024D00054E40E94C41920E030E040EC5FE30E9425
:1024E000601908958F929F92AF92BF92CF92DF9220
:1024F000EF92FF92CF93DF938091860090918700B7
:10250000883E934009F072C017B81092870010926D
:10251000860082E090E00E94961588E00E94CA142E
:102520008091650090916600A0916700B09168006D
:102530004CE752E0BC01CD010E94B5150E94541237
:102540000E945A124B015C010E942C1A6B017C0103
:10255000EB018BE50E94CA14B601882777FD8095B0
:10256000982F0E945F1A9B01AC01C501B4010E9423
:102570005F1920E030E040E251E40E94EB1A0E9433
:102580002C1ACB010E9422160E94FC1586E50E949F
:10259000CA148091610090916200A0916300B09193
:1025A00064004CE750E0BC01CD010E94B5158CE3FE
:1025B0000E94CA14CA30D1053CF0C6010A970E9495
:1025C00022160E94FC1505C0C6010E9422160E9418
:1025D000FC1582E20E94CA14CE016AE070E00E94FB
:1025E0004E1BCB010E9422160E94FC158091860092
:1025F0009091870001969093870080938600DF91E9
:10260000CF91FF90EF90DF90CF90BF90AF909F90D1
:102610008F900895C99907C080E090E00E94C5148A
:10262000DC9ADD9808958FE090E00E94C514DD9A51
:10263000DC9808958FEF80938E00809390008093B4
:102640008F0080ED0E94861687E00E94C31683E10A
:102650000E94C3160E94D8160E94D8160895CF93E0
:10266000C82F80ED0E9486168C2F0E94C3160E94F0
:10267000D81681ED0E94861680E00E944F16C82F62
:102680000E94D8168C2FCF910895CF93DF93C82F37
:10269000D62F80ED0E94861681E00E94C3168D2FF2
:1026A0000E94C3168C2F0E94C3160E94D816DF9179
:1026B000CF910895CF93DF9380E00E942F13D82FFE
:1026C000C82FCF7080918E00C81709F46DC080E0CC
:1026D00090E00E949615DD7021F0D43011F0C830E2
:1026E00091F48CE30E94CA148091690090916A0071
:1026F000A0916B00B0916C004CE754E0BC01CD019F
:102700000E94B51511C08CE30E94CA1480916D001F
:1027100090916E00A0916F00B09170004CE756E070
:10272000BC01CD010E94B515C0938E0081E00E94CE
:102730002F13D82FD295DF70C82FCF7080E090E094
:102740000E9496158BE50E94CA148C2F90E00E947F
:1027500022160E94FC1581E40E94CA148D2F8770F6
:1027600090E00E9422160E94FC15C093900082E027
:102770000E942F13D82FD295DF70C82FCF7082E21E
:102780000E94CA148C2F90E00E9422160E94FC1511
:1027900088E00E94CA148D2F837090E00E94221658
:1027A0000E94FC15C0938F00DF91CF9108954836A9
:1027B000D1F58053282F30E06053462F50E0B90107
:1027C000660F771FC901880F991F880F991F880FFF
:1027D000991F860F971F840F951FBC016D5F7F4F58
:1027E0006831710514F045970895BA016D5F7F4F08
:1027F0006A30710574F02F5F3F4FC9018295929541
:10280000907F9827807F982747505109842B952BDC
:102810000895C90182959295907F9827807F982787
:10282000862B972B0895805320E1829FC0011124AD
:102830006053862B0895805308958FB9779BFECF00
:1028400008950F931F93CF93DF93082F162FC498EB
:10285000C3E0D0E0802F0E941D14812F0E941D1420
:1028600021972097B9F7C49ADF91CF911F910F91CB
:10287000089580E58DB981E08EB960E08FE00E9417
:1028800021146FE08AE00E94211467E08BE00E942F
:10289000211460E089E00E94211460E08CE00E9435
:1028A00021140895CF93C1E060E08C2F0E94211481
:1028B000CF5FC930C9F761E08CE00E942114CF914D
:1028C0000895BF92CF92DF92EF92FF920F931F93E2
:1028D000CF93DF936C017B018A01C0E0D0E0C49804
:1028E000BC2EB3948B2D0E941D14F601EC0FFD1F1E
:1028F00084910E941D148B2D0E941D14F701EC0F72
:10290000FD1F84910E941D148B2D0E941D14F8013F
:10291000EC0FFD1F84910E941D14C49A2196C830AB
:10292000D105E9F6DF91CF911F910F91FF90EF90C4
:10293000DF90CF90BF9008958A30910500F5FC019B
:10294000E65DFF4F0C94621B84E898E0089584ECE8
:1029500098E008958CEB98E0089584EB98E0089552
:102960008CEA98E0089584EA98E008958CE998E06C
:10297000089584E998E008958CE898E008958CE73C
:1029800098E008958CEC98E00895682F8AE00E9402
:102990002114089580939100089588E70E94861677
:1029A00080E00E94C3168EEA0E94C31685ED0E9445
:1029B000C31680E80E94C31688EA0E94C3168FE3FC
:1029C0000E94C31683ED0E94C31680E00E94C316C6
:1029D00080E40E94C3168DE80E94C31684E10E9421
:1029E000C31680E20E94C31680E00E94C31681EAEB
:1029F0000E94C31688EC0E94C3168AED0E94C3167B
:102A000082E00E94C31681E80E94C3168FE10E94F3
:102A1000C31689ED0E94C31681EF0E94C3168BED89
:102A20000E94C31680E40E94C31684EA0E94C31663
:102A300086EA0E94C3168EE20E94C3168FEA0E94A5
:102A4000C3160E94D8161092910008950F931F93F9
:102A5000CF93DF93082F162FD42FC22F88E70E9421
:102A6000861680E00E94C31681E20E94C316802F62
:102A70000E94C316812F0E94C3160E94D81688E7B1
:102A80000E94861680E00E94C31682E20E94C3164E
:102A90008D2F0E94C3168C2F0E94C3160E94D81639
:102AA000DF91CF911F910F910895CF93C82F88E7A1
:102AB0000E94861680E00E94C3168C2F0E94C316C7
:102AC0000E94D816CF910895EF92FF920F931F9313
:102AD000CF93DF9327E044E06FE780E00E94261564
:102AE00088E70E94861680E40E94C31604E010E086
:102AF0006894EE24E7F8F12C0BC080E00E94C31626
:102B000021972097D1F7015011090115110519F0EE
:102B1000CE2DDF2DF2CF0E94D81610929100DF91BA
:102B2000CF911F910F91FF90EF9008958130910503
:102B300091F01CF4892B51F008958230910581F0B9
:102B4000039791F488B3876088BB0895C09A88B3CF
:102B5000897F88BB0895C19A88B38A7F88BB08950E
:102B6000C29A88B38C7F88BB08958F929F92AF9250
:102B7000BF92CF92DF92EF92FF92CF93DF93EA0161
:102B8000862E972E3091910024E0290F830F6FEF4E
:102B9000680F44E0832F0E94261588E70E9486165E
:102BA00080E40E94C316AA2497FCA094BA2C18149F
:102BB00019041A041B049CF4C12CD12C7601FE01CB
:102BC000EC0DFD1D84910E94C3168FEFC81AD80A20
:102BD000E80AF80AC814D904EA04FB0484F30E9442
:102BE000D816DF91CF91FF90EF90DF90CF90BF90FC
:102BF000AF909F908F9008950F931F93CF93DF9383
:102C00008C018091910069E1680F27E044E00E9407
:102C1000261588E70E94861680E40E94C316C0E04D
:102C2000D0E0F801EC0FFD1F84910E94C31621969D
:102C3000C836D105B1F70E94D816DF91CF911F9108
:102C40000F9108958A309105E8F4FC01EC5CFF4F88
:102C50000C94621B24ED36E11BC024ED34E118C056
:102C600024ED32E115C024ED30E112C024ED3EE048
:102C70000FC024ED3CE00CC024ED3AE009C024ED87
:102C800038E006C0089524ED3AE102C024ED38E1B1
:102C9000822F932F089581E080B911B8089520E024
:102CA00030E006C02F5F3F4F2C3291E0390719F01A
:102CB00006B607FEF7CF482F417050E00024569526
:102CC00047950794569547950794542F402D44688F
:102CD00046BF06C02F5F3F4F2C3291E0390719F0F5
:102CE00006B607FEF7CF23B191B19C7F9093920077
:102CF000882321F0903531F4822F0895983521F4FE
:102D0000822F0895892F0895892F089594EA96BFF8
:102D100020E030E006C02F5F3F4F2C3291E03907B2
:102D200019F006B607FEF7CF91B19C7F9093920001
:102D3000983049F0903109F506C02F5F3F4F2C3293
:102D400091E0390719F006B607FEF7CF83B984E89A
:102D500086BF06C02F5F3F4F2C3281E0380719F045
:102D600006B607FEF7CF91B19C7F90939200983101
:102D700031F0903431F48FEF0895892F08958FEF5B
:102D80000895892F089583B984E886BF8CE291E085
:102D900003C00197009719F006B607FEFACF91B16C
:102DA0009C7F9093920081E0983209F480E008952E
:102DB00084E986BF8CE291E003C00197009719F087
:102DC00006B604FCFACF089584E38ABB81E08BBB8E
:102DD0008FEB87BB88B318BA14BA15BA11BA12BAF6
:102DE0000895009749F0EFECF7E03197F1F700C054
:102DF000000001970097B9F70895DA9A0E94F1163A
:102E0000DA9808958091890008951F920F920FB665
:102E10000F9211248F9380918A00811104C081E068
:102E20008093890057988F910F900FBE0F901F903D
:102E30001895CF938091A7008134E1F44DE660911D
:102E4000A00080919F000E94D713C82F48E6609190
:102E50009E0080919D000E94D7136C2F0E94451305
:102E600081E0809388008093600084E690E00E9477
:102E7000FD1602C010926000CF9108950F931F932A
:102E8000CF93DF9380919D008C3299F480E090E0A5
:102E90000E949C148C018CE090E00E949C14EC0138
:102EA0008CE090E00E949C14A801BE010E94611475
:102EB00077C0E6E9F0E080E090E09C012F5F3F4FB3
:102EC00041914E3411F0C901F8CF0296FC01EA5647
:102ED000FF4F40814E3229F463C02130310531F576
:102EE0000FC0E3E9F0E020E030E02F5F3F4F0196B4
:102EF0004193DC01AA56BF4F4C914E32B1F7EDCF52
:102F0000809193000E941B1490E00E949C148C01FD
:102F10008CE090E00E949C14EC018CE090E00E9418
:102F20009C14A801BE010E9461143AC022303105F0
:102F3000C9F4809194000E941B1490E00E949C149C
:102F40008C01809193000E941B1490E00E949C14BD
:102F5000EC018CE090E00E949C14A801BE010E944C
:102F600061141EC023303105D9F4809195000E9470
:102F70001B1490E00E949C148C01809194000E948C
:102F80001B1490E00E949C14EC01809193000E941D
:102F90001B1490E00E949C14A801BE010E946114C1
:102FA000DF91CF911F910F910895CF93DF9380917F
:102FB000A7008C3271F481E090E00E9496158BE5B9
:102FC0000E94CA1480E090E00E9422160E94FC1524
:102FD00033C0E6E9F0E0C0E0D0E0CE0101962191F7
:102FE000253411F0EC01F9CFFE01EA56FF4F828142
:102FF000803319F4109260001FC081E0809360005C
:1030000081E090E00E9496158BE50E94CA14CA5692
:10301000DF4F8D810E941B1490E00E9422160E94B7
:10302000FC1581E40E94CA148C810E941B1490E05C
:103030000E9422160E94FC15DF91CF9108951092F4
:103040008C0010928B005F9BFECF81E090E090930C
:103050008C0080938B008CB180939600843231F089
:1030600010928A0010928900579A08955F9BFECFB4
:103070008BB14CB18C7179F480918B0090918C0064
:103080009C012F5F3F4F30938C0020938B00FC01FD
:10309000EA56FF4F40834A3249F780919A008D34B7
:1030A00031F480918800811112C00E94191780911B
:1030B0009A00843531F480916000813041F40E949F
:1030C0003E1780919A00873411F40E94D517109210
:1030D0008A001092890085EA80939600579A089595
:1030E00090BD89B980E98AB91BB886E880BD78941B
:1030F00008950E94E4160E944B1684E690E00E9418
:10310000FD160E9439140E9452148AE00E94C514D0
:10311000C0E0D0E0CE010E949C147C01CE0101975A
:103120000E949C148C01CE0102970E949C14A7015E
:10313000B8010E9461142FEF84E39CE0215080408D
:103140009040E1F700C000002196CA30D10511F788
:1031500044ED5CE16CED7CE184EE9CE10E94611445
:1031600083E090E00E9496150E94CD148FEA0E94A1
:1031700055150E94641580E00E94CA1480E090E01A
:103180000E9496158091810090918200A091830009
:10319000B091840040EE53E2BC01CD010E94B51510
:1031A0002FEF84E39CE0215080409040E1F700C085
:1031B000000082E090E00E94961580917D00909141
:1031C0007E00A0917F00B09180004CEE52E2BC01E5
:1031D000CD010E94B5152FEF84E39CE02150804083
:1031E0009040E1F700C0000081E090E00E94961559
:1031F0008091790090917A00A0917B00B0917C0041
:103200004CEE50E2BC01CD010E94B5152FEF83EDCD
:1032100090E3215080409040E1F700C0000083E03F
:1032200090E00E9496150E94641580E00E941A1397
:1032300081E090E00E94961580E00E94CA1480917F
:10324000750090917600A0917700B09178004CEED7
:103250005EE1BC01CD010E94B5152FEF89E698E132
:10326000215080409040E1F700C0000080E090E0F5
:103270000E9496158CE30E94CA148091710090916F
:103280007200A0917300B09174004CEE5CE1BC013F
:10329000CD010E94B5150E944F1283E390E00E9479
:1032A000701878940E9472120E945A130E940A1396
:1032B0000E9402178130B1F70E941F18F3CF5058B7
:1032C000BB27AA270ED04DC13ED130F043D120F00C
:1032D00031F49F3F11F41EF433C10EF4E095E7FB87
:1032E00029C1E92F4FD180F3BA176207730784070A
:1032F000950718F071F49EF567C10EF4E0950B2E5A
:10330000BA2FA02D0B01B90190010C01CA01A00137
:103310001124FF27591B99F0593F50F4503E68F192
:103320001A16F040A22F232F342F4427585FF3CFD3
:10333000469537952795A795F0405395C9F77EF4A4
:103340001F16BA0B620B730B840BBAF09150A1F0ED
:10335000FF0FBB1F661F771F881FC2F70EC0BA0F73
:10336000621F731F841F48F4879577956795B795FB
:10337000F7959E3F08F0B3CF9395880F08F09927F3
:10338000EE0F9795879508950CD0EBC0E3D040F0F1
:10339000DAD030F021F45F3F19F0CCC0511115C1E3
:1033A000CFC0F0D098F39923C9F35523B1F3951BFF
:1033B000550BBB27AA2762177307840738F09F5F56
:1033C0005F4F220F331F441FAA1FA9F333D00E2EC5
:1033D0003AF0E0E830D091505040E695001CCAF732
:1033E00029D0FE2F27D0660F771F881FBB1F2617F7
:1033F00037074807AB07B0E809F0BB0B802DBF01CA
:10340000FF2793585F4F2AF09E3F510568F092C006
:10341000DCC05F3FECF3983EDCF3869577956795CB
:10342000B795F7959F5FC9F7880F911D969587957A
:1034300097F90895E1E0660F771F881FBB1F621799
:1034400073078407BA0720F0621B730B840BBA0B57
:10345000EE1F88F7E095089504D06894B111B5C0C7
:10346000089598D088F09F5790F0B92F9927B751B9
:10347000A0F0D1F0660F771F881F991F1AF0BA9538
:10348000C9F712C0B13081F09FD0B1E008959CC05F
:10349000672F782F8827B85F39F0B93FCCF386952E
:1034A00077956795B395D9F73EF49095809570958B
:1034B00061957F4F8F4F9F4F0895E89409C097FB08
:1034C0003EF490958095709561957F4F8F4F9F4FFB
:1034D0009923A9F0F92F96E9BB279395F69587953F
:1034E00077956795B795F111F8CFFAF4BB0F11F402
:1034F00060FF1BC06F5F7F4F8F4F9F4F16C08823A9
:1035000011F096E911C0772321F09EE8872F762FDE
:1035100005C0662371F096E8862F70E060E02AF01F
:103520009A95660F771F881FDAF7880F969587950B
:1035300097F9089597F99F6780E870E060E0089533
:103540009FEF80EC089500240A94161617061806BB
:103550000906089500240A94121613061406050697
:103560000895092E0394000C11F4882352F0BB0F28
:1035700040F4BF2B11F460FF04C06F5F7F4F8F4F8B
:103580009F4F089557FD9058440F551F59F05F3FC6
:1035900071F04795880F97FB991F61F09F3F79F075
:1035A00087950895121613061406551FF2CF4695F7
:1035B000F1DF08C0161617061806991FF1CF869579
:1035C0007105610508940895E894BB27662777275D
:1035D000CB0197F908950BD0C4CFB5DF28F0BADF3F
:1035E00018F0952309F0A6CFABCF1124EECFCADF98
:1035F000A0F3959FD1F3950F50E0551F629FF00106
:10360000729FBB27F00DB11D639FAA27F00DB11D5E
:10361000AA1F649F6627B00DA11D661F829F2227E7
:10362000B00DA11D621F739FB00DA11D621F839F6E
:10363000A00D611D221F749F3327A00D611D231F44
:10364000849F600D211D822F762F6A2F11249F5792
:1036500050408AF0E1F088234AF0EE0FFF1FBB1FB5
:10366000661F771F881F91505040A9F79E3F510554
:1036700070F060CFAACF5F3FECF3983EDCF3869505
:1036800077956795B795F795E7959F5FC1F7FE2BFF
:10369000880F911D9695879597F9089597FB072EAA
:1036A00016F4009407D077FD09D00E94681B07FC30
:1036B00005D03EF4909581959F4F08957095619542
:1036C0007F4F0895EE0FFF1F0590F491E02D0994B0
:1036D000AA1BBB1B51E107C0AA1FBB1FA617B70738
:1036E00010F0A61BB70B881F991F5A95A9F7809554
:0C36F0009095BC01CD010895F894FFCF27
:1036FC00011400050334000D031400050314000528
:10370C00031400050384002103F4017D03F4003D40
:06371C0003800020030001
:00000001FF
