:100000000C942A000C943C000C943C000C943C0092
:100010000C943C000C943C000C943C000C943C0070
:100020000C943C000C943C000C943C000C943C0060
:100030000C943C000C943C000C943C000C943C0050
:100040000C943C000C943C000C943C000C943C0040
:100050000C943C0011241FBECFE5D4E0DEBFCDBF21
:1000600020E0A0E6B0E001C01D92A036B207E1F7A3
:100070000E945D000C946D000C94000088E480B92F
:1000800011B8089594EA96BF06B607FEFDCF9AE729
:1000900093B994E896BF06B607FEFDCF83B984E80E
:1000A00086BF06B607FEFDCF63B984E886BF06B6F5
:1000B00007FEFDCF84E986BF089587B3886B87BBB1
:1000C00088B3877488BB80E58DB91EB80E943E0056
:0E00D0006FEA80E00E944200FFCFF894FFCF5D
:00000001FF
