:100000000C94EE0B0C940B0C0C940B0C0C940B0C32
:100010000C940B0C0C940B0C0C940B0C0C940B0C04
:100020000C940B0C0C940B0C0C940B0C0C940B0CF4
:100030000C940B0C0C940B0C0C940B0C0C940B0CE4
:100040000C940B0C0C940B0C0C940B0C0C940B0CD4
:100050000C940B0C970D9A0D7E0D810D840D870D60
:100060008A0D8D0D900D930D010101F8FCFEFEFF30
:10007000FFFF7F3F3F0000FFFFFFFEFEFCF8010196
:1000800001FF0101017FFFFFFFFFFFFFF0E0E00044
:1000900000FFFFFFFFFFFFFF010101FF01010180E2
:1000A0008183838787870707070000FFFFFFFFFF24
:1000B000FFFF010101FF010101031F3F3F7F7F7F20
:1000C0007E7E7C00007F7F7F3F3F1F0F010101FF8D
:1000D0000000000000000000000000000000000020
:1000E0000000000000000000000000000000000010
:1000F0000000000000000000000000000000000000
:1001000000000000000000000000000000000000EF
:1001100000000000000000000000000000000000DF
:1001200000000000000000000000000000000000CF
:1001300000000000000000000000000000000000BF
:1001400000000000000000000000000000000000AF
:10015000000000000000000000000000000000009F
:10016000000000000000000000000000000000008F
:10017000000000000000000000000000000000007F
:10018000000000000000000000000000000000006F
:10019000000000000000000000000000000000005F
:1001A000000000000000000000000000000000004F
:1001B000000000000000000000000000000000003F
:1001C000000000000000000000000000000000002F
:1001D000000000000000000000000000000000001F
:1001E000000000000000000000000000000000000F
:1001F00000000000000000000000000000000000FF
:1002000000000000000000000000000000000000EE
:1002100000000000000000000000000000000000DE
:1002200000000000000000000000000000000000CE
:1002300000000000000000000000000000000000BE
:1002400000000000000000000000000000000000AE
:10025000000000000000000000000000000000009E
:100260000000000000000000010101F8FCFEFEFF9C
:10027000FFFFFF7F3F000000FFFFFEFEFEFCE001EE
:1002800001FF0101011F3F7FFFFFFFFFF8F0E000CA
:100290000000FFFFFFFF7F3F070101FF010101FC9D
:1002A000FEFFFFFFFFFF0F0707000000FFFFFFFF3C
:1002B000FEFCF00101FF0101010F3F3F7F7F7F7FC7
:1002C0007F7E7E0000007F7F7F7F3F1F070101FF51
:1002D000000000000000000000000000000000001E
:1002E000000000000000000000000000000000000E
:1002F00000000000000000000000000000000000FE
:1003000000000000000000000000000000000000ED
:1003100000000000000000000000000000000000DD
:1003200000000000000000000000000000000000CD
:1003300000000000000000000000000000000000BD
:1003400000000000000000000000000000000000AD
:10035000000000000000000000000000000000009D
:10036000000000000000000000000000000000008D
:10037000000000000000000000000000000000007D
:10038000000000000000000000000000000000006D
:10039000000000000000000000000000000000005D
:1003A000000000000000000000000000000000004D
:1003B000000000000000000000000000000000003D
:1003C000000000000000000000000000000000002D
:1003D000000000000000000000000000000000001D
:1003E000000000000000000000000000000000000D
:1003F00000000000000000000000000000000000FD
:1004000000000000000000000000000000000000EC
:1004100000000000000000000000000000000000DC
:1004200000000000000000000000000000000000CC
:1004300000000000000000000000000000000000BC
:1004400000000000000000000000000000000000AC
:10045000000000000000000000000000000000009C
:1004600000000000000000000101013F3F3F3F3F4E
:100470003F3F3F3F3F3F3FFFFFFFFFFFFFFF7F014A
:1004800001FF01010100000000000000000000C0A9
:10049000FCFFFFFFFFFF7F07000101FF01010100DB
:1004A00000000000000000C0FCFFFFFFFFFFFF078F
:1004B0000000000101FF0101010000000000000038
:1004C0007C7F7F7F7F7F7F0F00000000000101FFA6
:1004D000000000000000000000000000000000001C
:1004E000000000000000000000000000000000000C
:1004F00000000000000000000000000000000000FC
:1005000000000000000000000000000000000000EB
:1005100000000000000000000000000000000000DB
:1005200000000000000000000000000000000000CB
:1005300000000000000000000000000000000000BB
:1005400000000000000000000000000000000000AB
:10055000000000000000000000000000000000009B
:10056000000000000000000000000000000000008B
:10057000000000000000000000000000000000007B
:10058000000000000000000000000000000000006B
:10059000000000000000000000000000000000005B
:1005A000000000000000000000000000000000004B
:1005B000000000000000000000000000000000003B
:1005C000000000000000000000000000000000002B
:1005D000000000000000000000000000000000001B
:1005E000000000000000000000000000000000000B
:1005F00000000000000000000000000000000000FB
:1006000000000000000000000000000000000000EA
:1006100000000000000000000000000000000000DA
:1006200000000000000000000000000000000000CA
:1006300000000000000000000000000000000000BA
:1006400000000000000000000000000000000000AA
:10065000000000000000000000000000000000009A
:100660000000000000000000010101F0F8FCFEFEA7
:10067000FFFF00003F3F3FFFFFFFFEFEFCF00101D8
:1006800001FF010101FFFFFFFFFFFFFF0000E0E0AE
:10069000E0E0E1E1E1E1C181010101FF010101FFD0
:1006A000FFFFFFFFFFFF0000030307FFFFFFFFFF48
:1006B000FFFF010101FF010101071F3F7F7F7F7FD6
:1006C00000007C7E7F7F7F7F7F3F3F1F010101FF16
:1006D000000000000000000000000000000000001A
:1006E000000000000000000000000000000000000A
:1006F00000000000000000000000000000000000FA
:1007000000000000000000000000000000000000E9
:1007100000000000000000000000000000000000D9
:1007200000000000000000000000000000000000C9
:1007300000000000000000000000000000000000B9
:1007400000000000000000000000000000000000A9
:100750000000000000000000000000000000000099
:100760000000000000000000000000000000000089
:100770000000000000000000000000000000000079
:100780000000000000000000000000000000000069
:100790000000000000000000000000000000000059
:1007A0000000000000000000000000000000000049
:1007B0000000000000000000000000000000000039
:1007C0000000000000000000000000000000000029
:1007D0000000000000000000000000000000000019
:1007E0000000000000000000000000000000000009
:1007F00000000000000000000000000000000000F9
:1008000000000000000000000000000000000000E8
:1008100000000000000000000000000000000000D8
:1008200000000000000000000000000000000000C8
:1008300000000000000000000000000000000000B8
:1008400000000000000000000000000000000000A8
:100850000000000000000000000000000000000098
:10086000000000000000000001010101FFFFFFFF88
:10087000FFFFFF1F1F1F1F1F1F1F1F1F1F1F010124
:1008800001FF01010101FFFFFFFFFFFFFF00E0E0AB
:10089000E0E0E0E0E0C0C000010101FF0101010172
:1008A000C3C3C3C3C3C303000307079FFFFFFFFF07
:1008B000FFFF010101FF010101010F1F3F7F7F7F4A
:1008C00000007C7E7E7F7F7F7F3F3F1F010101FF15
:1008D0000000000000000000000000000000000018
:1008E0000000000000000000000000000000000008
:1008F00000000000000000000000000000000000F8
:1009000000000000000000000000000000000000E7
:1009100000000000000000000000000000000000D7
:1009200000000000000000000000000000000000C7
:1009300000000000000000000000000000000000B7
:1009400000000000000000000000000000000000A7
:100950000000000000000000000000000000000097
:100960000000000000000000000000000000000087
:100970000000000000000000000000000000000077
:100980000000000000000000000000000000000067
:100990000000000000000000000000000000000057
:1009A0000000000000000000000000000000000047
:1009B0000000000000000000000000000000000037
:1009C0000000000000000000000000000000000027
:1009D0000000000000000000000000000000000017
:1009E0000000000000000000000000000000000007
:1009F00000000000000000000000000000000000F7
:100A000000000000000000000000000000000000E6
:100A100000000000000000000000000000000000D6
:100A200000000000000000000000000000000000C6
:100A300000000000000000000000000000000000B6
:100A400000000000000000000000000000000000A6
:100A50000000000000000000000000000000000096
:100A6000000000000000000001010000000000C0C4
:100A7000F0FCFC000000FFFFFFFFFFFFFF00000095
:100A800001FF010100C0F0FCFFFFFFFF7F0000003D
:100A9000FFFFFFFFFFFFFF00000001FF0101FFFF5D
:100AA000FFFFFFFFFFFBF8000000FFFFFFFFFFFF5E
:100AB000FFF8F8F801FF0101010101010101010145
:100AC000010000007F7F7F7F7F7F7F01010101FFA9
:100AD0000000000000000000000000000000000016
:100AE0000000000000000000000000000000000006
:100AF00000000000000000000000000000000000F6
:100B000000000000000000000000000000000000E5
:100B100000000000000000000000000000000000D5
:100B200000000000000000000000000000000000C5
:100B300000000000000000000000000000000000B5
:100B400000000000000000000000000000000000A5
:100B50000000000000000000000000000000000095
:100B60000000000000000000000000000000000085
:100B70000000000000000000000000000000000075
:100B80000000000000000000000000000000000065
:100B90000000000000000000000000000000000055
:100BA0000000000000000000000000000000000045
:100BB0000000000000000000000000000000000035
:100BC0000000000000000000000000000000000025
:100BD0000000000000000000000000000000000015
:100BE0000000000000000000000000000000000005
:100BF00000000000000000000000000000000000F5
:100C000000000000000000000000000000000000E4
:100C100000000000000000000000000000000000D4
:100C200000000000000000000000000000000000C4
:100C300000000000000000000000000000000000B4
:100C400000000000000000000000000000000000A4
:100C50000000000000000000000000000000000094
:100C60000000000000000000010101013F3F3F3F84
:100C70003F3F3F3F3F3F0080FFFFFFFFFFFF01017E
:100C800001FF01010101000000000000F0F8FCFE7E
:100C9000FFFFFFFFFFC7C381010101FF0101010148
:100CA00000808080808083030303070FFFFFFFFF26
:100CB000FFFF010101FF01010101000F3F3F7F7FA5
:100CC0007F7E7E7C00007F7F7F3F3F1F010101FF11
:100CD0000000000000000000000000000000000014
:100CE0000000000000000000000000000000000004
:100CF00000000000000000000000000000000000F4
:100D000000000000000000000000000000000000E3
:100D100000000000000000000000000000000000D3
:100D200000000000000000000000000000000000C3
:100D300000000000000000000000000000000000B3
:100D400000000000000000000000000000000000A3
:100D50000000000000000000000000000000000093
:100D60000000000000000000000000000000000083
:100D70000000000000000000000000000000000073
:100D80000000000000000000000000000000000063
:100D90000000000000000000000000000000000053
:100DA0000000000000000000000000000000000043
:100DB0000000000000000000000000000000000033
:100DC0000000000000000000000000000000000023
:100DD0000000000000000000000000000000000013
:100DE0000000000000000000000000000000000003
:100DF00000000000000000000000000000000000F3
:100E000000000000000000000000000000000000E2
:100E100000000000000000000000000000000000D2
:100E200000000000000000000000000000000000C2
:100E300000000000000000000000000000000000B2
:100E400000000000000000000000000000000000A2
:100E50000000000000000000000000000000000092
:100E60000000000000000000010101F8FCFEFEFF90
:100E7000FFFF7F3F1F1F3F3FFFFFFFFFFEFC000103
:100E800001FF01010101010100000000000000005C
:100E90000000FFFFFFFF7F3F000101FF0101010094
:100EA0000080C0E0F0F8FCFEFFFF00000707030130
:100EB0000000000101FF010101007F7F7F7F7F7F34
:100EC0007F7F7F7F7E7E7E7E7E7E7E7E7E0101FFB7
:100ED0000000000000000000000000000000000012
:100EE0000000000000000000000000000000000002
:100EF00000000000000000000000000000000000F2
:100F000000000000000000000000000000000000E1
:100F100000000000000000000000000000000000D1
:100F200000000000000000000000000000000000C1
:100F300000000000000000000000000000000000B1
:100F400000000000000000000000000000000000A1
:100F50000000000000000000000000000000000091
:100F60000000000000000000000000000000000081
:100F70000000000000000000000000000000000071
:100F80000000000000000000000000000000000061
:100F90000000000000000000000000000000000051
:100FA0000000000000000000000000000000000041
:100FB0000000000000000000000000000000000031
:100FC0000000000000000000000000000000000021
:100FD0000000000000000000000000000000000011
:100FE0000000000000000000000000000000000001
:100FF00000000000000000000000000000000000F1
:1010000000000000000000000000000000000000E0
:1010100000000000000000000000000000000000D0
:1010200000000000000000000000000000000000C0
:1010300000000000000000000000000000000000B0
:1010400000000000000000000000000000000000A0
:101050000000000000000000000000000000000090
:10106000000000000000000001010101010101C0B9
:10107000C0E0E0F0F8FFFFFFFFFFFF010101010109
:1010800001FF010101010101010F0F0F0F0F0FFF00
:10109000FFFFFFFFFF010101010101FF010101014C
:1010A000010101000000000000FFFFFFFFFFFF0142
:1010B0000101010101FF0101010101010100000025
:1010C0000000007F7F7F7F7F7F010101010101FF21
:1010D0000000000000000000000000000000000010
:1010E0000000000000000000000000000000000000
:1010F00000000000000000000000000000000000F0
:1011000000000000000000000000000000000000DF
:1011100000000000000000000000000000000000CF
:1011200000000000000000000000000000000000BF
:1011300000000000000000000000000000000000AF
:10114000000000000000000000000000000000009F
:10115000000000000000000000000000000000008F
:10116000000000000000000000000000000000007F
:10117000000000000000000000000000000000006F
:10118000000000000000000000000000000000005F
:10119000000000000000000000000000000000004F
:1011A000000000000000000000000000000000003F
:1011B000000000000000000000000000000000002F
:1011C000000000000000000000000000000000001F
:1011D000000000000000000000000000000000000F
:1011E00000000000000000000000000000000000FF
:1011F00000000000000000000000000000000000EF
:1012000000000000000000000000000000000000DE
:1012100000000000000000000000000000000000CE
:1012200000000000000000000000000000000000BE
:1012300000000000000000000000000000000000AE
:10124000000000000000000000000000000000009E
:10125000000000000000000000000000000000008E
:10126000000000000000000001010101F0FCFEFE92
:10127000FFFFFF7F3F3F0000FFFFFEFEFCF001018C
:1012800001FF01010101FFFFFFFFFFFFFF00000061
:101290000000FFFFFFFFFFFF010101FF010101014E
:1012A000FFFFFFFFFFFFFF0000000000FFFFFFFF49
:1012B000FFFF010101FF010101011F3F7F7F7F7FD0
:1012C0007F7E7C7C00007F7F7F7F3F1F010101FFCD
:1012D000000000000000000000000000000000000E
:1012E00000000000000000000000000000000000FE
:1012F00000000000000000000000000000000000EE
:1013000000000000000000000000000000000000DD
:1013100000000000000000000000000000000000CD
:1013200000000000000000000000000000000000BD
:1013300000000000000000000000000000000000AD
:10134000000000000000000000000000000000009D
:10135000000000000000000000000000000000008D
:10136000000000000000000000000000000000007D
:10137000000000000000000000000000000000006D
:10138000000000000000000000000000000000005D
:10139000000000000000000000000000000000004D
:1013A000000000000000000000000000000000003D
:1013B000000000000000000000000000000000002D
:1013C000000000000000000000000000000000001D
:1013D000000000000000000000000000000000000D
:1013E00000000000000000000000000000000000FD
:1013F00000000000000000000000000000000000ED
:1014000000000000000000000000000000000000DC
:1014100000000000000000000000000000000000CC
:1014200000000000000000000000000000000000BC
:1014300000000000000000000000000000000000AC
:10144000000000000000000000000000000000009C
:10145000000000000000000000000000000000008C
:10146000000000000000000000000000000000007C
:101470000000000080C0F0F8FCFEFFFFFFFFFFFF50
:10148000FFFFFFFFFFFCF8F0E0C080000003070F44
:101490001F3F7FFFFFFFFFFFFFFFFFFEF8E0C08061
:1014A0000000000000000000000000000080C0E01C
:1014B000F0F8FCFEFFFFFFFFFFFF7F3F1F0F030160
:1014C000000080C0E0F8FCFEFEFFFFFFFFFF1F1FD3
:1014D0001F1F1F1F1F1F1F1FFFFFFFFFFFFEFEFC21
:1014E000FCFCF8F0E000000000000080E0F0F8FCF8
:1014F000FEFFFFFFFFFFFFFFFF9F87818180818746
:10150000BFFFFFFFFFFFFFFFFFFCF8F0C080000000
:101510000003071F3F7FFFFFFFFFFFFFFFFFFEFCF2
:10152000F0E0E08080C0F0F8FCFEFFFFFFFFFFFF6F
:10153000FF7F3F0F070100000080C0E0F8FCFEFFC6
:10154000FFFFFFFFFF7F7FFFFBF9F8F8F8F8F8F8DF
:10155000F8F8F8FE7E7F7F7F7F7F7F7F3F1F1F1F12
:10156000070300C0E0F8FCFEFFFFFFFFFFFFFFFFE7
:101570003F1F1F1F1F1F1F1F1F1F1F1F1F1F1F1F5B
:101580001F1F1F1F3F7FFFFFFFFFFFFFFEFCF8E055
:10159000C080000001030F1F3FFFFFFFFFFFFFFFA1
:1015A000FFFFFFFFFFFFFF7F7F1F0703010000001A
:1015B0000080E0F8FCFEFFFFFFFFFFFF7F1F0F072B
:1015C0000301000001071F7FFFFFFFFFFFFFFFFF79
:1015D000FFFEF8E0C08000000000000000000003F3
:1015E00003030303030303030303030300000000D7
:1015F00000000000000000000000000000000000EB
:1016000000000000010303030303030303030303B8
:101610000000000000000001030F1F1F3F7F7F3FFD
:101620001F07030100000000000000000203030385
:101630000303030303030303010000000000000091
:10164000000000000000030303030303030303037C
:10165000030303030000000000000000000000007E
:10166000000000000000000000000000000000007A
:1016700000000000000000000000000000000080EA
:10168000C0E0F07838FCFEFFFFFFFC000183C7FEDE
:10169000780383FEFE790383FEFC00000000000057
:1016A000000000000000000000000000000000003A
:1016B000008080C0E0E070783C9ECFCFC301010085
:1016C0000000FFFFFFFFFFFF0002038381C0C2C3D2
:1016D000C1C18003030180C0C0C0C0C08000000041
:1016E00000000000000080C0E0F0783C1E0F0707FB
:1016F00003091C0EFFFFFFFFFFFF00000000007F3B
:101700003F1F0F87C31C0E07037F3F3F1F8FC7E399
:101710000E0E0703FFFFFFFFFFFFFF000000003C6E
:101720001E0F070301010000000000000000000080
:1017300000FFFFFFFFFF7F38381C0E07FCFEFFFF96
:10174000FF7F381C0E0F78FEFEFFFFFF7F3C1C085A
:10175000007FFFFFFFFFFF7F381C0800010303032A
:101760000706060E1E1C1C3C787870E0E0E0C08086
:101770008080000000000000000000000000000069
:101780000000008080808080808080808383878FBD
:101790008FBFFEFCFCF8F0F0C080000000000000ED
:1017A000000E0F0F0F0F0FEFFFFFFFFFFFFF3F0FA9
:1017B0000F0F0FCFFFFFFFFFFFFFFE3800000000FD
:1017C000000000F8F8F8FFFFFFFFFFFFFFF8F8F850
:1017D000F8FC7F7F7F7F3F1F1F07010011241FBE82
:1017E000CFE5D4E0DEBFCDBF10E0A0E6B0E0E4E599
:1017F000FEE102C005900D92AC36B107D9F720E0AA
:10180000ACE6B0E001C01D92A537B207E1F70E9437
:101810000D0E0C94280F0C94000080ED0E94CA0D50
:1018200087E00E94F00D83E10E94F00D0E94FF0D01
:1018300080ED0E94CA0D80E00E94F00D80E00E94C1
:10184000F00D0E94FF0D0895CF93C82F80ED0E94E8
:10185000CA0D8C2F0E94F00D0E94FF0D81ED0E9499
:10186000CA0D80E00E94A30DC82F0E94FF0D8C2F8F
:10187000CF91089580936C00089588E70E94CA0D67
:1018800080E00E94F00D8EEA0E94F00D85ED0E942E
:10189000F00D80E80E94F00D88EA0E94F00D8FE3C1
:1018A0000E94F00D83ED0E94F00D80E00E94F00D8B
:1018B00080E40E94F00D8DE80E94F00D84E10E940A
:1018C000F00D80E20E94F00D80E00E94F00D81EAB0
:1018D0000E94F00D88EC0E94F00D8AED0E94F00D40
:1018E00082E00E94F00D81E80E94F00D8FE80E94D6
:1018F000F00D89ED0E94F00D81EF0E94F00D8BED4F
:101900000E94F00D80E40E94F00D84EA0E94F00D28
:1019100086EA0E94F00D8EE20E94F00D8FEA0E948E
:10192000F00D0E94FF0D10926C0008950F931F930D
:10193000CF93DF93082F162FD42FC22F88E70E9452
:10194000CA0D80E00E94F00D81E20E94F00D802F10
:101950000E94F00D812F0E94F00D0E94FF0D88E77C
:101960000E94CA0D80E00E94F00D82E20E94F00DFC
:101970008D2F0E94F00D8C2F0E94F00D0E94FF0D04
:10198000DF91CF911F910F910895EF92FF920F93E6
:101990001F93CF93DF9327E044E06FE780E00E943E
:1019A000960C88E70E94CA0D80E40E94F00D04E0C6
:1019B00010E06894EE24E7F8F12C0BC080E00E9460
:1019C000F00D21972097D1F701501109011511054C
:1019D00019F0CE2DDF2DF2CF0E94FF0D10926C007A
:1019E000DF91CF911F910F91FF90EF90089581307B
:1019F000910569F08230910519F0892B51F404C0EA
:101A000088B3836088BB0895C09AC1980895C19A2D
:101A1000C09808958F929F92AF92BF92CF92DF921B
:101A2000EF92FF92CF93DF93EA01862E972E1092CA
:101A30006C0024E0290F6FEF680F44E080E00E9403
:101A4000960C88E70E94CA0D80E40E94F00DAA243B
:101A500097FCA094BA2C181419041A041B049CF4C3
:101A6000C12CD12C7601FE01EC0DFD1D84910E944C
:101A7000F00D8FEFC81AD80AE80AF80AC814D9047A
:101A8000EA04FB0484F30E94FF0DDF91CF91FF90E5
:101A9000EF90DF90CF90BF90AF909F908F90089580
:101AA0000F931F93CF93DF938C0180916C0069E1BA
:101AB000680F27E044E00E94960C88E70E94CA0D58
:101AC00080E40E94F00DC0E0D0E0F801EC0FFD1FB3
:101AD00084910E94F00D2196C836D105B1F70E947D
:101AE000FF0DDF91CF911F910F9108958A309105DD
:101AF000E8F4FC01E65DFF4F0C94220F28E63EE07F
:101B00001BC028E63CE018C028E63AE015C028E6ED
:101B100038E012C028E636E00FC028E634E00CC0FA
:101B200028E632E009C028E630E006C0089528E63D
:101B300032E102C028E630E1822F932F089581E040
:101B400080B911B8089506B607FEFDCF282F217081
:101B500030E000243695279507943695279507940D
:101B6000322F202D246826BF06B607FEFDCF23B1F5
:101B700091B19C7F90936D00882321F0903531F4D2
:101B8000822F0895983521F4822F0895892F089582
:101B9000892F089594EA96BF06B607FEFDCF91B14E
:101BA0009C7F90936D00983011F0903199F406B6B7
:101BB00007FEFDCF83B984E886BF06B607FEFDCFDA
:101BC00091B19C7F90936D00983131F0903431F455
:101BD0008FEF0895892F08958FEF0895892F089525
:101BE00083B984E886BF06B607FEFDCF91B19C7F1E
:101BF00090936D0081E0983209F480E0089584E9C3
:101C000086BF08951ABA1BBA8FEF87BB88B318BA7C
:101C100014BA15BA11BA12BA08950E94020E0E949F
:101C20009F0D80E00E940D0C82E090E00E94F70C76
:101C30000E943D0C0E94C50C80E090E00E94F70CD1
:101C40008091680090916900A0916A00B0916B004A
:101C50004CE557E1BC01CD010E940A0D2FE38DE058
:101C600093E0215080409040E1F700C0000081E007
:101C700090E00E94F70C8091640090916500A09123
:101C80006600B091670048E656E1BC01CD010E94B4
:101C90000A0D2FE38DE093E0215080409040E1F762
:101CA00000C0000082E090E00E94F70C809160008C
:101CB00090916100A0916200B091630048E654E108
:101CC000BC01CD010E940A0D2FE38DE093E021506D
:101CD00080409040E1F700C0000082E090E00E9468
:101CE000F70C0E94C50C88E70E94CA0D80E00E9494
:101CF000F00D8EEA0E94F00D0E94FF0D82E090E050
:101D00000E94F70C88E00E943A0C80E090E00E946C
:101D1000760D0E94500D82E20E943A0C81E090E024
:101D20000E94760D0E94500D81E40E943A0C82E0E0
:101D300090E00E94760D0E94500D8BE50E943A0CB7
:101D400083E090E00E94760D0E94500D82E090E0CA
:101D50000E94F70C88E00E943A0C84E090E00E9418
:101D6000760D0E94500D82E20E943A0C85E090E0D0
:101D70000E94760D0E94500D81E40E943A0C86E08C
:101D800090E00E94760D0E94500D8BE50E943A0C67
:101D900087E090E00E94760D0E94500D82E090E076
:101DA0000E94F70C88E00E943A0C88E090E00E94C4
:101DB000760D0E94500D82E20E943A0C89E090E07C
:101DC0000E94760D0E94500D88E70E94CA0D80E0A7
:101DD0000E94F00D8FEA0E94F00D0E94FF0D0E94FC
:101DE000C50C80E090E00E94F70CC19A80E00E9450
:101DF000240C80937200282F22952F70277030E0DA
:101E000030937400209373008F7090E090936F0074
:101E100080936E0088E00E943A0C8091730090914C
:101E200074000E94760D0E94500D82E20E943A0CCE
:101E300080916E0090916F000E94760D0E94500D6F
:101E4000C198D3CFEE0FFF1F0590F491E02D0994B8
:041E5000F894FFCF34
:0C1E5400F4017D03F4003D038000200336
:00000001FF
