:100000000C9426100C9443100C9443100C94431041
:100010000C9443100C9443100C9443100C94431014
:100020000C9443100C9443100C9443100C94B6138E
:100030000C9443100C9443100C9443100C944310F4
:100040000C9443100C9443100C9443100C944310E4
:100050000C94431008130B13EF12F212F512F8125E
:10006000FB12FE1201130413000000000000000048
:100070000000000000000000000000000000000080
:100080000000000000000000000000000000000070
:100090000000000000000000000000000000000060
:1000A0000000000000000000000000000000000050
:1000B0000000000000000000000000000000000040
:1000C0000000000000000000000000000000000030
:1000D0000000000000000000000000000000000020
:1000E0000000000000000000000000000000000010
:1000F0000000000000000000000000000000000000
:1001000000000000000000000000000000000000EF
:1001100000000000000000000000000000000000DF
:1001200000000000000000000000000000000000CF
:1001300000000000000000000000000000000000BF
:1001400000000000000000000000000000000000AF
:10015000000000000000000000000000000000009F
:10016000000000000000000000000000000000008F
:10017000000000000000000000000000000000007F
:10018000000000000000000000000000000000006F
:10019000000000000000000000000000000000005F
:1001A000000000000000000000000000000000004F
:1001B000000000000000000000000000000000003F
:1001C000000000000000000000000000000000002F
:1001D000000000000000000000000000000000001F
:1001E000000000000000000000000000000000000F
:1001F00000000000000000000000000000000000FF
:1002000000000000000000000000000000000000EE
:1002100000000000000000000000000000000000DE
:1002200000000000000000000000000000000000CE
:1002300000000000000000000000000000000000BE
:1002400000000000000000000000000000000000AE
:10025000000000000000000000000000000000009E
:10026000000000000000000080808080800F0F0FE1
:100270000F0F80808080801F1F1F1F1F0000000045
:10028000000000000000000000000000000000006E
:10029000000000000000000000000000000000005E
:1002A000000000000000000000000000000000004E
:1002B000000000000000000000000000000000003E
:1002C000000000000000000000000000000000002E
:1002D000000000000000000000000000000000001E
:1002E000000000000000000000000000000000000E
:1002F00000000000000000000000000000000000FE
:1003000000000000000000000000000000000000ED
:1003100000000000000000000000000000000000DD
:1003200000000000000000000000000000000000CD
:1003300000000000000000000000000000000000BD
:1003400000000000000000000000000000000000AD
:10035000000000000000000000000000000000009D
:10036000000000000000000000000000000000008D
:10037000000000000000000000000000000000007D
:10038000000000000000000000000000000000006D
:10039000000000000000000000000000000000005D
:1003A000000000000000000000000000000000004D
:1003B000000000000000000000000000000000003D
:1003C000000000000000000000000000000000002D
:1003D000000000000000000000000000000000001D
:1003E000000000000000000000000000000000000D
:1003F00000000000000000000000000000000000FD
:1004000000000000000000000000000000000000EC
:1004100000000000000000000000000000000000DC
:1004200000000000000000000000000000000000CC
:1004300000000000000000000000000000000000BC
:1004400000000000000000000000000000000000AC
:10045000000000000000000000000000000000009C
:1004600000000000000000000000FFFFFFFFFFFF92
:10047000FF1F1F1F1F1F1F1F1FFFFFFFFFFFFFFF8C
:1004800000000000FFFFFFFFFFFFFFF0F0F0F0F0C3
:10049000F0F0F0FFFFFFFFFFFFFF00000000818191
:1004A00081818181818181818181818181FFFFFFC2
:1004B000FFFFFFFF000000001F1F1F1F1F1F1F1F48
:1004C0001F1F1F1F1F1F1F1F1F1F1F1F1F1F00007A
:1004D000000000000000000000000000000000001C
:1004E000000000000000000000000000000000000C
:1004F00000000000000000000000000000000000FC
:1005000000000000000000000000000000000000EB
:1005100000000000000000000000000000000000DB
:1005200000000000000000000000000000000000CB
:1005300000000000000000000000000000000000BB
:1005400000000000000000000000000000000000AB
:10055000000000000000000000000000000000009B
:10056000000000000000000000000000000000008B
:10057000000000000000000000000000000000007B
:10058000000000000000000000000000000000006B
:10059000000000000000000000000000000000005B
:1005A000000000000000000000000000000000004B
:1005B000000000000000000000000000000000003B
:1005C000000000000000000000000000000000002B
:1005D000000000000000000000000000000000001B
:1005E000000000000000000000000000000000000B
:1005F00000000000000000000000000000000000FB
:1006000000000000000000000000000000000000EA
:1006100000000000000000000000000000000000DA
:1006200000000000000000000000000000000000CA
:1006300000000000000000000000000000000000BA
:1006400000000000000000000000000000000000AA
:10065000000000000000000000000000000000009A
:1006600000000000000000000000FFFFFFFFFFFF90
:10067000FF1F1F1F1F1F1F1F1FFFFFFFFFFFFFFF8A
:1006800000000000FFFFFFFFFFFFFFF0F0F0F0F0C1
:10069000F0F0F0FFFFFFFFFFFFFF00000000FFFF93
:1006A000FFFFFFFFFF8181818181818181FFFFFF4A
:1006B000FFFFFFFF000000001F1F1F1F1F1F1F1F46
:1006C0001F1F1F1F1F1F1F1F1F1F1F1F1F1F000078
:1006D000000000000000000000000000000000001A
:1006E000000000000000000000000000000000000A
:1006F00000000000000000000000000000000000FA
:1007000000000000000000000000000000000000E9
:1007100000000000000000000000000000000000D9
:1007200000000000000000000000000000000000C9
:1007300000000000000000000000000000000000B9
:1007400000000000000000000000000000000000A9
:100750000000000000000000000000000000000099
:100760000000000000000000000000000000000089
:100770000000000000000000000000000000000079
:100780000000000000000000000000000000000069
:100790000000000000000000000000000000000059
:1007A0000000000000000000000000000000000049
:1007B0000000000000000000000000000000000039
:1007C0000000000000000000000000000000000029
:1007D0000000000000000000000000000000000019
:1007E0000000000000000000000000000000000009
:1007F00000000000000000000000000000000000F9
:1008000000000000000000000000000000000000E8
:1008100000000000000000000000000000000000D8
:1008200000000000000000000000000000000000C8
:1008300000000000000000000000000000000000B8
:1008400000000000000000000000000000000000A8
:100850000000000000000000000000000000000098
:10086000000000000000000000001F1F1F1F1F1FCE
:100870001F1F1F1F1F1F1F1FDFFFFFFFFFFFFF3F68
:100880000000000000000000000000000000C0F0B8
:10089000FCFFFFFFFF7F1F030000000000000000BF
:1008A0000000000000E0F8FEFFFFFFFF3F0F010027
:1008B0000000000000000000000000000000001F19
:1008C0001F1F1F1F1F1F000000000000000000006E
:1008D0000000000000000000000000000000000018
:1008E0000000000000000000000000000000000008
:1008F00000000000000000000000000000000000F8
:1009000000000000000000000000000000000000E7
:1009100000000000000000000000000000000000D7
:1009200000000000000000000000000000000000C7
:1009300000000000000000000000000000000000B7
:1009400000000000000000000000000000000000A7
:100950000000000000000000000000000000000097
:100960000000000000000000000000000000000087
:100970000000000000000000000000000000000077
:100980000000000000000000000000000000000067
:100990000000000000000000000000000000000057
:1009A0000000000000000000000000000000000047
:1009B0000000000000000000000000000000000037
:1009C0000000000000000000000000000000000027
:1009D0000000000000000000000000000000000017
:1009E0000000000000000000000000000000000007
:1009F00000000000000000000000000000000000F7
:100A000000000000000000000000000000000000E6
:100A100000000000000000000000000000000000D6
:100A200000000000000000000000000000000000C6
:100A300000000000000000000000000000000000B6
:100A400000000000000000000000000000000000A6
:100A50000000000000000000000000000000000096
:100A600000000000000000000000FFFFFFFFFFFF8C
:100A7000FF1F1F1F1F1F1F1F1F1F1F1F1F1F1F1FA6
:100A800000000000FFFFFFFFFFFFFFF0F0F0F0F0BD
:100A9000F0F0F0F0F0F0F0F0F0F000000000FFFFF8
:100AA000FFFFFFFFFF8181818181818181FFFFFF46
:100AB000FFFFFFFF000000001F1F1F1F1F1F1F1F42
:100AC0001F1F1F1F1F1F1F1F1F1F1F1F1F1F000074
:100AD0000000000000000000000000000000000016
:100AE0000000000000000000000000000000000006
:100AF00000000000000000000000000000000000F6
:100B000000000000000000000000000000000000E5
:100B100000000000000000000000000000000000D5
:100B200000000000000000000000000000000000C5
:100B300000000000000000000000000000000000B5
:100B400000000000000000000000000000000000A5
:100B50000000000000000000000000000000000095
:100B60000000000000000000000000000000000085
:100B70000000000000000000000000000000000075
:100B80000000000000000000000000000000000065
:100B90000000000000000000000000000000000055
:100BA0000000000000000000000000000000000045
:100BB0000000000000000000000000000000000035
:100BC0000000000000000000000000000000000025
:100BD0000000000000000000000000000000000015
:100BE0000000000000000000000000000000000005
:100BF00000000000000000000000000000000000F5
:100C000000000000000000000000000000000000E4
:100C100000000000000000000000000000000000D4
:100C200000000000000000000000000000000000C4
:100C300000000000000000000000000000000000B4
:100C400000000000000000000000000000000000A4
:100C50000000000000000000000000000000000094
:100C600000000000000000000000FFFFFFFFFFFF8A
:100C7000FF1F1F1F1F1F1F1F1F1F1F1F1F1F1F1FA4
:100C800000000000FFFFFFFFFFFFFFF0F0F0F0F0BB
:100C9000F0F0F0F0F0F0F0F0F0F0000000008181F2
:100CA00081818181818181818181818181FFFFFFBA
:100CB000FFFFFFFF000000001F1F1F1F1F1F1F1F40
:100CC0001F1F1F1F1F1F1F1F1F1F1F1F1F1F000072
:100CD0000000000000000000000000000000000014
:100CE0000000000000000000000000000000000004
:100CF00000000000000000000000000000000000F4
:100D000000000000000000000000000000000000E3
:100D100000000000000000000000000000000000D3
:100D200000000000000000000000000000000000C3
:100D300000000000000000000000000000000000B3
:100D400000000000000000000000000000000000A3
:100D50000000000000000000000000000000000093
:100D60000000000000000000000000000000000083
:100D70000000000000000000000000000000000073
:100D80000000000000000000000000000000000063
:100D90000000000000000000000000000000000053
:100DA0000000000000000000000000000000000043
:100DB0000000000000000000000000000000000033
:100DC0000000000000000000000000000000000023
:100DD0000000000000000000000000000000000013
:100DE0000000000000000000000000000000000003
:100DF00000000000000000000000000000000000F3
:100E000000000000000000000000000000000000E2
:100E100000000000000000000000000000000000D2
:100E200000000000000000000000000000000000C2
:100E300000000000000000000000000000000000B2
:100E400000000000000000000000000000000000A2
:100E50000000000000000000000000000000000092
:100E600000000000000000000000FFFFFFFFFFFF88
:100E7000FF0000000000000000FFFFFFFFFFFFFF7A
:100E800000000000FFFFFFFFFFFFFFC0C0C0C0C0A9
:100E9000C0C0C0FFFFFFFFFFFFFF000000000F0FFB
:100EA0000F0F0F0F0F0F0F0F0F0F0F0F0FFFFFFF82
:100EB000FFFFFFFF00000000000000000000000036
:100EC000000000000000001F1F1F1F1F1F1F000049
:100ED0000000000000000000000000000000000012
:100EE0000000000000000000000000000000000002
:100EF00000000000000000000000000000000000F2
:100F000000000000000000000000000000000000E1
:100F100000000000000000000000000000000000D1
:100F200000000000000000000000000000000000C1
:100F300000000000000000000000000000000000B1
:100F400000000000000000000000000000000000A1
:100F50000000000000000000000000000000000091
:100F60000000000000000000000000000000000081
:100F70000000000000000000000000000000000071
:100F80000000000000000000000000000000000061
:100F90000000000000000000000000000000000051
:100FA0000000000000000000000000000000000041
:100FB0000000000000000000000000000000000031
:100FC0000000000000000000000000000000000021
:100FD0000000000000000000000000000000000011
:100FE0000000000000000000000000000000000001
:100FF00000000000000000000000000000000000F1
:1010000000000000000000000000000000000000E0
:1010100000000000000000000000000000000000D0
:1010200000000000000000000000000000000000C0
:1010300000000000000000000000000000000000B0
:1010400000000000000000000000000000000000A0
:101050000000000000000000000000000000000090
:1010600000000000000000000000001F1F1F1F1FE5
:101070001F1F1F1F1F9FDFFFFFFFFFFFFFFF7F3FA0
:10108000000000000000000000E0F0F8FCFEFFFFA0
:10109000FFFFFFFFF7F3F1F0F0F000000000008029
:1010A00080808081818181818181818181FFFFFFB9
:1010B000FFFFFFFF00000000001F1F1F1F1F1F1F5B
:1010C0001F1F1F1F1F1F1F1F1F1F1F1F1F1F00006E
:1010D0000000000000000000000000000000000010
:1010E0000000000000000000000000000000000000
:1010F00000000000000000000000000000000000F0
:1011000000000000000000000000000000000000DF
:1011100000000000000000000000000000000000CF
:1011200000000000000000000000000000000000BF
:1011300000000000000000000000000000000000AF
:10114000000000000000000000000000000000009F
:10115000000000000000000000000000000000008F
:10116000000000000000000000000000000000007F
:10117000000000000000000000000000000000006F
:10118000000000000000000000000000000000005F
:10119000000000000000000000000000000000004F
:1011A000000000000000000000000000000000003F
:1011B000000000000000000000000000000000002F
:1011C000000000000000000000000000000000001F
:1011D000000000000000000000000000000000000F
:1011E00000000000000000000000000000000000FF
:1011F00000000000000000000000000000000000EF
:1012000000000000000000000000000000000000DE
:1012100000000000000000000000000000000000CE
:1012200000000000000000000000000000000000BE
:1012300000000000000000000000000000000000AE
:10124000000000000000000000000000000000009E
:10125000000000000000000000000000000000008E
:101260000000000000000000000000FFFFFFFFFF83
:10127000FFFF1F1F1F1F1F1F1FFFFFFFFFFFFFFF9E
:101280000000000000000000000000000080C0C05E
:10129000E0F0F0FFFFFFFFFF7F3F0000000000E0F5
:1012A000F0F0F8FCFEFEFFFFBF9F9F8F87838381D6
:1012B0008080808000000000001F1F1F1F1F1F1F55
:1012C0001F1F1F1F1F1F1F1F1F1F1F1F1F1F00006C
:1012D000000000000000000000000000000000000E
:1012E00000000000000000000000000000000000FE
:1012F00000000000000000000000000000000000EE
:1013000000000000000000000000000000000000DD
:1013100000000000000000000000000000000000CD
:1013200000000000000000000000000000000000BD
:1013300000000000000000000000000000000000AD
:10134000000000000000000000000000000000009D
:10135000000000000000000000000000000000008D
:10136000000000000000000000000000000000007D
:10137000000000000000000000000000000000006D
:10138000000000000000000000000000000000005D
:10139000000000000000000000000000000000004D
:1013A000000000000000000000000000000000003D
:1013B000000000000000000000000000000000002D
:1013C000000000000000000000000000000000001D
:1013D000000000000000000000000000000000000D
:1013E00000000000000000000000000000000000FD
:1013F00000000000000000000000000000000000ED
:1014000000000000000000000000000000000000DC
:1014100000000000000000000000000000000000CC
:1014200000000000000000000000000000000000BC
:1014300000000000000000000000000000000000AC
:10144000000000000000000000000000000000009C
:10145000000000000000000000000000000000008C
:101460000000000000000000000000000000001F5D
:101470001F1FFFFFFFFFFFFF000000000000000034
:10148000000000000000000000000000FFFFFFFF60
:10149000FFFF00000000000000000000000000004E
:1014A000000000808080FFFFFFFFFFFF8080800042
:1014B000000000000000000000000000001F1F1FCF
:1014C0001F1F1F1F1F1F1F1F1F0000000000000005
:1014D000000000000000000000000000000000000C
:1014E00000000000000000000000000000000000FC
:1014F00000000000000000000000000000000000EC
:1015000000000000000000000000000000000000DB
:1015100000000000000000000000000000000000CB
:1015200000000000000000000000000000000000BB
:1015300000000000000000000000000000000000AB
:10154000000000000000000000000000000000009B
:10155000000000000000000000000000000000008B
:10156000000000000000000000000000000000007B
:10157000000000000000000000000000000000006B
:10158000000000000000000000000000000000005B
:10159000000000000000000000000000000000004B
:1015A000000000000000000000000000000000003B
:1015B000000000000000000000000000000000002B
:1015C000000000000000000000000000000000001B
:1015D000000000000000000000000000000000000B
:1015E00000000000000000000000000000000000FB
:1015F00000000000000000000000000000000000EB
:1016000000000000000000000000000000000000DA
:1016100000000000000000000000000000000000CA
:1016200000000000000000000000000000000000BA
:1016300000000000000000000000000000000000AA
:10164000000000000000000000000000000000009A
:10165000000000000000000000000000000000008A
:1016600000000000000000000000FFFFFFFFFFFF80
:10167000FFFF1F1F1F1F1F1F1FFFFFFFFFFFFFFF9A
:1016800000000000FFFFFFFFFFFFFFFF0000000062
:10169000000000FFFFFFFFFFFFFF00000000FFFF53
:1016A000FFFFFFFFFFFF80808080808080FFFFFFC3
:1016B000FFFFFFFF000000001F1F1F1F1F1F1F1F36
:1016C0001F1F1F1F1F1F1F1F1F1F1F1F1F1F000068
:1016D000000000000000000000000000000000000A
:1016E00000000000000000000000000000000000FA
:1016F00000000000000000000000000000000000EA
:1017000000000000000000000000000000000000D9
:1017100000000000000000000000000000000000C9
:1017200000000000000000000000000000000000B9
:1017300000000000000000000000000000000000A9
:101740000000000000000000000000000000000099
:101750000000000000000000000000000000000089
:101760000000000000000000000000000000000079
:101770000000000000000000000000000000000069
:101780000000000000000000000000000000000059
:101790000000000000000000000000000000000049
:1017A0000000000000000000000000000000000039
:1017B0000000000000000000000000000000000029
:1017C0000000000000000000000000000000000019
:1017D0000000000000000000000000000000000009
:1017E00000000000000000000000000000000000F9
:1017F00000000000000000000000000000000000E9
:1018000000000000000000000000000000000000D8
:1018100000000000000000000000000000000000C8
:1018200000000000000000000000000000000000B8
:1018300000000000000000000000000000000000A8
:101840000000000000000000000000000000000098
:101850000000000000000000000000000000000088
:101860000000000000000000000000000000000078
:101870003C6670380E663C007C66667C606060008A
:101880003C66C0C0CE663C003C6666666666663CEA
:101890003C6666663E060C383C66663C6666663CA0
:1018A0007E06060C181818181C30607C6666663CAC
:1018B0007E60607C0606663C0E1E36667F06060667
:1018C0007E660C1C0606663C3C66060C1830607E84
:1018D000183818181818183C80808080800F0F0F57
:1018E0000F0F80808080801F1F1F1F1F00000000BF
:1018F00000000000000000000000000000000000E8
:1019000000000000000000000000000000000000D7
:1019100000000000000000000000000000000000C7
:1019200000000000000000000000000000000000B7
:1019300000000000000000000000000000000000A7
:101940000000000000000000000000000000000097
:101950000000000000000000000000000000000087
:101960000000000000000000000000000000000077
:101970000000000000000000000000000000000067
:101980000000000000000000000000000000000057
:101990000000000000000000000000000000000047
:1019A0000000000000000000000000000000000037
:1019B0000000000000000000000000000000000027
:1019C0000000000000000000000000000000000017
:1019D0000000000000000000000000000000000007
:1019E00000000000000000000000000000000000F7
:1019F00000000000000000000000000000000000E7
:101A000000000000000000000000000000000000D6
:101A100000000000000000000000000000000000C6
:101A200000000000000000000000000000000000B6
:101A300000000000000000000000000000000000A6
:101A40000000000000000000000000000000000096
:101A50000000000000000000000000000000000086
:101A60000000000000000000000000000000000076
:101A70000000000000000000000000000000000066
:101A80000000000000000000000000000000000056
:101A90000000000000000000000000000000000046
:101AA0000000000000000000000000000000000036
:101AB0000000000000000000000000000000000026
:101AC0000000000000000000000000000000000016
:101AD0000000000000000000000000000000000006
:101AE000000000800000000000000000C0E07078EE
:101AF0009C0E1723468CD8702000000000000000C8
:101B00000004FFDBCD2713090503060C183FFEDC9C
:101B10009810190E060301000000000080C0E0309C
:101B2000383C4C8C1C3FFF7E0C1830382C363BFD6B
:101B30003E1F0888C848381800000002070D1831F9
:101B400063663C180C070301000000000000000061
:101B50000F0C06020155564B2C27100F00000000F9
:101B60000000000000000000000000000000000075
:101B70000000000000000000000000000000000065
:101B80000000000000000000000000000000000055
:101B90000000000000000000000000000000000045
:101BA0000000000000000000000000000000000035
:101BB0000000000000000000000000000000000025
:101BC0000000000000000000000000000000000015
:101BD0000000000000000000000000000000000005
:101BE00000000000000000000000000000000000F5
:101BF00000000000000000000000000000000000E5
:101C000000000000000000000000000000000000D4
:101C100000000000000000000000000000000000C4
:101C200000000000000000000000000000000000B4
:101C300000000000000000000000000000000000A4
:101C40000000000000000000000000000000000094
:101C50000000000000000000000000000000000084
:101C60000000000000000000000000000000000074
:101C70000000000000000000000000000000000064
:101C80000000000000000000000000000000000054
:101C90000000000000000000000000000000000044
:101CA0000000000000000000000000000000000034
:101CB0000000000000000000000000000000000024
:101CC0000000000000000000000000000000000014
:101CD0000000000000000000000000000000000004
:101CE0000000000080C0F0F8FCFEFFFFFFFFFFFFD8
:101CF000FFFFFFFFFFFCF8F0E0C080000003070FCC
:101D00001F3F7FFFFFFFFFFFFFFFFFFEF8E0C080E8
:101D10000000000000000000000000000080C0E0A3
:101D2000F0F8FCFEFFFFFFFFFFFF7F3F1F0F0301E7
:101D3000000080C0E0F8FCFEFEFFFFFFFFFF1F1F5A
:101D40001F1F1F1F1F1F1F1FFFFFFFFFFFFEFEFCA8
:101D5000FCFCF8F0E000000000000080E0F0F8FC7F
:101D6000FEFFFFFFFFFFFFFFFF9F878181808187CD
:101D7000BFFFFFFFFFFFFFFFFFFCF8F0C080000088
:101D80000003071F3F7FFFFFFFFFFFFFFFFFFEFC7A
:101D9000F0E0E08080C0F0F8FCFEFFFFFFFFFFFFF7
:101DA000FF7F3F0F070100000080C0E0F8FCFEFF4E
:101DB000FFFFFFFFFF7F7FFFFBF9F8F8F8F8F8F867
:101DC000F8F8F8FE7E7F7F7F7F7F7F7F3F1F1F1F9A
:101DD000070300C0E0F8FCFEFFFFFFFFFFFFFFFF6F
:101DE0003F1F1F1F1F1F1F1F1F1F1F1F1F1F1F1FE3
:101DF0001F1F1F1F3F7FFFFFFFFFFFFFFEFCF8E0DD
:101E0000C080000001030F1F3FFFFFFFFFFFFFFF28
:101E1000FFFFFFFFFFFFFF7F7F1F070301000000A1
:101E20000080E0F8FCFEFFFFFFFFFFFF7F1F0F07B2
:101E30000301000001071F7FFFFFFFFFFFFFFFFF00
:101E4000FFFEF8E0C080000000000000000000037A
:101E5000030303030303030303030303000000005E
:101E60000000000000000000000000000000000072
:101E70000000000001030303030303030303030340
:101E80000000000000000001030F1F1F3F7F7F3F85
:101E90001F0703010000000000000000020303030D
:101EA0000303030303030303010000000000000019
:101EB0000000000000000303030303030303030304
:101EC0000303030300000000000000000000000006
:101ED0000000000000000000000000000000000002
:101EE0000000000000000000000000000000008072
:101EF000C0E0F07838FCFEFFFFFFFC000183C7FE66
:101F0000780383FEFE790383FEFC000000000000DE
:101F100000000000000000000000000000000000C1
:101F2000008080C0E0E070783C9ECFCFC30101000C
:101F30000000FFFFFFFFFFFF0002038381C0C2C359
:101F4000C1C18003030180C0C0C0C0C080000000C8
:101F500000000000000080C0E0F0783C1E0F070782
:101F600003091C0EFFFFFFFFFFFF00000000007FC2
:101F70003F1F0F87C31C0E07037F3F3F1F8FC7E321
:101F80000E0E0703FFFFFFFFFFFFFF000000003CF6
:101F90001E0F070301010000000000000000000008
:101FA00000FFFFFFFFFF7F38381C0E07FCFEFFFF1E
:101FB000FF7F381C0E0F78FEFEFFFFFF7F3C1C08E2
:101FC000007FFFFFFFFFFF7F381C080001030303B2
:101FD0000706060E1E1C1C3C787870E0E0E0C0800E
:101FE00080800000000000000000000000000000F1
:101FF0000000008080808080808080808383878F45
:102000008FBFFEFCFCF8F0F0C08000000000000074
:10201000000E0F0F0F0F0FEFFFFFFFFFFFFF3F0F30
:102020000F0F0FCFFFFFFFFFFFFFFE380000000084
:10203000000000F8F8F8FFFFFFFFFFFFFFF8F8F8D7
:10204000F8FC7F7F7F7F3F1F1F07010011241FBE09
:10205000CFE5D4E0DEBFCDBF10E0A0E6B0E0ECE01D
:10206000FAE202C005900D92AC37B107D9F720E033
:10207000ACE7B0E001C01D92A338B207E1F70E94BF
:10208000CA130C9404150C9400008FEF80937E000B
:102090008093800080937F0080ED0E944B1387E047
:1020A0000E94881383E10E9488130E949D1380ED93
:1020B0000E944B1380E00E94881380E00E948813E6
:1020C0000E949D130895CF93C82F80ED0E944B135B
:1020D0008C2F0E9488130E949D1381ED0E944B1348
:1020E00080E00E941413C82F0E949D138C2FCF9163
:1020F0000895CF93DF93C82FD62F80ED0E944B1306
:1021000081E00E9488138D2F0E9488138C2F0E94DB
:1021100088130E949D13DF91CF910895CF93DF9391
:1021200080E00E946310D82FC82FCF7080917E006E
:10213000C81709F466C080E090E00E945B12DD7071
:1021400021F0D43011F0C83091F48CE30E948F114B
:102150008091600090916100A0916200B091630055
:1021600048E650E0BC01CD010E947A1211C08CE318
:102170000E948F118091640090916500A09166008B
:10218000B091670048E652E0BC01CD010E947A128E
:10219000C0937E0081E00E946310D82FD295DF703B
:1021A000C82FCF708BE50E948F118C2F90E00E947A
:1021B000E7120E94C11281E40E948F118D2F877057
:1021C00090E00E94E7120E94C112C093800082E05A
:1021D0000E946310D82FD295DF70C82FCF708C2F3C
:1021E00090E00E94E7120E94C11288E00E948F11C5
:1021F0008D2F837090E00E94E7120E94C112C0935D
:102200007F00DF91CF910895C4988FB9779BFECF5F
:1022100008958FB9779BFECFC49A08958FB9779BA5
:10222000FECF08950F931F93CF93DF93082F162FA0
:10223000C3E0D0E0802F0E940411812F0E94091179
:1022400021972097B9F7DF91CF911F910F910895B2
:1022500080E58DB91EB860E08FE00E9412116FE03A
:102260008AE00E94121167E08BE00E94121160E088
:1022700089E00E94121160E08CE00E941211089522
:10228000CF93C1E060E08C2F0E941211CF5FC93064
:10229000C9F761E08CE00E941211CF910895BF92BE
:1022A000CF92DF92EF92FF920F931F93CF93DF9322
:1022B0006C017B018A01C0E0D0E0C498BC2EB394CD
:1022C0008B2D0E940E11F601EC0FFD1F84910E94D0
:1022D0000E118B2D0E940E11F701EC0FFD1F849142
:1022E0000E940E118B2D0E940E11F801EC0FFD1FA4
:1022F00084910E940E11C49A2196C830D105E9F646
:10230000DF91CF911F910F91FF90EF90DF90CF90D1
:10231000BF900895682F8AE00E941211089580935B
:102320008100089588E70E944B1380E00E94881383
:102330008EEA0E94881385ED0E94881380E80E942F
:10234000881388EA0E9488138FE30E94881383ED24
:102350000E94881380E00E94881380E40E94881302
:102360008DE80E94881384E10E94881380E20E9415
:10237000881380E00E94881381EA0E94881388EC09
:102380000E9488138AED0E94881382E00E948813BD
:1023900081E80E9488138FEF0E94881389ED0E94C4
:1023A000881381EF0E9488138BED0E94881380E4CC
:1023B0000E94881384EA0E94881386EA0E94881388
:1023C0008EE20E9488138FEA0E9488130E949D1358
:1023D0001092810008950F931F93CF93DF93082FDE
:1023E000162FD42FC22F88E70E944B1380E00E9443
:1023F000881381E20E948813802F0E948813812F06
:102400000E9488130E949D1388E70E944B1380E06E
:102410000E94881382E20E9488138D2F0E948813E5
:102420008C2F0E9488130E949D13DF91CF911F91E2
:102430000F910895CF93C82F88E70E944B1380E037
:102440000E9488138C2F0E9488130E949D13CF91A5
:102450000895EF92FF920F931F93CF93DF9327E09E
:1024600044E06FE780E00E94EB1188E70E944B1385
:1024700080E40E94881304E010E06894EE24E7F8FA
:10248000F12C0BC080E00E94881321972097D1F790
:10249000015011090115110519F0CE2DDF2DF2CFD4
:1024A0000E949D1310928100DF91CF911F910F9197
:1024B000FF90EF9008958130910591F01CF4892BE5
:1024C00051F008958230910581F0039791F488B31B
:1024D000876088BB0895C09A88B3897F88BB0895B8
:1024E000C19A88B38A7F88BB0895C29A88B38C7FCB
:1024F00088BB08958F929F92AF92BF92CF92DF9246
:10250000EF92FF92CF93DF93EA01862E972E3091C0
:10251000810024E0290F830F6FEF680F44E0832FC1
:102520000E94EB1188E70E944B1380E40E948813FD
:10253000AA2497FCA094BA2C181419041A041B049A
:102540009CF4C12CD12C7601FE01EC0DFD1D849173
:102550000E9488138FEFC81AD80AE80AF80AC8142C
:10256000D904EA04FB0484F30E949D13DF91CF9108
:10257000FF90EF90DF90CF90BF90AF909F908F90A3
:1025800008950F931F93CF93DF938C018091810067
:1025900069E1680F27E044E00E94EB1188E70E94A0
:1025A0004B1380E40E948813C0E0D0E0F801EC0FE8
:1025B000FD1F84910E9488132196C836D105B1F77A
:1025C0000E949D13DF91CF911F910F9108958A3042
:1025D0009105E8F4FC01E65DFF4F0C94FE1428E63B
:1025E00032E11BC028E630E118C028E63EE015C005
:1025F00028E63CE012C028E63AE00FC028E638E0C2
:102600000CC028E636E009C028E634E006C008958C
:1026100028E636E102C028E634E1822F932F0895A0
:1026200081E080B911B8089520E030E006C02F5F46
:102630003F4F2C3291E0390719F006B607FEF7CF6D
:10264000482F417050E000245695479507945695C1
:1026500047950794542F402D446846BF06C02F5F0E
:102660003F4F2C3291E0390719F006B607FEF7CF3D
:1026700023B191B19C7F90938200882321F0903503
:1026800031F4822F0895983521F4822F0895892FEF
:102690000895892F089594EA96BF20E030E006C09F
:1026A0002F5F3F4F2C3291E0390719F006B607FE35
:1026B000F7CF91B19C7F90938200983049F0903190
:1026C00009F506C02F5F3F4F2C3291E0390719F012
:1026D00006B607FEF7CF83B984E886BF06C02F5F32
:1026E0003F4F2C3281E0380719F006B607FEF7CFCE
:1026F00091B19C7F90938200983131F0903431F405
:102700008FEF0895892F08958FEF0895892F0895E9
:1027100083B984E886BF8CE291E003C001970097FB
:1027200019F006B607FEFACF91B19C7F9093820014
:1027300081E0983209F480E0089584E986BF8CE254
:1027400091E003C00197009719F006B604FCFACF98
:10275000089584E08ABB85E08BBB8FEB87BB88B391
:1027600018BA14BA15BA11BA12BA08951F920F9274
:102770000FB60F9211248F9380917D00811104C0B8
:1027800081E080937C0057988F910F900FBE0F903F
:102790001F9018950E94A9130E9410132FEF89E62D
:1027A00098E1215080409040E1F700C00000DA9AA3
:1027B0002FEF89E698E1215080409040E1F700C07A
:1027C0000000DA980E9428110E9440118FE00E94B8
:1027D0008A1140EC58E168EC78E180ED98E10E94C4
:1027E0004F112FEF89E698E1215080409040E1F7AA
:1027F00000C0000048EB58E160EB78E188EA98E11E
:102800000E944F112FEF89E698E1215080409040BF
:10281000E1F700C0000040EA58E168E978E180E9AA
:1028200098E10E944F112FEF81E19AE721508040FB
:102830009040E1F700C0000048E858E1BA0188E69E
:1028400098E10E944F112FEF89E698E121508040D6
:102850009040E1F700C0000040E758E168E778E108
:1028600080E898E10E944F112FEF89E698E121500E
:1028700080409040E1F700C0000083E090E00E94BB
:102880005B120E9492118FEA0E941A120E94291272
:1028900080E00E948F1180E090E00E945B128091A6
:1028A000780090917900A0917A00B0917B004CEC77
:1028B0005FE1BC01CD010E947A122FEF89E698E119
:1028C000215080409040E1F700C0000081E090E09E
:1028D0000E945B128091740090917500A091760027
:1028E000B091770048ED5EE1BC01CD010E947A1203
:1028F0002FEF89E698E1215080409040E1F700C039
:10290000000083E090E00E945B1280917000909143
:102910007100A0917200B091730048ED5CE1BC01C0
:10292000CD010E947A122FEF81E19AE72150804079
:102930009040E1F700C000000E94291280E00E9450
:10294000451068E480E20E94791081E090E00E94E6
:102950005B1280E00E948F1180916C0090916D005D
:10296000A0916E00B0916F0048ED5AE1BC01CD011D
:102970000E947A122FEF89E698E121508040904022
:10298000E1F700C0000080E090E00E945B128CE361
:102990000E948F118091680090916900A0916A0057
:1029A000B0916B0048ED58E1BC01CD010E947A1254
:1029B00080E00E948A110E948E1048EB58E160EA84
:1029C00078E188E898E10E944F112FEF83E294EFBD
:1029D000215080409040E1F700C0000048E858E1F5
:1029E000BA01CA010E944F112FEF83ED90E32150ED
:1029F00080409040E1F700C00000DDCFEE0FFF1FE8
:0C2A00000590F491E02D0994F894FFCFAC
:102A0C0014000503140005031400050384002103BE
:0C2A1C00F4017D03F4003D038000200362
:00000001FF
