S00B00004750532E737265632F
S11300000C942A000C9447000C9447000C9447006D
S11300100C9447000C9447000C9447000C94470040
S11300200C9447000C9447000C9447000C94470030
S11300300C9447000C9447000C9447000C94470020
S11300400C9447000C9447000C9447000C94470010
S11300500C94470011241FBECFE5D4E0DEBFCDBF12
S113006012E0A0E6B0E0E8E7F5E002C005900D92EA
S1130070A634B107D9F722E0A6E4B2E001C01D928C
S1130080AC34B207E1F70E9445020C94BA020C9416
S1130090000088E480B911B888E70E94510180E02B
S11300A00E9473018EEA0E94730185ED0E94730120
S11300B080E80E94730188EA0E9473018FE30E9422
S11300C0730183ED0E94730180E00E94730180E458
S11300D00E9473018DE80E94730184E10E94730100
S11300E080E20E94730180E00E94730181EA0E9411
S11300F0730188EC0E9473018AED0E94730182E00F
S11301000E94730181E80E9473018FE80E947301C9
S113011089ED0E94730181EF0E9473018BED0E94AF
S1130120730180E40E94730184EA0E94730186EAE9
S11301300E9473018EE20E9473018FEA0E94730190
S11301400E94820108950F931F93CF93DF93082F8A
S1130150162FD42FC22F88E70E94510180E00E94FD
S1130160730181E20E947301802F0E947301812F29
S11301700E94730180E00E94730182E20E94730175
S11301808D2F0E9473018C2F0E9473010E948201A3
S1130190DF91CF911F910F910895CF93C82F88E7D6
S11301A00E94510180E00E9473018C2F0E94730110
S11301B00E948201CF910895EF92FF920F931F93B3
S11301C0CF93DF9327E044E06FE780E00E94A30031
S11301D088E70E94510180E40E94730104E010E06A
S11301E06894EE24E7F8F12C0BC080E00E947301C0
S11301F021972097D1F7015011090115110519F024
S1130200CE2DDF2DF2CF0E948201DF91CF911F917D
S11302100F91FF90EF9008950F931F93CF93DF9367
S1130220109246028EEA0E94CD0060914602615E01
S11302306093460227E044E080E00E94A30088E740
S11302400E94510180E40E947301C2E6D1E002EEF3
S113025011E089910E947301C017D107D1F70E9460
S113026082018FEA0E94CD0027E044E066E68AE23C
S11302700E94A30088E70E94510180E40E94730158
S1130280C0E6D0E000E511E089910E947301C01737
S1130290D107D1F70E948201DF91CF911F910F9175
S11302A0089594EA96BF06B607FEFDCF91B1987FF4
S11302B090934702983011F0903189F483B984E81F
S11302C086BF06B607FEFDCF91B1987F9093470293
S11302D0983139F081E0903429F480E0089581E088
S11302E0089580E0089583B984E886BF06B607FEC2
S11302F0FDCF91B1987F9093470281E0983209F441
S113030080E0089584E986BF06B604FCFDCF089515
S11303108091490290914A02039708F042C04FE04D
S1130320ECE071E03AE06BE027E059E0C4984FB9A3
S1130330779BFECF1FB8779BFECFC49AC498EFB9C2
S1130340779BFECF7FB9779BFECFC49AC4983FB901
S1130350779BFECF4FB9779BFECFC49AC4986FB9F1
S1130360779BFECF2FB9779BFECFC49AC4985FB911
S1130370779BFECF1FB8779BFECFC49AC4983FB932
S1130380779BFECF2FB9779BFECFC49A8091490209
S113039090914A02019690934A02809349020397EE
S11303A028F20895C4988FB9779BFECF08958FB92A
S11303B0779BFECFC49A08958FB9779BFECF08959B
S11303C0CF93C62F0E94D20183EC99E00197F1F7F5
S11303D000C000008C2F0E94D70183EC99E00197A4
S11303E0F1F700C00000CF9108950F931F93CF93AE
S11303F0DF93C4E0D0E001E010C060E0812F0E94F0
S1130400E0011F5F1930C9F789EF90E00197F1F718
S113041000C000002197209711F0102FEECFDF913C
S1130420CF911F910F910895DF92EF92FF920F9356
S11304301F93CF93DF937A01C62FD72F8C01DD242E
S1130440D394C4988D2D0E94DC01F70181917F0122
S11304500E94DC018D2D0E94DC0189910E94DC0147
S11304608D2D0E94DC01F80181918F010E94DC0135
S1130470C49AD394F9E0DF12E4CFDF91CF911F91B6
S11304800F91FF90EF90DF90089587B3836B87BB44
S113049088B38C7488BB87EA91E60197F1F700C0B2
S11304A0000080E58DB91EB80E9488010E94F50104
S11304B04EE352E066E372E08EE292E00E941402A0
S11304C09FE32DE083E0915020408040E1F700C09D
S11304D0000046E252E06EE172E086E192E00E94A2
S11304E014029FE32DE083E0915020408040E1F727
S11304F000C000004EE052E066E072E08EEF91E052
S11305000E9414029FE32DE083E09150204080403C
S1130510E1F700C0000046EE51E06EEE71E086EFB8
S113052091E00E941402C09AC19883EC99E001976B
S1130530F1F700C000000E944900C19AC0980E94CF
S11305404900C09AC1980E94DC00C19AC0980E94D8
S1130550DC00C09AC1980E940C01C19AC0980E9404
S11305600C01C39A87EA91E60197F1F700C00000F5
S10B0570C398FFCFF894FFCFFC
S1130578000000000000000000000000000000006F
S11305880000000000000080C0E0F07838FCFEFFA6
S1130598FFFFFC000183C7FE780383FEFE79038313
S11305A8FEFC000000000000000000000000000045
S11305B800000000000000008080C0E0E070783C8B
S11305C89ECFCFC30101000000FFFFFFFFFFFF0024
S11305D802038381C0C2C3C1C18003030180C0C0B8
S11305E8C0C0C080000000000000000080C0E0F02F
S11305F8783C1E0F070703091C0EFFFFFFFFFFFFD0
S113060800000000007F3F1F0F87C31C0E07037FF5
S11306183F3F1F8FC7E30E0E0703FFFFFFFFFFFFD8
S1130628FF0000003C1E0F0703010100000000004A
S1130638000000000000FFFFFFFFFF7F38381C0E9A
S113064807FCFEFFFFFF7F381C0E0F78FEFEFFFF3E
S1130658FF7F3C1C08007FFFFFFFFFFF7F381C085B
S1130668000000000000000000000000000000F08E
S11306783C03010303030706060E1E1C1C3C787882
S113068870E0E0E0C080808000000000000000000E
S113069800000000000000000080808080808080CE
S11306A880808383878F8FBFFEFCFCF8F0F0C080C6
S11306B8000000000000000E0F0F0F0F0FEFFFFFE8
S11306C8FFFFFFFF3F0F0F0F0FCFFFFFFFFFFFFFDE
S11306D8FE3800000000000000F8F8F8FFFFFFFFF4
S11306E8FFFFFFF8F8F8F8FC7F7F7F7F3F1F1F07A5
S11306F80100801F000300C66C3838386CC600C679
S11307086C6C383830E078CCDCDCFCECECCC70D8A1
S1130718D87818D8700070D8D870D8D87000F8185D
S113072830303060600070D8C0F0D8D87000F8C09D
S1130738F01818D87000183878D8FC18180070D831
S1130748183018D8700070D8183060C0F80060E00D
S1090758606060606000B7
S9030000FC
